:10000000186F0020CD350100C9350100AD36010063
:1000100000000000000000000000000000000000E0
:10002000000000000000000000000000C9350100D1
:100030000000000000000000C9350100C9350100C2
:10004000C9350100C9350100C9350100C9350100B4
:10005000B1010200C9350100C9350100C9350100EF
:10006000C9350100F1FB010001FC010011FC010098
:1000700021FC010031FC010041FC0100C9350100F7
:10008000C9350100C9350100150002002500020034
:1000900035000200C9350100C9350100C93501002C
:1000A000C9350100C9350100C9350100C935010054
:1000B00010B5041C0388002B03D1044B9847044B54
:1000C000984700232380032010BDC046395C000000
:1000D000995F000030B583B00D1C6B469C1D211C40
:1000E000024B984723882B7003B030BDF5390100CF
:1000F00008B589B2014B984708BDC046CD3901000B
:10010000F0B5474680B490B0BE4B98478023DB05DE
:10011000009300230193FF2269460A8100228B721B
:10012000CB72012124206C46215401302154253109
:100130006354013163540A930531635401316354AC
:1001400005932382E3762276227762761323A376C1
:100150006277E1235B02089380235B030393AA4B3E
:100160000C93AA4B0D9301235B420E930F93A84C63
:10017000A84B1C60A84AA94B1A60A94AA94B1A604F
:10018000201CA9496A46A94B9847A94E336898682C
:100190000021A84DA847336858680021A847236864
:1001A000DA69002AFCD1196802320A431A60984BB6
:1001B0001B68DA69002AFCD15A68802149020A4387
:1001C0005A600124924BDC719B4B984707209B4B54
:1001D00098479B4B1C70BFF35F8F62B6994A1369B7
:1001E00004218B4313610022974B5A70974B984719
:1001F000974B9847974B9847974B9847974B9847FB
:10020000974B9847974B984797480021974B9847AB
:10021000974B98479748984DA8479848A8479848BB
:10022000984B9847984B1C789848A847630602D586
:100230009748944B9847A30602D59648914B984708
:10024000E30602D594488F4B9847630702D593483D
:100250008C4B9847A30702D591488A4B9847E307F0
:1002600000D4B5E18F48874B9847B1E16B46E15C1C
:10027000381CB0470134072CF8D1BEE16B46E15C75
:10028000381CB0470134072CF8D16B46D979864821
:10029000794EB047854C2088854B9847854B9847C9
:1002A0001A20854B9847854B9847011C8448B047D6
:1002B000844B9847844800216C4B9847834B984760
:1002C000834B9847834B18600122834B1A70218817
:1002D000002903D08148684B984702E08048694B69
:1002E00098478048291C08227F4B98477F4B9847A6
:1002F0007F4B1D68DC69A0478022002805D0A047FD
:10030000011C80207B4B9847021C7B48291C1A2328
:10031000594CA04779480021544B98477848A0474A
:1003200001204042774B9847051C841C10239846B7
:100330008044754F504E21786278381CB0470234A3
:100340004445F8D1297C6A7C70484B4CA047FC237B
:100350006A461380002353809380D3801381538196
:100360009381D38168465F49694B9847684600216D
:100370000022684B98476848A0476C460E276F4498
:10038000614E3D4D21786278301CA8470234BC4252
:10039000F8D16B46997BDA7B5C48374CA0475F48C5
:1003A000A0475F4B1B68002B09D05D4C5D4E324D62
:1003B0005968301CA84704342368002BF8D11C4B23
:1003C000186882689368013B9360002B00DBADE006
:1003D0008268936891698B4210DB13680A221A7055
:1003E000134B18688268136819780A2902D0013300
:1003F0001360A5E00A214C4B9847A1E00A214A4B23
:1004000098479DE0B1360100030004000300050099
:10041000F40B002028560020F10000002456002094
:10042000D50000002056002000080042D53601000B
:10043000400400205D090000993E0100C93E010012
:10044000E809002000ED00E000040040B13F010099
:1004500001320100D93C0100995201008D4C01008C
:10046000B13A0100D54D0100180A0020294F0100C2
:10047000593F0100545F0200C9080000605F02009C
:10048000705F02004909000038040040A05F0200CC
:10049000B45F0200CC5F0200DC5F0200EC5F020090
:1004A000086002002460020094600200923D002077
:1004B0002D56010011DD0100F946010051460100F1
:1004C00038600200754A0100040A0020F15301005F
:1004D000253C0100D8570020CC5700204C6002007A
:1004E0005C600200205800204D0800001DE501005E
:1004F000147002006906000070600200C40A002047
:100500007C600200C98C01008460020090600200DF
:10051000D58E01009D8D01009C600200BC60020030
:10052000305F0200C86002000920000083681B6879
:100530000A221A70354B1B689A68136801331360DE
:100540000720334B98473348334B9847334B9847F2
:10055000334B98470020334B9847334D334C344F3F
:10056000A847A0470028FBDCB847324B1B78002B7C
:100570000BD0314B9847314A314B1B681168CB1A6D
:100580001818106000222B4B1A702B4B98472C4BDD
:100590005860284E01237370BFF34F8F30BF1F4B3D
:1005A00098477378002B0BD0234B9847234A244B52
:1005B0005B685168CB1A1818506000221D4B5A70A6
:1005C0001D4B98471E4B186001221A4B1A70C7E743
:1005D0001C4B9847051C0023009301936846291C77
:1005E0000822194B98476846184B98471848194BEA
:1005F00098470024184F174E38E66B46D9791748AC
:10060000144B98470024164F124E37E64004002042
:10061000E13E0100305F0200F9540100093B010096
:10062000B9B10100E5940000493B0100054E01000D
:10063000293B0100CC570020253C010098570020A1
:10064000D8570020F94A01004D080000FDDC0100E8
:10065000CC600200C908000034600200E0600200C3
:10066000886002007047C04603460B437FD40022D7
:1006700043088B4274D303098B425FD3030A8B4236
:1006800044D3030B8B4228D3030C8B420DD3FF22A0
:10069000090212BA030C8B4202D31212090265D06E
:1006A000030B8B4219D300E0090AC30B8B4201D321
:1006B000CB03C01A5241830B8B4201D38B03C01A68
:1006C0005241430B8B4201D34B03C01A5241030BDF
:1006D0008B4201D30B03C01A5241C30A8B4201D390
:1006E000CB02C01A5241830A8B4201D38B02C01A3B
:1006F0005241430A8B4201D34B02C01A5241030AB2
:100700008B4201D30B02C01A5241CDD2C3098B4296
:1007100001D3CB01C01A524183098B4201D38B0113
:10072000C01A524143098B4201D34B01C01A5241B6
:1007300003098B4201D30B01C01A5241C3088B42FB
:1007400001D3CB00C01A524183088B4201D38B00E6
:10075000C01A524143088B4201D34B00C01A524188
:10076000411A00D201465241104670475DE0CA0F5F
:1007700000D04942031000D34042534000229C461F
:1007800003098B422DD3030A8B4212D3FC22890129
:1007900012BA030A8B420CD3890192118B4208D3FF
:1007A000890192118B4204D389013AD0921100E061
:1007B0008909C3098B4201D3CB01C01A5241830975
:1007C0008B4201D38B01C01A524143098B4201D3A2
:1007D0004B01C01A524103098B4201D30B01C01ACD
:1007E0005241C3088B4201D3CB00C01A5241830847
:1007F0008B4201D38B00C01A5241D9D243088B429D
:1008000001D34B00C01A5241411A00D2014663463F
:1008100052415B10104601D34042002B00D54942A3
:10082000704763465B1000D3404201B5002000F0E2
:100830000BF802BD0029F8D003B5FFF715FF0EBC79
:100840004243891A1847C0467047C04670B50F2A00
:1008500032D9041C0C430B1CA40731D1151C041CF9
:10086000103D2D0901352D0149191E6826605E686D
:1008700066609E68A660DE681033E66010349942B8
:10088000F3D10F2345191340032B1BD91C1F002341
:10089000A4080134A400CE58EE500433A342FAD188
:1008A000ED18C91803231A4005D00023CC5CEC5482
:1008B00001339342FAD170BD051C002AF5D1FAE745
:1008C000051CF2E71A1CF8E70FB400B5064983B01F
:1008D00004AB086804CB8168019300F0FDF803B015
:1008E00008BC04B01847C0464004002030B5041CC2
:1008F00089B0081C0D1C00F0BBF8114A04AB06922D
:10090000012201930223079280220590A168013001
:100910000495039002938B899201134205D11343EE
:100920008B814A6E074B13404B66201C01AA02F0D4
:100930002BFF431E98410A234042184309B030BDA3
:1009400058700200FFDFFFFF08B5034B011C186859
:10095000FFF7CCFF08BDC0464004002008B54A425E
:100960004A4180235200DB0000F002F808BDC04677
:10097000F0B547461D1C3C4B80B41E68041C8846DD
:10098000171C002E02D0B36B002B48D0022F59D871
:10099000002D57DB301C211C02F02CFD002363606E
:1009A000A361A3891A0623D483229343A381022F30
:1009B00028D04246002A36D0012F13D02B4A9BB2B2
:1009C000F263424665612260226100201A0706D563
:1009D00003221A40534253415B422B40A36004BCA4
:1009E0009046F0BD012213436A42A381A261E5E76C
:1009F000301C216902F0F0FD8322A3899343A38177
:100A0000022FD6D1002002221343A3810023A3602A
:100A1000231C43332360236101236361DFE7301C20
:100A200002F07EFDB2E7002D01D18025ED00281CEB
:100A300003F0EAF88046002807D08023A2891343F8
:100A4000A381B9E701204042C9E78020C00003F03C
:100A5000DBF88046002803D10120A3894042D2E779
:100A60008025ED00E9E7C046400400202134000065
:100A700010B5830727D00378002B26D0031C032151
:100A800002E01A78002A1CD001330B42F9D1196810
:100A90000F4A104C8A188A4322420FD10433196836
:100AA0000B4A8A188A43224208D104331968084A3B
:100AB0008A188A432242F1D000E001331A78002AD2
:100AC000FBD1181A10BD031CE1E70020FAE7C0466D
:100AD000FFFEFEFE80808080F0B544464D465F46B6
:100AE0005646F0B4C3B08146884609921C1C0D934B
:100AF00003F008F80368181C1993FFF7B9FF4B4679
:100B00001A90002B03D09B6B002B00D1A6E043462C
:100B100080219A89890193B20B4209D10A43434645
:100B200041469A81496EBD4B0B4041464B6693B29C
:100B30001A075AD542461269002A56D01A22134083
:100B40000A2B5ED032AB25930023CA46C34625AE9E
:100B5000B360736016931793189332AF10931B937F
:100B60000B93099C2378002B00D17BE0252B02D12D
:100B700078E0252B03D001342378002BF9D1099B91
:100B8000E51A10D0099B7D603B60B368EB18B36039
:100B9000736801337360072B48DC08370B9B9C4656
:100BA000AC4463460B932378002B01D100F0EFFF98
:100BB00001200023082516A94042CB77804600215A
:100BC0000020AC467835621C6378A94640240A9020
:100BD000079008912030511C1A1C203A582A00D93D
:100BE00004E38F4D9200AA5897464846414601F0CB
:100BF00067FA002811D143461A229B8913400A2B19
:100C0000A0D143460E229B5E002B9BDB484641460B
:100C1000099A231C01F0BEF901E00120404243B0D3
:100C20003CBC90469946A246AB46F0BD504659465C
:100C3000321C04F08FF9002809D132AFAEE75046DC
:100C40005946321C04F086F9002800D1A5E3D846A5
:100C500043469B895B06E0D40B98E0E7484602F0E8
:100C60005FFC54E7099C9EE70A1C0423079D1D4373
:100C700007950B78AFE70B784A1C2A2B01D101F0BE
:100C800060F91D1C303D111C0022092D12D8131CC7
:100C90002A1C9D00EB185B000131D3184A1E157801
:100CA0002A1C303A092AF4D91A1C2B1C002A01DA12
:100CB00000F09EFF90468FE74A46079B1343079339
:100CC0000B780A1C87E700221D1C131C303D9A007C
:100CD0000131D3184A1E12785B005B19151C303D98
:100CE000092DF4D90A93131C76E7099108991493F6
:100CF00016ABD9771023079A1A430792079B9B06D6
:100D000000D48CE107230D9A07329A4301339C46A5
:100D1000944463460D93536812680F930E92002B10
:100D200001DA00F00AFE0E980F9916ABDD7F4346FC
:100D3000021C139301230A434146002903DB80214F
:100D4000079888430790002A00D078E34246002A9B
:100D500001D100F06CFC012B00D1A1E332AA022BDF
:100D600001D100F099FC0E980F9907239C46434649
:100D7000A946B84608934F07C5086346CC082F43D9
:100D8000211C3C1C0340013A30331370381C0C43C7
:100D9000F1D10E900F9111920899079A47464D464E
:100DA0008846D20701D400F0DFFC302B01D100F0DF
:100DB000DBFC119B32A9013B1A1C119330231370E9
:100DC0008B1A0C930C9A131E434500DA4346089382
:100DD00000231593002D02D0089B013308930223B2
:100DE000079A1A40914602D0089B02330893842345
:100DF000079A1A40129200D00AE20A9B089A9C1A9B
:100E0000002C00DC04E2B2687368064D102C28DD6B
:100E100010218846391C57460AE0C046FFDFFFFF15
:100E2000EC600200A4620200103C0831102C16DDB8
:100E30004046103201330D604860B2607360072B8A
:100E4000F2DD381C5946321C04F084F8002800D02A
:100E5000FDE6103CB268736832A9102CE8DCBA4693
:100E60000F1C7C600133A4183D60B4607360072BD5
:100E700001DD00F07FFC16AB0837DD7FC9E10722FA
:100E800009910899149316ABD9770D9B4546073302
:100E90009343013294469C4462460D921A6817921D
:100EA0005B6817981893189903F046FF012801D042
:100EB00000F058FD179818990022002321F062F9DC
:100EC000002801D000F070FF16ABDD7F149B472B8C
:100ED00001DC00F089FECB4B11938023079A9A43E3
:100EE000079200F06DFE6246079B134307930B7851
:100EF0000A1C70E614931023079A09911A4307926B
:100F0000079B9B0600D45FE107220D9B07339343A9
:100F1000013294469C4462465C681B68181C211C84
:100F20000D92021C00230E900F912243002116A85F
:100F3000C177414600251391FEE614931023079ACA
:100F400009911A430792079B9B0600D424E10722CC
:100F50000D9B07339343013294469C4462465C6880
:100F60001B68181C0D92211C021C0E900F9101236E
:100F70002243DBE709910899149316ABD977A24B6A
:100F80001093079B9B0600D4D6E007220D9B0733E6
:100F90009343013294469C4462465C681B680E93FE
:100FA0000F94079B0D92DB0700D4D8E00E9B0F9C9B
:100FB0001A1C02232243B9D030201EA908705024E5
:100FC0006846001900784870079919430791ADE702
:100FD00009910D990B1C04330D9300230A680F939C
:100FE0000E92079A02331A43079230221EAB1A70F0
:100FF00048325A70854B149210930E9A022395E74B
:10100000079B0A1C034307930B78E4E509910899B1
:10101000149316ABD977079B9B0600D572E6079B06
:10102000DB0601D400F027FD0D9A136808930E9398
:101030000432DB170F930D9271E6079B0A1C2343C2
:1010400007930B78C7E50B786C2B01D100F0E9FD15
:101050001025079A2A4307920A1CBCE509910899B2
:1010600016ABD977079B9B0601D400F011FD0D99B3
:101070000B9A0B681A60D2175A600B1C04330D933D
:101080006FE509910D9914930B68043128AA0D910D
:101090001370002316A9CB77013308930C93002318
:1010A000002513931593119299E6089B002B01D00C
:1010B00000F007FD0B780A1C202108918BE5012325
:1010C000079A1A4307920B780A1C84E514930D9B28
:1010D00009911C1D1B6816A91A1C11930023CB77BC
:1010E000002A01D100F032FE43461198002B01DAAC
:1010F00000F0C4FD0021424603F02EF8002801D183
:1011000000F0ADFE119BC31A1A1C0C93DB43DB17D6
:101110001A40002316A9CD7F08920D9413931593BE
:1011200058E609910899149316ABD977374B109369
:10113000079B9B0600D528E7079BDB0604D4079B8B
:101140005B0601D500F048FD0D9B1A680E92002247
:1011500004330D93079B0F92DB0700D526E70E980B
:101160000F99021C02230A43E0E60D9B1D1D1B681C
:101170000A93002B01DA00F04DFD0B780D950A1C47
:1011800029E50B780A1C2B21089124E51493079B71
:1011900009919B0600D5DAE6079BDB0604D4079B82
:1011A0005B0601D500F01CFD0D9B1A680E92002213
:1011B00004330F920D930E9A0123B7E61493079B05
:1011C00009919B0600D59FE6079BDB0604D4079B8D
:1011D0005B0601D500F0FCFC0D9B1A680E92002204
:1011E00004330F920D930E9A00239FE609910899FC
:1011F00016AA1493D177002B01D100F0C8FC28AABD
:1012000046E7C04664620200706202008462020027
:10121000B468002D0FD016AA1F23944663443B6088
:1012200001237B60736801340133B4607360072B62
:1012300000DD13E208374B46002B0CD01EAB3B60A1
:1012400002237B60736802340133B4607360072B40
:1012500000DD0FE20837129B802B00D189E1139B40
:101260000C9A9D1A002D31DDCA4A73689046102DE4
:1012700021DD10229146221C444603E0103D083730
:10128000102D16DD4946103201333C607960B260A2
:101290007360072BF2DD50465946321C03F05AFEAC
:1012A000002800D0D3E4103DB268736832AF102D2F
:1012B000E8DCA046141C4246641901333A607D60A4
:1012C000B4607360072B00DDBCE10837079BDB05CA
:1012D00000D5F3E0119B3B600C9B9C467B607368E0
:1012E00064440133B4607360072B00DD9BE0083772
:1012F000079B5B0744D50A9B089A9B1A9846002BCC
:101300003EDD102B01DC00F034FD1022A24D914691
:101310007368221C4446A846554603E0103C083733
:10132000102C17DD9C491032396049460133796031
:10133000B2607360072BF1DD281C5946321C03F0A4
:1013400009FE002800D082E4103CB268736832AF16
:10135000102CE7DCAA464546A046141C42464444ED
:1013600001333D607A60B4607360072B08DD50463E
:101370005946321C03F0EEFD002800D067E4B46843
:10138000089B0A9A934200DA131C0B9A94469C44D9
:1013900063460B93002C00D051E4002332AF7360FE
:1013A000FFF7DFFB169B012B00DC23E1119B0134CF
:1013B0003B6001237B607368B4605D1C7560072D22
:1013C00000DD86E20837199B01353B601A9B75608A
:1013D0009C4664447B60B460072D00DD86E20837DC
:1013E000179818990022002320F0C6FE002800D08C
:1013F000CEE1169B119A013B0132E41801353A60A7
:101400007B60B4607560072D00DD03E1083721AB18
:101410003B601B9B01359C4664447B60B4607560F7
:10142000072D00DC63E750465946321C03F092FD5D
:10143000002801D0FFF70BFCB46832AF58E7012B4E
:1014400000D08BE40F9B002B02D10E9B092B27D9D8
:10145000434632AC0893B846A946271C0E9C0F9D04
:10146000201C291C0A22002320F0B4FE013F303248
:101470003A70201C291C00230A2220F0ABFE031C1A
:10148000041C0D1C0B43EBD10E940F953C1C089BC8
:101490004746984632AB1B1B4D4611940C9391E482
:1014A00027220E9B28A930338B54483216AB9C461A
:1014B00032AB62449B1A0C93119283E4149B652B0C
:1014C00000DC6FE7179818990022002320F054FEE3
:1014D000002800D1FEE0314B01343B6001237B60EA
:1014E0007368B46001337360072B00DDFBE20837DB
:1014F0001F9B169A934203DB079BDB0700D4F7E69A
:10150000199B3B601A9B9C467B6073686444013363
:10151000B4607360072B00DD8AE30837169B5D1EFD
:10152000002D00DCE4E61B4A73689046102D00DCB9
:101530005CE110229146221C444604E00837103D2D
:10154000102D00DC50E14946103201333C607960D7
:10155000B2607360072BF1DD50465946321C03F030
:10156000F9FC002801D0FFF772FBB268736832AF54
:10157000E5E70A9B089A9D1A002D00DC6FE6054AF4
:1015800073689046102D29DD10229146221C444696
:101590000AE0C04650620200A4620200A06202009B
:1015A000103D0837102D17DD4946103201333C60DD
:1015B0007960B2607360072BF2DD50465946321CE9
:1015C00003F0C8FC002801D0FFF741FB103DB268D2
:1015D000736832AF102DE7DCA046141C4246641934
:1015E00001333A607D60B4607360072B00DD98E1E1
:1015F000083734E60123079A134200D0D6E67B6011
:101600007368119A01345D1C3A60B4607560072DEF
:1016100000DCFBE650465946321C03F09BFC0028D8
:1016200001D0FFF714FBB468756832AFEFE6002B0A
:101630002CD1079BDB0729D53021272328AAD15499
:101640006F2233E750465946321C03F083FC0028D2
:1016500001D0FFF7FCFAB46832AF37E6504659467E
:10166000321C03F077FC002801D0FFF7F0FAB468D1
:1016700032AFE0E550465946321C03F06BFC0028BF
:1016800001D0FFF7E4FAB46832AFE4E500230C932D
:1016900032AB1193FFF796FB0F20BC46A9460E9C78
:1016A0000F9D031C10992340CB5C2F072109013AA1
:1016B0000F4313702B091D1C3B1C3C1C2B43F0D10A
:1016C00032AB9B1A0E940F9567464D4611920C93C0
:1016D000FFF778FB1F9D002D00DC10E2119B169A8E
:1016E000191C9446159B61440C91151E9D4200DD0A
:1016F0001D1C002D0BDD119B64193B6073687D6020
:101700000133B4607360072B00DDECE20837EB4374
:10171000DB171D40159B5D1B002D7DDDDB4A7368CB
:101720009046102D00DCD2E110229146221C444646
:1017300004E00837103D102D00DCC6E149461032A8
:1017400001333C607960B2607360072BF1DD504675
:101750005946321C03F0FEFB002801D0FFF777FA50
:10176000B268736832AFE5E7119A32AB9B1A0C93FB
:10177000FFF728FB50465946321C03F0EBFB0028CC
:1017800001D0FFF764FA16ABDD7FB46832AF40E5F5
:10179000169B013B9946002B00DC38E6102B00DC41
:1017A000B1E0BA4B984608E0083710235B429C46EC
:1017B000E1444B46102B00DCA7E043463B6010237E
:1017C000103401357B60B4607560072DECDD504648
:1017D0005946321C03F0BEFB002801D0FFF737FA50
:1017E000B468756832AFE0E7A046141C424664193D
:1017F00001333A607D60B4607360072B00DC76E5EE
:1018000011E650465946321C03F0A4FB002801D0D3
:10181000FFF71DFAB46832AF159A119B94466344E2
:101820009846169A1F9B934244DB079AD20741D4ED
:1018300041460C9A521A1699CB1A1D1E954200DD8C
:10184000151C002D0BDD42463A60726864190132A6
:101850007D60B4607260072A00DD68E20837EA4301
:10186000D21715405D1B002D00DC41E5874A7368E7
:101870009046102DBADD10229146221C444603E00A
:101880000837103D102DAFDD4946103201333C6062
:101890007960B2607360072BF2DD50465946321C06
:1018A00003F058FB002801D0FFF7D1F9B268736844
:1018B00032AFE6E7199A3A601A9A94467A607268EB
:1018C00064440132B4607260072A00DD22E2083706
:1018D000AEE750465946321C03F03CFB002801D0CD
:1018E000FFF7B5F9B468756832AF6CE550465946F4
:1018F000321C03F02FFB002801D0FFF7A8F9B468D1
:10190000756832AF6CE5614B984643463B604B4689
:101910004C4401357B60B4607560072D00DC75E5D3
:1019200078E650465946321C03F014FB002801D0DB
:10193000FFF78DF9B46832AF91E40E990F9A002445
:101940004B429441191C2D2316A8221CC377081C56
:1019500043460E910F92021C13932D25012322431F
:10196000FFF7EAF91798189903F0E6F9002800D173
:101970001AE14346013300D1B7E22023149A9A4377
:101980000C92472A00D175E28023079A5B001A4324
:10199000189B1292002B00DA8EE2179A98460023C9
:1019A00091461393149C662C00D16EE1462C00D115
:1019B0006BE10C9B5046453B594259416B181A1C30
:1019C0000893022300931FAB029320AB039323AB36
:1019D000019204934A46434600F086FC1190672C1E
:1019E00002D0472C00D060E1119A089B94466344D2
:1019F0001C1C079BDB0700D48AE2002348464146B3
:101A0000002220F0B9FB231C002809D1239B9C4213
:101A100006D930215A1C23921970239B9C42F9D875
:101A2000119A9B1A16930C9B472B00D1A5E1149B8E
:101A3000652B00DCA4E2149B662B00D15BE21F9BAC
:101A40001593169B159A934200DD40E2079BDB0736
:101A500000D56AE2D343DB1713400C92139A002A95
:101A600000D096E10893129B16AA07930023D57F16
:101A70001393FFF7AFF9079B0D9A5B0601D4FFF7AD
:101A8000D4FA0021535EFFF7D2FAC046506202003A
:101A9000079BDB060CD4079B5B0609D569460D9BAB
:101AA000898D1A680433079211800D93FFF759F856
:101AB0000D9A0B9913681960131C04330D93FFF7EB
:101AC00050F80B780A1CFFF786F8A046141C424613
:101AD000641901333A607D60B4607360072B00DDE8
:101AE0008FE6083798E650465946321C03F032FA22
:101AF000002801D0FFF7ABF8B46832AFF8E4E04B50
:101B000001343B6001237B607368B4600133736010
:101B1000072B72DC0837002D07D1169B002B04D150
:101B2000079BDB0701D4FFF7E3FB199B3B601A9B84
:101B3000E2187B607368B26001337360072B00DDCD
:101B4000ACE108376D42002D00DC89E0CD4910245E
:101B50008846102D05DCD2E00837103D102D00DC42
:101B6000CDE041461032013339607C60B260736071
:101B7000072BF1DD50465946321C03F0EBF90028E3
:101B800001D0FFF764F8B268736832AFE5E7B36875
:101B9000D846002B01D1FFF75BF850465946321C5E
:101BA00003F0D8F9FFF754F8149B472B00DDEDE064
:101BB000B54B11938023079A9A4316ABDD7F0792AA
:101BC000032308930C93002313931593FFF702F953
:101BD0000D9B1A88FFF702FB0D9B1A88FFF7B6FAD8
:101BE0000D9B1A88FFF7E2FAA84B1193FFF775F9DE
:101BF000012252429046FEF7EFFF50465946321CF2
:101C000003F0A8F9002801D0FFF721F81F9DB46860
:101C100032AF80E70A9B0A1C5B420A930D95FFF7DF
:101C200024F8079B4A1C034307934B78FEF7D3FF26
:101C300050465946321C03F08DF9002801D0FFF7B9
:101C400006F8B46832AF69E450465946321C03F0D6
:101C500081F9002801D0FEF7FAFFB268736832AF4D
:101C60001199013339601699736054187960B46022
:101C7000072B01DCFFF73BFBFFF7D5FBFEF7F8FE78
:101C8000021C0C90031CFFF741FA032300931FABC7
:101C9000029320AB039323AB0493019550464A462D
:101CA000434600F021FB08951190089A119B944639
:101CB00063441C1C0C9B462B00D09EE6119B1B789A
:101CC000302B02D01F9BE41897E64846414600227D
:101CD000002320F051FA0028F4D10123089A9B1A1E
:101CE0001F93E41889E650465946321C03F032F936
:101CF000002801D0FEF7ABFFB46832AF07E54146DC
:101D00005219013339607D60B2607360072B9BDC30
:101D10000837A5E750465946321C03F01BF9002846
:101D200001D0FEF794FF1F9BB46832AF80E55046A8
:101D30005946321C03F00EF9002801D0FEF787FF48
:101D4000169B1F9AB4689B1A32AF88E54046062856
:101D500000D90620C343021CDB171A40002313934B
:101D600015934B4B0C9008920D9400251193FFF79F
:101D700036F87368474DFFF7F1FA1F9CE31C19DB37
:101D8000A54217DB6723159414935AE6424B11932F
:101D900010E70893129B2D220793002316A9CA77F8
:101DA0002D251393FFF718F82D2316AAD3772D2589
:101DB000FFF78CF8149B023B14936A46502152188B
:101DC000127821AB013C1F9498461A70002C00DA5F
:101DD000CAE02B2342465370092C00DC9AE016AA75
:101DE0003B239446634499461D1C201C0A21FEF7A0
:101DF00021FD013D30312970201C0A21FEF734FC01
:101E0000041E092CF1DC30346A1EE4B214704A4519
:101E100000D3B0E0711B4346414400E014789C704D
:101E2000013301328B42F9D116AA94462E23634422
:101E30009C46751B654443461699EB1A0A1C9C4642
:101E400062441B930C92012972DD0C9B01331A1C16
:101E50000C93DB43DB17134000221592FEE516AB13
:101E6000DD7F434608930C9300230D941393159341
:101E7000FEF7B0FF002D00D086E5012584E5C046C1
:101E8000A06202005062020068620200606202000A
:101E900098620200A46202006C6202005046594639
:101EA000321C03F057F8002801D0FEF7D0FE1F9D2A
:101EB000B268736832AF45E6802212069446179BDB
:101EC0009946189B634498462D2313936AE5159B06
:101ED0000120002B32DD031C169A944663441A1C21
:101EE0000C93DB43DB171340B8E52023149A062537
:101EF0009A430C9248E51F9B1593002B2BDD002D78
:101F00000FD1079BDB070CD4159A131C0C92A5E587
:101F1000239B85E54246302330349370D47022AD44
:101F200089E701352B1C159AD7E7159B0133D6E7B6
:101F3000079BDB0789D40C9A131C8AE70130C01A6F
:101F4000C9E70D9B1D1D1B689846002B1ADB4B78BB
:101F50000D95FEF740FE002D0BD1079BDB0708D443
:101F6000012201230C9279E52D23424664425370ED
:101F700032E7AB1CB3E716AB2E259C4665445AE707
:101F80001F9C1AE74B78012149420D958846FEF7C0
:101F900022FEC04670B5061C02201A4CA5440C1C3B
:101FA0008989814368468181616E1991E189C18186
:101FB000E169301C0791616A09911AA900910491A5
:101FC0008021C90002910591002106916946FEF722
:101FD00083FD051E05DB301C694601F00BFA002865
:101FE0000CD16B469B895B0603D54023A289134322
:101FF000A381281C8D23DB009D4470BD01256D420B
:10200000EFE7C04698FBFFFF70B5061C0D1C141CC3
:10201000002802D0836B002B4AD0A289A36991B219
:10202000A3600B073AD52369002B37D0FF2005406A
:1020300080208001014215D022686169D31A8B4249
:102040001BDA0133A1680139A160511C21601570B0
:1020500062699A421AD0A389281CDB0701D50A2D90
:1020600014D070BD0243616EA281144A0A406266B8
:1020700061692268D31A8B42E3DB301C211C01F01A
:10208000B9F9002817D122680123DBE7301C211C95
:1020900001F0B0F900280ED1281CE2E7301C211C09
:1020A00000F00EF8002806D1A289236991B2BDE79D
:1020B00001F036FAB1E701204042D2E7FFDFFFFF2F
:1020C00038B5324B051C18680C1C002802D0836BF5
:1020D000002B3BD0A08983B21A070DD521690029B6
:1020E00016D0DA0722D50023A360636900205B4283
:1020F000A361002922D038BDDA063ED55B0728D47B
:1021000021690822031C1343A3819BB20029E8D153
:10211000A022802092001A4080008242E1D0211C3F
:10212000281C01F0F3FCA3892169DAE700229B0750
:1021300000D46269A26000200029DCD1A3891A06BC
:10214000D9D540221343A3810138D4E701F0E8F93F
:10215000C0E7216B002909D0231C4033994203D0EA
:10216000281C01F039FAA089002323632423984313
:102170000023216963602160C3E709232B604023AA
:1021800003430120A3814042B5E7C046400400203C
:10219000F0B54D4644465F465646F0B403690C69B7
:1021A00085B000259C4200DD95E00B1C1422013C0B
:1021B0001433A6009F1902939446031C6344984667
:1021C0003B68464403910190591C30681FF034FF6E
:1021D000B346051E45D0029B002699460020231CCD
:1021E000BC46041C2F1C4846351C9946464604C86C
:1021F0001104090C7943120C7A4369180B0C9A18D4
:10220000336809041B041B0C1C19090C631A316880
:10221000150C1204090C120C8A1A191452181B04FA
:1022200014141B0C1204134308C68445DFD25B460A
:102230001B683D1C4C466746002B12D15E46043E8F
:10224000B0450CD23368002B09D1434602E0326816
:10225000002A03D1043E013CB342F8D39846019BC7
:102260001C610198039902F08FFA002833DB029B6E
:1022700000209C466646A4463C1C4746013539680A
:1022800004CE0B041B0C181813041B0CC31A090CE6
:10229000120C18148A1A12181B0410141B0C1204A6
:1022A000134308C7B442EAD26446A30043441A6801
:1022B000002A10D1043B98450BD21A68002A08D195
:1022C000424602E01968002903D1043B013C9A42CE
:1022D000F8D3019B1C61281C05B03CBC9046994674
:1022E000A246AB46F0BDC046F0B556465F464D46E9
:1022F0004446F0B4016C99B082461D1C161C1F1C8C
:10230000002909D00123426C93404A608B6002F09F
:1023100023F8002352461364B846002F32DB002313
:10232000259A13604246D84B1A409A4218D0301C66
:10233000391C002200231FF01FFF00282AD0012390
:10234000249A1360269B002B00D13FE2CF481860EF
:10235000013819B03CBC90469946A246AB46F0BD48
:10236000CB4B249A1360002E00D10BE2C948269B68
:10237000002BEED0C278C31C002A00D00533269A69
:102380001360E6E70123259A13606B005B0898460B
:102390001F1CC7E717AB009316AB019350463B1CBD
:1023A000321C02F083FA43468346180D00D1EFE158
:1023B0003903B94C090B0C43B849321C88461699AD
:1023C000231C8946002180440991101C191C0022FD
:1023D000B34B21F07FF9B34AB34B20F0E1FEB34A8F
:1023E000B34B1FF077FF041C40460D1C21F022FD6B
:1023F000B04AB14B20F0D4FE021C0B1C201C291C3F
:102400001FF068FF041C0D1C21F0DEFC291C03904A
:102410000022201C00231FF0B5FE002800D0CBE2D4
:1024200001230C93039B162B11D8A44ADB00D3186D
:1024300018685968321C3B1C1FF0B8FE002801D1F7
:1024400000F0F9FB039B013B039300230C934246EE
:102450004B469B1A00220692013B049300D5B8E23A
:10246000039B002B00DA9EE2049A9C46111C0D93FC
:102470000023614404910A93229B092B00D9A7E110
:102480000124052B02DD0024043B2293229B032B15
:1024900001D100F02EFD01DC00F0ACFC229B042BEE
:1024A00001D100F03FFC01230B93229B052B01D0AF
:1024B00000F0A5FC039A239B9446634412930133D6
:1024C00007939846002B01DC00F08BFC079B1D1C3A
:1024D00098460023524600215364172D0AD9012241
:1024E00004335B00181C1430111C01328542F8D2F1
:1024F00053465964504601F007FF5346186443465B
:1025000008900E2B00D975E1002C00D172E10398E0
:1025100010961197031E01DC00F042FD0F2267495F
:102520001340DB00CB1806111C685D68F30601D46C
:1025300000F0EDFC10981199614B16401A6A5B6A25
:1025400020F0F0F9032398460E900F91002E14D03E
:102550000123291C9946201C4546594F4B463342BE
:1025600004D03A687B68013520F01AFE76100837EF
:10257000002EF3D1A846041C0D1C0E980F99221CA6
:102580002B1C20F0CFF9061C0F1C0C9B002B09D034
:10259000301C391C0022404B1FF0F4FD002801D0F4
:1025A00000F0E1FD404621F045FC321C3B1C20F0D0
:1025B000F7FD0022434B1FF08DFE434A0B1C94464F
:1025C00063440E900F910F93079B002B01D100F0F5
:1025D00065FC039B1493079B13930B9B002B01D16A
:1025E00000F02EFD139B354A013BDB00D3181A681F
:1025F0005B680020354920F095F90E9A0F9B21F079
:1026000069F80E900F91391C301C21F0DDFB051C80
:1026100021F010FC021C0B1C301C391C21F05AF854
:10262000061C0F1C089A3035E9B21170541C8846FC
:102630000E980F99151C3B1C321C1FF0B7FD00288B
:1026400001D000F0CDFD321C3B1C0020124921F0CE
:1026500041F8021C0B1C0E980F991FF0A7FD0028D3
:1026600001D000F002FE139B012B01DC00F089FC7D
:10267000AC46634499465B4613935346A2460E9C70
:102680000F9D159336E0C0460000F07FA162020066
:102690000F270000C06202000000F03F01FCFFFFB6
:1026A0000000F83F61436F63A787D23FB3C8608BD8
:1026B000288AC63FFB799F501344D33FD062020063
:1026C000A863020000001C400000C0FC0000E03FC6
:1026D000321C3B1C0020C24920F0FCFF221C2B1C9A
:1026E0001FF050FD002801D000F093FDCA4501D134
:1026F00000F043FC201C291C0022BA4B20F050FDA6
:102700000022B84B041C0D1C301C391C20F048FD65
:102710000F1C061C21F058FB804621F08BFB021C8D
:102720000B1C301C391C20F0D5FF01239C4643466E
:102730003033DBB2984601234246E2445B425344C5
:102740001A709B46221C2B1C061C0F1C1FF01AFD26
:102750000028BDD0139B54469B46159B9A46149B5C
:1027600003935046594601F0F7FD00232370039B65
:10277000249A01331360269B002B00D137E31C60A1
:102780000898E6E543461B0300D0EFE59648EEE5E2
:10279000169B9946179B4B441C1E944B9C4200DA97
:1027A00044E24246924B1B1B9A40131C914AA018CC
:1027B000321CC240101C184321F078FB8E4D021CC5
:1027C0004B19611E884601210991FEE58B48C0E541
:1027D0000023524650465364002101F095FD5346B4
:1027E000186401230B93002322932393013B089049
:1027F00007931293179B002B00DAAFE0039A0E2A7F
:1028000000DDABE0D3007E4AD3185C681B680493FC
:102810000594239B002B00DA8FE2341C3D1C301CF6
:10282000391C049E059F321C3B1C20F07BF821F0D4
:10283000CBFA804621F0FEFA321C3B1C20F0B0FCA3
:10284000021C0B1C201C291C454620F043FF089E3F
:102850003035341C3570079D021C0B1C0134012DD2
:102860004ED000225F4B20F09BFC00220023061C70
:102870000F1C1FF081FC002800D072E7089B079A0C
:102880009D1C9C465B46069353466244AA46049CA4
:10289000059D914607930FE00022524B20F080FCEB
:1028A00001239C4600220023061C0F1CE2441FF05B
:1028B00063FC002800D0D9E2221C2B1C301C391CE0
:1028C00020F030F821F080FA804621F0B3FA221C83
:1028D0002B1C20F065FC021C0B1C301C391C5646BE
:1028E000474620F0F7FE013E3037021C0B1CD34652
:1028F0003770CA45D0D1069954468B4607998A4607
:10290000101C191C1FF0E6FC061C0F1C04980599EE
:10291000321C3B1C1FF036FC00280CD10498059992
:10292000321C3B1C1FF028FC002800D119E743464D
:10293000DB0700D415E7651E2B78089906E0A9424D
:1029400000D15AE3023C23782C1C013D2A1C392B70
:10295000F5D01D1C0135EBB2137002E70B9A002A6B
:1029600050D0229A012A00DC22E2079B5C1E0A9BBF
:10297000A34200DAC1E21C1B079B002B00DAD5E35F
:10298000069B0993079B069A504694469C446246D0
:102990000692049A012194469C446346049301F0F4
:1029A00077FD814633E0069A039BD21A5B420A9375
:1029B000002306920D935FE5039821F03BFA221C59
:1029C0002B1C1FF0D9FB43424341039AD31A0393B4
:1029D00026E5049B5B4206930023049340E5C04632
:1029E0000000F03F00002440B4620200EFFBFFFF54
:1029F0000EFCFFFF12040000000010FEA0620200A7
:102A0000D0620200069B0A9C099300239946099A0A
:102A1000002A0ED004990B1E0BDD914200DD7FE1F0
:102A2000069AD21A0692099AD21A0992049AD31ACD
:102A300004930A9B002B1ADD0B9B002B00D151E263
:102A4000002C10DD4946221C504601F0D9FD81467C
:102A50005A464946504601F025FD051C5946504648
:102A600001F07AFCAB460A9B1A1B00D086E1504667
:102A7000012101F00DFD0D9B8046002B15DD414627
:102A80001A1C504601F0BCFD229B8046012B00DC45
:102A90007AE1002443461B6903339B004344586892
:102AA00001F0AAFC2023181A08E0229B0024012B25
:102AB00000DCD0E10D9B0120002BEBD1049B9C4658
:102AC0001F236044184000D1AEE001331B1A042BD1
:102AD00000DCD1E31C23181A069B9C468444634601
:102AE0000693099B9C46844463460993049B9C4639
:102AF000844463460493069B002B05DD59465046EB
:102B00001A1C01F0DBFD8346049B002B05DD4146CA
:102B100050461A1C01F0D2FD80460C9B002B00D0C1
:102B20008DE0079B002B00DC7AE10B9B002B00D192
:102B3000A3E0099B002B05DD494650461A1C01F015
:102B4000BDFD81464B460B93002C00D05FE2079CF5
:102B5000089A013C231C944663440993434601248C
:102B600006930B9B34404D465E4690469946D346AD
:102B70000794069F301C391CFFF70AFB031C0A90C0
:102B80003033291C301C049301F0FEFD391C041C59
:102B90004A46584601F014FEC368071C002B00D0BB
:102BA00017E1301C391C01F0EFFD82465846391CF4
:102BB00001F0D2FB5346229A134303D1079B002B0B
:102BC00000D111E3002C00DAA9E1229B1C4303D1C0
:102BD000079B002B00D1A2E15346002B00DD8AE2C7
:102BE0006A464346127C5F1C1A70099B3C1C984540
:102BF00000D192E2311C0A220023584601F0B6FBB4
:102C0000291C061C0A22584600234D4500D1DAE053
:102C100001F0ACFB4946051C0A225846002301F08E
:102C2000A5FBB8468146A4E71C2055E7301CD64BCF
:102C30001B1B9840C0E500230C93FFF708FC584687
:102C4000414601F0A1FD002800DB6AE7039B5946DD
:102C5000013B0393504600230A2201F087FB0B9BA4
:102C60008346002B00D0E7E2129B002B04DC229B62
:102C7000022B00DDF2E2129B0793089B47460024DB
:102C8000079E5D46984606E0291C50460A2200230E
:102C900001F06CFB051C281C391CFFF779FA434630
:102CA000303018550134B442EEDB079C061CAB46AD
:102CB000B846002C00DC3FE2089B00279C46644499
:102CC00059465046012201F0F9FC4146834601F085
:102CD0005BFD002800DC45E1651E2B78089A06E0C4
:102CE000AA4200D1BBE0023C23782C1C013D392BC9
:102CF000F6D001332B705046414601F02DFB4B4678
:102D0000002B00D12DE5002F05D04F4503D05046B4
:102D1000391C01F021FB5046494601F01DFB20E51E
:102D2000131C7DE601230B93239B002B54DD1D1CFC
:102D3000984612930793FFF7CCFB079B002B00DD0F
:102D40006BE500D0CAE00498059900228F4B20F073
:102D500027FA3B1C321C1FF033FA00239846994691
:102D6000002870D0239B089CDB43039350464146C8
:102D700001F0F2FA4B46002BCDD1F2E45946504611
:102D800001F03EFC834672E6002E00D081E63B0354
:102D90000024002B00D08DE67D4B3B4200D189E61C
:102DA000069B013401330693049B0133049381E6AF
:102DB000099A002A00D1C1E1764A0A9C9446069AF3
:102DC00063440992DFE501F0D1FAB846051C81465B
:102DD000CFE601239A46E9E601239846129307932A
:102DE00023930023524600215364FFF783FB089886
:102DF000FFF7AFFA00230B93229B022B94D0002401
:102E0000534650465C64211C01F07EFA5346186418
:102E100001230B93023B0890239407931293E9E458
:102E2000229B022B00DC80E6079B002B9AD14146B7
:102E30005046052201F09AFA80465846414601F074
:102E4000A3FC00288EDD3123089A1370039B541CC9
:102E5000013303938AE7002E00D02BE697E7039B0C
:102E6000089A013303933123137044E7069B5C46B1
:102E70009B46079B9A4674E4404620F0DBFF321CD9
:102E80003B1C20F08DF90022434B1FF023FA434AEC
:102E90000B1C944663440E900F910F93301C391C09
:102EA00000223A4B20F016FC0E9E0F9F321C3B1C5A
:102EB000041C0D1C1FF07AF9002800D0BCE0201C77
:102EC000291C0E9C0F9D221C2C1C80252D06AC4617
:102ED0006444231C1FF056F9002852D00023984662
:102EE00099463FE7594650460A9A01F089FB8346C6
:102EF000BDE500230B93FFF7DDFA0A9B0A94E21A63
:102F00000D9B00249C46944463460D9334E5109A2F
:102F1000119B0E920F9302239846FFF717FB4B4627
:102F200052460B93DA46069BB346049EA946371CCD
:102F300045469846002A0FDD59465046012201F0C9
:102F4000BDFB4146834601F01FFC002800DC6CE11C
:102F5000392E00D1FFE0771C0B9B2F706C1C4F4665
:102F60009946C8E6002803D1F30701D5B4E61C1C36
:102F7000631E1A78302AFAD0BDE6139B9B46159B38
:102F80009A46109E119F35E4EEFBFFFF00001440AF
:102F90000000F07F3304000000001C400000C0FC73
:102FA000039B5C42002C00D1CFE0109811990F23B5
:102FB000B44A2340DB00D3181A685B6820F0F0F8AD
:102FC0002411061C0F1C002C00D14AE10223984654
:102FD000013B99464746AC4D4B46234204D02A68F4
:102FE0006B68013720F0DCF864100835002CF3D151
:102FF000B846061C0F1CFFF7C8FA039B089A01335A
:1030000003933023137001331370FFF7AAFB596841
:10301000504601F079F94B464946041C1B690C31B6
:103020009A1C92000C30FDF711FC5046211C012225
:1030300001F044FB0B908AE500239846994602E78D
:10304000139B904A591ECB00D318159118685968E4
:103050000E9A0F9B20F0A4F80E900F91391C301C93
:1030600020F0B2FE051C20F0E5FE021C0B1C301CFB
:10307000391C20F02FFB139B0F1C08991A1C8C463F
:1030800030356244061C4C1C0D709146012B1ED03D
:10309000A046301C391C00227C4B20F081F80F1C0C
:1030A000061C20F091FE051C20F0C4FE3035021CE9
:1030B0000B1C301C391C20F00DFB257001344C45D5
:1030C000E9D1159B44469C46061C0F1C6444002213
:1030D0000E980F996E4B1FF0FDF8321C3B1C1FF031
:1030E00051F800286AD0651E2B7808999846149BE1
:1030F000039343462AE44B46DA460B93B346069BBA
:10310000049EA94645469846392E24D001362E7095
:103110000B9B4F466C1C9946EDE54B46069ADA46EA
:103120009046B3462F1C049E9946C9E5069B079A14
:103130009B1A0993002326E40124BDE53623169A41
:103140000A9C9B1A069A09921DE40223109E119F65
:103150009846FFF71AFA0B9B4F46994639236C1C89
:103160002B70089AC3E5079B002B00D184E6129CC4
:10317000002C00DC05E7039B0022013B1493301C6C
:10318000424B391C20F00CF8061C404601300F1C45
:1031900020F050FE021C0B1C301C391C20F000F8E3
:1031A00000223C4B1FF096F83B4A0B1C94466344AC
:1031B0000E900F9113940F93FFF70FFA0E9A0F9B37
:1031C0000020334920F086FA321C3B1C1EF0EEFF33
:1031D000002801D1D5E61C1C631E1A78302AFAD0CB
:1031E000149B0393FFF7BDFA4B46DA460B93B346A5
:1031F000069B049EA94645469846392EABD0002C26
:1032000001DD0A9E31362E700B9B4F466C1C994691
:1032100071E5159B54469A46139B5D469B46149B4D
:10322000089903934346FFF791FB002800D093E6EB
:10323000F30700D490E68BE64946002350460A2265
:1032400001F094F8129B8146002B01DD079370E496
:10325000229B022B02DC129B07936AE4129B0793CA
:10326000E2E502239846FFF790F9149B089903932F
:103270000D1C4346FFF76AFB042B00D13BE43C23C3
:10328000181A29E4D0620200A8630200000024405A
:103290000000E03F00001C400000C0FCF0B54746C5
:1032A00080B48B8980469AB20C1C11073DD48022D1
:1032B000120113436268A381002A62DDA56A002D12
:1032C0002FD042464146166800229BB20A60DA04BB
:1032D0005BD5226D5B0706D56368D21A236B002B82
:1032E00001D0E36BD21A00234046E169A847431C92
:1032F00056D0A2893E4B1340002262602269A3810E
:103300002260DB043BD44346216B1E60002908D0B9
:10331000231C4033994202D0404600F05DF900235F
:103320002363002004BC9046F0BD2669002EF8D02F
:10333000236826609D1B0023920700D16369A36068
:10334000002D04DCEDE736182D1A002DE9DD40468E
:10335000E169321C2B1C676AB8470028F3DC402364
:103360000120A28940421343A381DBE7A189204ABF
:10337000636023690A40A2812360D304C3D520651A
:10338000C1E7E26B002A99DCCBE700224046E16905
:103390000123A847021C431C18D0A389A56A99E7FA
:1033A00043461B68002BE1D01D2B06D0162B04D002
:1033B0004023A2891343A381B4E7A2890C4B134095
:1033C000A38100236360236923609CE743461B6855
:1033D000002BE2D01D2B06D0162B04D04023A18950
:1033E0000B43A3819EE7434600201E609AE7C04638
:1033F000FFF7FFFF38B5041C0D1C002802D0836BBB
:10340000002B09D00C22AB5E0020002B03D0201C27
:10341000291CFFF743FF38BD00F082F8F2E7C046F1
:1034200008B5024900F03CFB08BDC046155000003D
:10343000F8B55F4656464D464446344BF0B4C36338
:10344000B823002403229B00C45004334568C250B3
:103450000833C218043BC250061C0423281C2C60ED
:103460006C60AC60AB816C66EC812C616C61AC61B2
:10347000002108225C3000F0FDFE254B254F9A46C6
:103480002B62254BEF6299466B62244BED61AB6278
:10349000B56898460923281CAB81083B2C606C60FA
:1034A000AC606C66EB812C616C61AC610021082220
:1034B0005C309B4600F0DEFE53462B624B466B624F
:1034C0004346EF62AB62ED61F5681223281CAB81C5
:1034D000103BEB812C606C60AC606C662C616C61A5
:1034E000AC61002108225C3000F0C4FE53462B6220
:1034F0004B466B624346AB625B46EF62ED61B36382
:103500003CBC90469946A246AB46F8BD213400002B
:10351000B94D0000454E0000E14D0000194E00007D
:1035200008B5836B002B01D1FFF782FF08BDC046B1
:103530007047C0467047C046F8B50C1C061C00F02A
:10354000DFFE204FBB685D6803239D431E4B2C1B91
:103550009C466444240B1D4B013C24039C4207DD24
:10356000301C002101F016FCBB685B19984204D0A6
:10357000301C00F0C7FE0020F8BD6142301C01F095
:1035800009FC431C0DD001232D1BBA681D43104BB1
:1035900055601A68301C141B1C6000F0B3FE01203B
:1035A000EAE7301C002101F0F5FBBB68C21A0F2AC4
:1035B000DEDD08490968401A0549086001210A430F
:1035C0005A60D5E7A0040020EF0F0000FF0F0000B5
:1035D0000C0C0020AC080020F0B5474680B4002950
:1035E00049D00C1C051C00F08BFE211C08394F68CB
:1035F00001233C1C9C430A195068984602339843A7
:10360000031C5B488668964252D0464653603E4251
:103610000BD10826B4460F688444C91BE4198F688F
:1036200067455ED0CE68FE60B7600127D618766821
:103630003E4208D1E4184F4E9368B34200D173E084
:10364000D268DA6093604C4B27434F600C519C4228
:1036500014D8E408FF3BA210FF3B93404268E4000B
:103660001343436000198368C8608B608160D96030
:10367000281C00F047FE04BC9046F0BD630A042BF2
:1036800043D8A30938331A1C5E00B6008619B36804
:103690000327B3423FD05A68BA43A24202D99B687B
:1036A0009E42F8D1DA68CA608B609160D960DFE72A
:1036B0001C1943463B4206D10B68C91A8A68E418B4
:1036C000CB68D3609A6001222C4B22431B684A606E
:1036D00081609C42CCD32A4B281C1968FFF72CFF31
:1036E000C6E74646D0184068304209D14646E4183D
:1036F000D36892682643D3609A604E600C51B7E756
:10370000464626434E600C51B2E7142B14D85B3367
:103710001A1C5E00B9E7012492109440221C4468F0
:10372000224342601A1CBEE72743D9609960CB60F0
:103730008B604F600C519BE7542B04D8230B6E33E6
:103740001A1C5E00A1E7AA225200934204D8E30BA0
:1037500077331A1C5E0098E70A4A934204D8A30CF8
:103760007C331A1C5E0090E7FC267E228DE7C04663
:10377000A0040020A8040020FF010000A8080020E9
:10378000080C002054050000F0B55F4656464D4633
:103790004446F0B4936885B0002B27D002908B8903
:1037A00093460C1C1A0729D50A69002A26D05A46C6
:1037B000126892469A072ED5B64B002600259846E9
:1037C000002D6BD0E1692B1E434500D9B14B029807
:1037D000321C676AB847002800DC77E05B469B68CC
:1037E00036182D1A181A5B469860E9D1002005B0EA
:1037F0003CBC90469946A246AB46F0BD0298211CBF
:10380000FEF75EFC002800D03BE15A46A38912680F
:1038100092469A07D0D4DA075FD50023002799464D
:103820001D1C0193002F2ED0019B002B00D1C3E063
:103830002E1EBE4200D93E1C20682169B046A268F7
:103840006369884204D9D2180392964200DDF1E000
:103850009E4200DA94E00298E1694A46666AB047FF
:103860008046002832DD4346ED1A00D197E04346FA
:10387000FF1A5B4642469B68C1449B1A5A469360B6
:10388000B4D0002FD0D153461B68994653465F6889
:1038900008239C460023E2440193C3E753461E6875
:1038A0005D6808239C46E2448AE77B4B281E9842C9
:1038B00000D9181C311CFCF7D7FE031CE1697343C7
:1038C00002983A1C666AB047002825DCA28940238A
:1038D00001201343A381404289E700270025002DE2
:1038E00026D0A268904680229200134227D04646F6
:1038F00045455DD39022D20013426AD12068321C24
:10390000391C00F06BFC4246A368281C9B1AA3607C
:1039100023689C46664426605B469B683F182D1AC8
:10392000181A5B46986000D160E7A389002DD8D1B2
:1039300052461768556808229446E244CFE720684B
:103940002369984202D86669B542AED22E1E46451A
:1039500000D94646321C391C00F040FCA36822689E
:103960009B1B9219A3602260002B01D0301CD3E76F
:103970000298211CFFF73EFD0028A7D1301CCBE7A1
:10398000321C494600F02AFCA3689B1BA3602368F5
:103990009C46434666442660ED1A00D067E70298CD
:1039A000211CFFF727FD002890D1002301935EE73B
:1039B000A84620682E1CA2E748460A213A1C00F0BF
:1039C000CBFB002859D04B460130C51A0123019387
:1039D0002EE721692268521A9146484662690130F1
:1039E0005600B218D60FB61876104019321E824211
:1039F00001D2061C021C02985B052DD5111C00F09B
:103A00000DF98046031E3FD04A462169FCF71EFF90
:103A1000A289224B134080221343A3814346404690
:103A200023614B4648446661F61AA6602060A846AA
:103A30002E1C64E7161C494600F0D0FBB4462368F0
:103A4000029863442360211CFFF7D4FC002800D0B7
:103A50003CE7039B984606E700F086FF8046002877
:103A6000DCD1029D2169281CFFF7B6FD8022A389C5
:103A700093431A1C0C232B6029E701237D1C01931F
:103A8000D6E601204042B2E6029A0C331360A289C6
:103A90001DE7C04600FCFF7FFFFFFF7F7FFBFFFFAE
:103AA000F8B5B8234F4646469B00C0B4C718002F50
:103AB0001CD08946804600267B68BC685D1E0DD4FC
:103AC000A389012B07D90E22A35E013303D0404600
:103AD000211CC84706436834013DF1D23F68002FDE
:103AE000EAD1301C0CBC90469946F8BD0026F8E798
:103AF000004870477C040020014B18687047C0469E
:103B00009C0400200048704744040020F0B547465C
:103B100080B48B8990B09AB2940741D40C1C051CD8
:103B20000E20095E00291CDB281C01AA01F020FBE5
:103B3000002814DBF023029A1B0213402F4A9F181F
:103B400079427941802288461202934232D0802203
:103B50008026A38912011343A381F6000AE0A389FA
:103B60009AB24026120622D5802212011343A38165
:103B700000239846281C311C00F050F8002830D053
:103B80001F4BEB638023A28920601343A38143462C
:103B900020616661002B18D110B004BC9046F0BDC6
:103BA0000B1C43330B600B6101234B61F4E7802650
:103BB000F600D9E7134BA26A9A42C8D18026A3899E
:103BC000F6003343A381E664D4E70E23E15E281CAC
:103BD00001F0E2FA0028DFD00123A2891343A38178
:103BE000DAE7A3899A05D7D402221343A381231CC1
:103BF00043332360236101236361CDE700E0FFFFCE
:103C000021340000194E000008B5034B011C186850
:103C100000F004F808BDC04640040020F0B55F463F
:103C20004D4656464446F0B40D1C0B3583B0071C78
:103C3000162D2DD907239D4300D5C7E0A94200D9F1
:103C4000C4E000F05DFBF823FF339D4228D8E9086B
:103C5000CB4ECB00F318DC689C4200D1C1E10323BA
:103C600062689A43131CE268A168CA6091600122ED
:103C7000E3185968381C0A435A6000F043FB201CC3
:103C8000083003B03CBC90469946A246AB46F0BD16
:103C9000102900D99AE0381C00F032FB1025D6E735
:103CA000690A00D196E0042900D93CE138239C46FA
:103CB000A9098C4463465900B14E89007118CC683B
:103CC000A14215D0032362689A43131C521B0F2A8A
:103CD00000DD83E00320002A07DBC4E76368834339
:103CE0005A1B0F2A7ADC002ABDDAE468A142F5D11A
:103CF000614601310091321C34690832944200D18E
:103D000061E10323616899430B1C481B0F2800DD08
:103D100048E1726132610028A9DA9A4A914200D9D9
:103D20000DE10123C8088210934072681A43C30052
:103D3000F3189868E360A0609C60131C7260C46014
:103D40000120009A9210904098424CD818420DD110
:103D500003220099400091430A1D0092184205D1A8
:103D6000009A4000043200921842F9D0032398468A
:103D7000009AD3009946B144CC4692466346DC682B
:103D8000A44507D121E1002A00DB33E1E468A44522
:103D900000D11AE14246636893435A1B0F2AF2DDB1
:103DA000012163190D436560E068A5680836E86085
:103DB00011438560F360B360381CDE609E6059601B
:103DC0009A5000F09FFA201C08305AE70C2300207C
:103DD0003B6056E73F237E219C466DE701235B4213
:103DE0009846C44484E70323B46862689A439046C3
:103DF000954203D8521B0F2A00DD86E0231C434462
:103E0000614A0193614B93461B681268EB180132BB
:103E100000D15CE15E4A944663441B0B1B03009394
:103E2000381C009900F0B6FF031C8146013360D0B6
:103E3000019B834200D9F8E0564B009A9A461B68D2
:103E40009C46534662441A60019B4B4500D14CE1AD
:103E50005B461B68013300D15EE14B4601995B1A5A
:103E6000D21853461A6007234A46134000D113E183
:103E700008218946D21A9144474AD21A009B381C1D
:103E80004B441B051B0DD31A191C9B4600F082FFE7
:103E9000431C00D134E14B46C01A01235844184357
:103EA00053461B685B441A1C53461A604B46B3606A
:103EB0005860B44213D043460F2B00D8F7E0434676
:103EC000072160680C3B8B430639014005201943EC
:103ED0006160E118486088600F2B00D914E12F4B16
:103EE00019688A4200D91A602D4B19688A4200D994
:103EF0001A600323B46862689A43131C5A1B9D42DC
:103F000000D9B9E00F2A00DCB6E00123291C6519AD
:103F1000194313436160381CB5606B6000F0F2F91F
:103F2000201C0830ADE6142973D9542900D9A8E023
:103F30006E239C46290B8C4463465900BCE64A0A12
:103F4000042A6CD88A093832101C52009200944618
:103F5000B4446246032192688846624500D19EE0DF
:103F6000414650688843834202D292689445F7D113
:103F7000D0687368E060A2608460D460E0E6C04608
:103F8000A0040020FF010000AC080020080C002065
:103F90000F1000000C0C002008100000040C002082
:103FA000000C0020012163190D430143656073611A
:103FB0003361DA609A6059601850381C00F0A2F939
:103FC000201C08305DE67368BAE608239B46073B71
:103FD000DC449B46DA4443465246134200D0CDE6C9
:103FE00031E0231C64698A1C08330092A34200D18B
:103FF00081E634E60122E3185968381C0A435A6006
:10400000E368A268D3609A6000F07CF9201C083055
:1040100037E65B239C468C44634659004CE6142AE1
:1040200058D85B32101C520090E7B44200D060E7D1
:1040300002E7009B013B00934B461A68083B914600
:104040009A4200D080E04346009A1342F1D173684F
:10405000834373604000984200D9C4E6002800D131
:10406000C1E6184272D152460092009A40000432D2
:1040700000921842F9D07BE6381C00F043F900208A
:10408000FFE5AA235B00994217D8DD3B9C46E90B6C
:104090008C44634659000FE680225201EEE601236C
:1040A000801083407168101C0B43736062E701232A
:1040B0004A464C465360002320E7264B994210D8CD
:1040C0007C239C46A90C8C4463465900F4E51033CC
:1040D0000093A5E6542A23D80A0B6E32101C520016
:1040E00034E77E23FC219C46E6E51B0500D0AFE6C5
:1040F000009BB1684344181C012303434B60EEE668
:10410000002301209B46CBE6211C381C0831FFF719
:1041100063FA53461A68E2E65B464A461A60A2E62C
:10412000AA204000824204D8CA0B7732101C5200E9
:104130000CE70848824204D88A0C7C32101C5200DA
:1041400004E7FC227E2001E7736883E7534600936F
:104150000EE6C0465405000070B5CCB2830737D0D8
:10416000531E002A1FD00278A2421DD0032505E06D
:10417000002B18D00278013BA24215D00130284212
:10418000F6D1032B11D8002B0DD00278A2420BD010
:10419000421CC31804E00132511E0978A14203D029
:1041A000101E9842F7D1002070BDFF2529400D0256
:1041B00029430D04074E0D43026807496A40511810
:1041C00091433142DFD1043B0430032BF4D8DAE7CA
:1041D000131CD6E780808080FFFEFEFE70B588420B
:1041E0000BD98B18984208D2991A531E002A03D073
:1041F000CA5CC254013BFBD270BD0F2A09D8051C12
:10420000002AF9D00023CC5CEC5401339342FAD15C
:10421000F2E7041C0C430B1CA40726D1151C041C3C
:10422000103D2D0901352D0149191E6826605E6873
:1042300066609E68A660DE681033E66010349942BE
:10424000F3D10F2445191440032C10D90023043C4A
:10425000A4080134A400CE58EE500433A342FAD18E
:104260000324ED18C9182240CAE7051CCAE7221C1E
:10427000C6E7C04670B583073FD0541E002A3BD026
:10428000CEB2031C032503E0621E002C34D0141CA4
:1042900001335A1E16702B42F6D1032C24D9FF2568
:1042A0000D402A0215432A0415430F2C11D9261C50
:1042B000103E3609013636011A1C9B1915605560EF
:1042C0009560D56010329342F8D10F221440032C30
:1042D0000AD9261FB6080136B6001A1C9B1920C23F
:1042E0009342FCD103221440002C05D0C9B21C1902
:1042F00019700133A342FBD170BD141C031CCCE721
:104300007047C0467047C046C36C70B5041C0D1C96
:10431000002B0AD0AA009B18186800280ED002684B
:104320001A6000230361C36070BD0421212200F0E4
:104330002FFEE064031EEDD10020F5E70126AE401C
:10434000721D9200201C012100F022FE0028F3D0F3
:1043500045608660E5E7C046002906D04B68C26C20
:104360009B00D3181A680A6019607047F8B54F4669
:104370004646C0B40E1C81460D1C1F1C00200C6953
:104380001436316801300B041B0C5343090C5143A4
:10439000DB191F0C79181B040F0C1B0C0904C9181E
:1043A00002C68442EDDC002F08D0AB689C420ADADA
:1043B000231D9B00EB1801345F602C61281C0CBC92
:1043C00090469946F8BD6B684846591CFFF79CFF1C
:1043D000291C2B6980469A1C92000C300C31FCF78A
:1043E00035FA4A466B68D26C9B00D3181A682A606B
:1043F0001D604546DCE7C046031C010C0022002975
:1044000001D103041032190E01D108321B02190F19
:1044100001D104321B01990F01D102329B00002B04
:1044200005DB20205B0000D47047501CFCE7101C0B
:10443000FAE7C0460368011C5A0708D00020DA07D3
:1044400004D49A0720D402209B080B6070471804FC
:104450000022002801D11B0C1032FF20184201D18C
:1044600008321B0A180701D104321B09980701D131
:1044700002329B08D80704D45B082020002BE5D02B
:1044800001320B60101CE1E75B080B600130DDE7D7
:1044900010B50C1C0121FFF737FF012344610361B4
:1044A00010BDC046F0B55F4656464D464446F0B492
:1044B0000C69166985B00F1C151CB44200DA9CE02B
:1044C000331C261C1C1C33199846BB687968984518
:1044D00000DD0131FFF718FF1422031C94466344EA
:1044E0009B4643469B005B44191C029303905B462A
:1044F00000228B4503D2029904C39942FCD81423AD
:10450000A4009A461437231CBC46AA44B600534460
:104510000097B44401939A4552D253461B681E0437
:10452000360C22D05C4600276146009D236801CDF1
:104530001B041A0C03041B0C7343D318DB19070C60
:1045400077432268A446120CD2191F0CD2191B04FF
:10455000170C1B0C1204134308C4A942E6D8E14609
:104560004B465F6053468C461B681E0C21D05B4651
:10457000009C1B68371C1D1C261C00225C463088D2
:104580002D0C78434519A8181B0402041B0C134377
:10459000236008CE65681B0C7B4329040A0C99181C
:1045A000000C0B18A1461A0C0434B445E7D84F464A
:1045B0007B6004239946019BCA44CB445345ACD845
:1045C0004346002B0EDD029B043B1A68002A09D1EA
:1045D000424603E0043B1968002902D1013A002A4F
:1045E000F8D19046039B4246181C1A6105B03CBCAA
:1045F00090469946A246AB46F0BD171C0D1C62E7DB
:10460000F8B546464F460323C0B480460E1C141C22
:10461000134037D1A41024D043469D6C002D3AD0CE
:10462000002301279946274207D1641019D0286832
:1046300000281BD0051C2742F7D04046311C2A1CFD
:10464000FFF730FF002E1BD04246D26C73689446B1
:104650009B0063441A68641032601E60061C002CC4
:10466000E5D1301C0CBC90469946F8BD291C2A1C8B
:104670004046FFF717FF4B4628600360051CDAE74A
:10468000061CD2E70B4A013B9B009A580023FFF718
:104690006DFE061CBEE740460121FFF735FE064BC6
:1046A000051C4361012303614346986400230360B2
:1046B000B6E7C0469863020071020000F0B55F469D
:1046C00044464D465646F0B40D1C2B6957119B4687
:1046D000BB445B465C1CAB6883B001909046496864
:1046E0009C4203DD01315B009C42FBDC0198FFF73B
:1046F0000BFE021C84461432002F08DD111C00231F
:104700000026013340C1BB42FBD19B00D2182B1CB9
:1047100029691433890040465E181F2108408046ED
:1047200028D02021091A8946002740461968924658
:1047300081404846394302C202CBC1400F1C9E4211
:10474000F3D853465960002901D05C4602346346D1
:104750006046013C019A1C616B68D26C9B00D318C7
:104760001A682A601D6003B03CBC90469946A24678
:10477000AB46F0BD02CB02C29E42E8D902CB02C2D8
:104780009E42F7D8E3E7C0460B69026910B5D21A1A
:1047900011D19A00143014318318891801E098421D
:1047A0000BD2043B04391A680C68A242F7D0A2422B
:1047B000924101200243101C10BD0022FBE7C046BD
:1047C000F8B54F4646460C1CC0B4071C081C111C0B
:1047D000151CFFF7D9FF061E5FD00023984600285E
:1047E00055DB6168381CFFF78FFD42468446276918
:1047F0002B69211CC2602C1CB8009B008146984686
:1048000066460025143114348944A044143608C97E
:1048100001CC1A04120C55190204120CAA1A1D0C10
:10482000030CEB1A15145B191204120C1D14043638
:104830001B041343321F1360A045E8D888468945FE
:104840001CD9321C08C91C04240C641925141B0C27
:10485000EB1824041D14240C1B04234308C28945AF
:10486000F0D84246D2434A449008013080003618BE
:10487000321F002B04D1043A1368013F002BFAD0F9
:10488000634660461F610CBC90469946F8BD231CE8
:104890002C1C1D1C01239846A3E7381C0021FFF7A0
:1048A00033FD012346610361EDE7C046F0B5012108
:1048B0001C1C83B0089F151CFFF726FD2103640014
:1048C000061C090B640D02D080235B031943019180
:1048D000002D19D068460095FFF7ACFD002830D1B7
:1048E000009B019D7361B5616B1E9D410135356172
:1048F000002C14D0194B9C46352364442418181AF4
:10490000099B3C60186019E001A8FFF793FD019B2B
:1049100020307361012301253361002CEAD1104B53
:104920009C46104B6044EB189B00F31838605869A4
:10493000FFF762FD6D01099B281A1860301C03B057
:10494000F0BD019D20232A1C1B1A9A40131CC54050
:10495000009A019513437361C5E7C046CDFBFFFF85
:10496000CEFBFFFFFFFFFF3FF0B556464D464446E6
:104970005F46F0B4804685B00E1E914600D1FCE043
:10498000371C083FFFF7BCFC7B684D4603221C1C0C
:104990000B35BA469443162D00D974E01022102529
:1049A000A94500D974E0944255DA39190191D549E5
:1049B00088680199884200D1EAE0486801210390A3
:1049C0000291011C012081438C4601998B46DC44F5
:1049D00061464968014260D1032103988C468843AF
:1049E0000019904200DBCCE00299194200D09BE014
:1049F00061463B68FB1A9B465B688B43C11802917A
:104A0000914255DB019A5F46D36892680837D360BC
:104A10009A605B465A46DB689268D3609A60221FB0
:104A2000242A00D92EE13B1C132A09D95B463168A0
:104A300099607168D9601B2A00D92DE110330836BE
:104A400032681A6072685A60B2689A605B463E1CAF
:104A5000DA465B68029C621B0F2A52D8012152463B
:104A60000B4023435360221C524453681943516046
:104A70004046FFF747FC301C05B03CBC90469946C9
:104A8000A246AB46F0BD043295432A1E00DB87E701
:104A90000C23424600201360EEE70299194243D1ED
:104AA0003B68FB1A9B4659460323496899430B1CF4
:104AB0001B190193934237DB5B465A465F46926867
:104AC000DB680837D3609A60221F242A00D9DEE011
:104AD0003B1C132A09D95B46316899607168D9601B
:104AE0001B2A00D9ECE01033083632681A6072686D
:104AF0005A60B2689A605B463E1C5B68019CDA466D
:104B0000A9E701205146034049191D4353465D6002
:104B1000131C03438A184B605368083118435060D4
:104B20004046FEF759FDA3E749464046FFF776F8B1
:104B30008146002800D1F1E07B68011C0122181C8D
:104B4000904308393F18B94200D196E0221F242A29
:104B500000D982E04B46132A65D8321C11681960CF
:104B60005168596092689A604046311CFEF734FDE6
:104B70004046FFF7C7FB48467EE7111CFFF74EF89B
:104B80007AE70199041CCA688968CA60916062E783
:104B90004168032081438446281C09191030019084
:104BA00081424ADADB07BFD460463B68FB1A9B466A
:104BB0005B6883430198C9180291884200DD77E75A
:104BC0005B465A465F469268DB680837D3609A6056
:104BD000221F242A00D98FE03B1C132A09D95B46E7
:104BE000316899607168D9601B2A00D98CE0103354
:104BF000083632681A6072685A60B2689A605B461A
:104C00005919404B40469960029B5A1B01231A4395
:104C10004A605A46526813401D435B465D60FFF789
:104C200071FB381C28E731681960716859601B2ACC
:104C300018D8321C0833083290E7324B7A199A6040
:104C40000123491B194351607A68404613401D43B4
:104C50007D60FFF757FB301C0EE74846311CFFF71D
:104C6000BDFA81E74B46B1689960F168D960242AA2
:104C70001CD0321C1033103270E74A6803218A437B
:104C8000A418E8E6381C311CFFF7A8FADEE6381C49
:104C9000311CFFF7A3FA2EE75B46B1681961F16892
:104CA0005961242A16D018331036C9E64B463269AA
:104CB00049461A61321C70691833183248614DE751
:104CC0005B46B1681961F1685961242A0BD0183329
:104CD00010360AE75B4632699A615A467169203399
:104CE000D1611836ACE65B4632699A615A46716901
:104CF0002033D1611836F8E6381C311CFFF76EFA04
:104D00007DE7C046A00400205B46B1681961F168E8
:104D10005961242A07D0183310366AE74046FFF756
:104D2000F1FA0020A8E65B4632699A615A46716939
:104D30002033D16118365CE70A1C031C024330B5EE
:104D40000220002A00D130BD80221206914216D0E6
:104D50000C4A04208C180C4A9442F4D90B4C0C19C0
:104D60009442F0D90A4A4900490803209142EAD9FD
:104D7000064A00209142E6D158425841E3E7002B11
:104D8000E1D0EFE70000F0FFFFFFDF7F0000F07FE2
:104D9000FFFF0F0038B50023064C051C081C2360DC
:104DA0000EF062FC431C00D038BD2368002BFBD002
:104DB0002B60F9E7E055002038B50C1C0E25495F43
:104DC00000F010FA002803DB236D1B18236538BDA3
:104DD000A289024B1340A381F9E7C046FFEFFFFF12
:104DE000F8B5171C8A89051C0C1C1E1CD30506D59A
:104DF0000E23C95E0022022300F0E0F9A289054BD0
:104E0000281C1340A3813A1C0E23E15E331C00F0E2
:104E1000ABF8F8BDFFEFFFFF38B50C1C0E25495F5E
:104E200000F0CCF9431C06D08022A3895201134321
:104E3000A381206538BDA289014B1340A381F9E706
:104E4000FFEFFFFF08B50E23C95E00F0D1F808BDE3
:104E5000024670B50A4392072AD11E4DEE0104C8DE
:104E600008C9541B9443344017D0D0B2D9B2401A69
:104E70002106014310D190B299B2401A2104014396
:104E80000AD110021902000A090A401A210201433C
:104E900002D1100E190E401A70BD9A42DFD010BA1E
:104EA00019BA884201D9012070BD0020C04370BDED
:104EB00002780B7801300131002A09D09A4207D1DB
:104EC00002780B7801300131002A01D09A42EFD0EC
:104ED000D01A70BD01010101F0B557464E46454656
:104EE0004B6EE0B480460F1C91469B042ED5136890
:104EF0009A469368002B27D05246526800259608A0
:104F000052461468002E04DC15E001350434AE422C
:104F10000FD0404621683A1C00F01CF9431CF4D124
:104F20004A460023936053601CBC90469946A246B3
:104F3000F0BD4B469B684A46B6009B1B9360082217
:104F40009446E244002BD7D10020E9E7FEF71CFC91
:104F5000E6E7C04608B59368002B02D0FFF7BCFF18
:104F600008BD53600020FBE738B5051C0020074C46
:104F70002060081C111C1A1C0EF072FD431C00D08E
:104F800038BD2368002BFBD02B60F9E7E0550020EB
:104F900010B55143FEF742FE041E27D0031C083B08
:104FA0005A6803239A43043A242A15D8031C132A67
:104FB00005D80022201C1A605A609A6010BD00219A
:104FC0000833016041601B2AF3D98160C160242A43
:104FD00007D0031C1033ECE70021FFF74BF9201C2E
:104FE000ECE7031C016118334161E2E70020E5E7CB
:104FF00038B50023064C051C081C23600EF046FB48
:10500000431C00D038BD2368002BFBD02B60F9E790
:10501000E055002070B5002909D00C1C051E02D0F7
:10502000836B002B31D00C22A35E002B01D100201A
:1050300070BD281C211CFEF731F9E36A061C002B09
:1050400004D0281CE1699847002821DBA3891B06AE
:1050500021D4216B002908D0231C4033994202D06F
:10506000281CFEF7B9FA00232363616C002904D0E1
:10507000281CFEF7B1FA00236364FEF759FA0023F7
:10508000A381FEF757FA301CD2E7FEF749FACAE7C8
:1050900001267642DAE7281C2169FEF79DFAD8E757
:1050A000F0B54F464646C0B485B081468846141CCC
:1050B000FEF722FD01283FD0231C03AF4846391CD0
:1050C00042465C3300F0A2F8061C431C1ED00028A8
:1050D0003ED03978002508E0236819702368013331
:1050E00023600135AE4233D9795DA368013BA360EB
:1050F000002BF1DAA269934211DB2368197023684F
:105100001A780A2AEBD148460A2109E04023A289ED
:105110001343A38105B00CBC90469946F0BD4846A8
:10512000221CFCF771FF013043424341DBB2002BEC
:10513000D7D001204042EDE74346013BFE2BBBD8D0
:105140006A464346D371D17903AF39700126C1E76E
:105150004046DFE710B580249389A401234204D19F
:1051600023439381536E1C435466FFF799FF10BD90
:1051700038B50023074C051C081C111C23600EF0D9
:1051800089FA431C00D038BD2368002BFBD02B606C
:10519000F9E7C046E055002038B50023064C051C51
:1051A000081C23600EF07CFA431C00D038BD236835
:1051B000002BFBD02B60F9E7E055002038B5051C2B
:1051C0000020074C2060081C111C1A1C0EF06AFA03
:1051D000431C00D038BD2368002BFBD02B60F9E7BF
:1051E000E055002038B5051C0020074C2060081C45
:1051F000111C1A1C0EF0C6F9431C00D038BD2368E0
:10520000002BFBD02B60F9E7E0550020F0B54746B6
:1052100080B41E1C86B0051C0C1C171C104B0029EA
:1052200013D01B689846FEF763FC0096031C211CF4
:10523000281C3A1CC047431C03D1002333608A3327
:105240002B6006B004BC9046F0BD1C68FEF750FC15
:105250000096031C03A9281C0022A047EBE7C046C8
:10526000B0080020002904D0FF2A04D801200A70C9
:1052700070470020FCE78A23036001204042F7E7E3
:1052800038B5104B1B78032B06D00F4B1B68132B24
:1052900005DDF0256D0104E0A025ED0001E080258D
:1052A000ED000A48291C0A4A00230A4CA0470A4B71
:1052B0009847291C094B984709480A4A0023A047E8
:1052C00038BDC046D40C0020A4170020441700208D
:1052D000E952000011530100395601004521020036
:1052E000700C00203D5B000008B5014B984708BDDD
:1052F0008152000010B5041C114B1B78002B0AD101
:10530000104B1B78012B04D10F4B1B78002B0ED0B8
:1053100001E0022B0BD1A020800001210B4B98470C
:10532000201C80210A4A231C0A4CA04706E0201CAE
:10533000F0210901064A231C064CA04710BDC046B7
:10534000C00C0020D40C0020340F00205195000028
:10535000F55200001153010010B588B0037844786D
:10536000009484780194C478029404790394447975
:10537000049484790594C0790690081C111C024A93
:10538000024CA04708B010BDD0630200A143020048
:1053900008B5014B984708BD613B010010B58AB0C4
:1053A0000F4B9847011C0F4B1B78032B16D100287D
:1053B00014D002A810220C4B98470023089309939D
:1053C0000A4A06AB03CA03C308230093063B0193B2
:1053D000074802A92022C633064CA0470AB010BDD8
:1053E000FDB30100D40C00204D080000440C002047
:1053F000000E0020E1DC000010B50B4B1B78032BE6
:1054000011D10A4B98470A4B98479621C901094B7D
:10541000984789B29623DB019C4661440648074AB7
:105420000023074CA04710BDD40C00209D53000062
:1054300039560100452102003C0D0020F9530000BF
:1054400011530100F8B5071C0E1C151C0648074B2C
:105450009847041E07D0381C311C2A1C63689847E3
:105460002468002CF7D1F8BD040F00205957010023
:10547000F0B557464E46C0B483B00C1C061C102332
:105480009A468A4401AD002399460A4F23782B702F
:1054900063786B704B46AB70281C00211022B84714
:1054A0003070023401365445F0D103B00CBC914643
:1054B0009A46F0BD1148020010B50122134B1A7034
:1054C0000022134B1A701348134B984700281CD026
:1054D000124A13780133DBB21370002B04D101227E
:1054E0000E4B1A70012303E0A0246401042B00D8A2
:1054F0009C020B4B98476408211C0A4B98470919DA
:105500000448094A0023094CA04710BDD40C0020D0
:10551000D50C0020A00C0020A1530100241800206D
:105520003956010045210200615500001153010068
:1055300008B5034B1B78002B01D1024B984708BDDF
:10554000D40C0020B954000008B5034B1B78042B81
:1055500001D1024B984708BDD40C0020B95400007B
:1055600010B5A2B01F4B1B78012B32D11E4B1B78FC
:10557000002B2ED11D481E491E4B984700201E4B64
:10558000984702A880211D4B984700280FD102A8F8
:105590001B4907221B4B9847002808D11A4B009340
:1055A0001A4813491A4A02AB1A4CA04707E0164B97
:1055B000009316480E49164A0023164CA0470122B4
:1055C000154B1A70154B181C0021154A154CA04795
:1055D00005E015480021154A0023124CA04722B0CF
:1055E00010BDC046D40C0020C00C0020F4630200A3
:1055F000380F0020C908000019C00100ED75000037
:105600002064020095450200697100009C0F002093
:105610002864020041910000340F0020841700200C
:10562000F552000011530100500C002025690000C4
:1056300010B5041C0388D2225200934207D00632D0
:10564000934218D0002B24D1D2235B002380134B2C
:105650001A680023002A1FD011488021114B984757
:10566000114B9847114B1860C043C0B2104B98477C
:10567000D5235B0023800A480E4B9847002300285F
:105680000AD00A4B18780A4B98470022034B1A603D
:10569000DAE7002303800333181C10BD300F00200D
:1056A000A81700202D510100B13E0100BC170020B9
:1056B000BD3E01008951010070B5041C832967D0EB
:1056C0000388384A934240D0374A934255D0002B42
:1056D00064D10320354B98470020354B98478623EB
:1056E000344AD25C344B1A700022344B1A604BE0BF
:1056F0008623304AD35C304A12789A4205D02E4A2B
:10570000137000222D4B1A6003E02C4A13680133FA
:1057100013602A4D284B1B78294829680A22294EF4
:10572000B0472B680A2B02DD274B984730E08220D8
:1057300080010021254B98472548E8214901254B48
:105740009847184B238001202BE02148224B984793
:10575000031C0120002B24D0204B9847204B984756
:10576000011C14481F4B9847194880214900194BC8
:1057700098470D4B2380012013E01548164B98479E
:10578000031C0120002B0CD0174B1B78052BAFD02E
:105790000120074B98471548154B98470023238055
:1057A000032070BD520600005E06000019C0010013
:1057B0009DD60000000E0020C10C0020E017002044
:1057C00030640200C9080000B9540000519500007F
:1057D000C40C00202D510100895101009195000059
:1057E00009B401007DDD0000D40C002068640200D3
:1057F0004909000008B5264B9847002808D0254BDA
:105800009847002804D12448244B984701203DE0C4
:10581000234B9847002804D12248204B9847012069
:1058200034E0214B1B88002B26D11F4B5B88002BBB
:1058300022D11D4B9B88002B1ED11B4BDB88002BDC
:105840001AD1194B1B89002B16D1174B5B89002BE2
:1058500012D1154B9B89002B0ED1134BDB89002BEA
:105860000AD104E011480D4B984701200EE0104882
:105870000A4B9847012009E00E4B9847011C0A4843
:1058800010220D4B98470028ECD0002008BDC046E0
:10589000A9D60000A9CC00007C64020049090000E0
:1058A00009B40100B0640200E4170020DC640200C7
:1058B00018650200FDB30100F54202000FB470B597
:1058C00082B006AB04CB0193094D29680948401802
:1058D0006424611A084EB0472B68E41AA04200DD28
:1058E000201C1818286002B070BC08BC04B018470F
:1058F0004C0C0020D80C0020855D0200F0B585B06E
:10590000071C0E1C03921C1C324D00232B60230A23
:10591000FF22224000923048391C321C2F4EB047E3
:105920002E6864239B1B9C4200DD1C1C2C488019A4
:105930000399221C2B4B98473419264B1C602A4B89
:105940001B68002B42D0294B1B78002B05D0A2B23C
:1059500027482349274B98473AE0274B1B88002BC1
:1059600023D1254B5B88002B1FD1234B9B88002B19
:105970001BD1214BDB88002B17D11F4B1B89002B20
:1059800013D11D4B5B89002B0FD11B4B9B89002B27
:105990000BD1194BDB89002B07D1184B197818480C
:1059A000184B98470120404212E03B2C08DCA2B281
:1059B000154B009315480A490F4B154CA04707E0BB
:1059C0001448154B98470120404201E00120404215
:1059D00005B0F0BD4C0C002040650200BD58000031
:1059E000D80C00204D080000B8170020C00C002083
:1059F0009C0F002029930000E4170020D40C002005
:105A00004C650200C9080000C71E0000900C002071
:105A1000F5AA0100906502004909000030B591B077
:105A200017AB1C880C4B1B78032B13D1012C11D9FD
:105A30000832101C69464022084B984708486946BE
:105A4000221C169B074DA84766206946169A231C00
:105A5000054CA04711B030BDD40C002059530000B4
:105A6000B0650200C9080000FD580000F0B54746C7
:105A700080B400293CDD00230022224CA446051CF2
:105A80000478271C303F092F01D83F0110E0271C64
:105A9000613F052F02D8573C270109E00027412626
:105AA0007642B046A0444646052E01D8373C270131
:105AB0006C78251C303D092D01D82F430CE0251CA6
:105AC000613D052D02D8573C274305E0251C413D8B
:105AD000052D01D8373C27436446E75402329142F2
