:10000000607F002089500100855001005D51010092
:1000100000000000000000000000000000000000E0
:1000200000000000000000000000000085500100FA
:100030000000000000000000855001008550010014
:100040008550010085500100855001008550010058
:10005000F912020085500100855001008550010011
:10006000855001002D0D02003D0D02004D0D0200D6
:100070005D0D02006D0D02007D0D02008550010036
:1000800085500100855001006911020079110200BC
:100090008911020085500100855001008550010042
:1000A00085500100855001008550010085500100F8
:1000B00010B5041C03881B2B09D0292B23D0002B3F
:1000C00039D11F4840211F4B98471B2323801C48D0
:1000D0001D4B98470023002830D019481B4B9847E8
:1000E00000221B4B1A701B4B9847002806D1012099
:1000F000194B98470122194B1A7002E00022174B46
:100100001A70292323800E480F4B9847002300289C
:1001100014D00B480D4B98470D4B1B78002B02D089
:1001200004200F4B98470D4B1B78002BCDD001209E
:100130000B4B9847C9E7002303800323181C10BD0D
:10014000BC0C0020B96B0100016C0100D16B0100F7
:10015000800C00203DF4010005590100780C0020BE
:100160001D59010038B50A4B196800290FDDCD0172
:10017000084B9847291C084B98470848084A002311
:10018000084CA0470848291C084A0023A04738BD4E
:100190007C0C0020416F0100590D0000580C00201C
:1001A00065030000396D0100D80C002065010000D6
:1001B000F0B5474680B492B0041C038889225200EF
:1001C00093423AD089225200934202D8002B09D0A0
:1001D00086E08B22520093423DD0942252009342FB
:1001E00072D07DE0424B9847424B9847424B98472C
:1001F000424B98474248434B984743484349444BF6
:10020000984744483C21444B98473C22434B1A6052
:100210000020434B98470020424B9847424B984759
:10022000002849D14148424B984742488021424BDF
:1002300098471FE089235B0023803E483F4B984747
:10024000002837D03B483E4B984701203D4B98470C
:100250008B235B0023803748384B9847002829D0F0
:100260003448374B98470120374B9847F0204001DE
:10027000364B98472C4B98470028DBD034482C4B02
:100280009847344DA8470678A84740788046A84745
:100290008778A847434600930197C378029305A83F
:1002A00032212D4A331C2D4DA8472D4805A9184B46
:1002B000984701E0002016E01E48F02109011E4B7E
:1002C000984794235B0023801A481C4B9847031CD3
:1002D0000020002B07D0F02040011C4B98479DE7E1
:1002E00000232380032012B004BC9046F0BDC0461A
:1002F0007D4701006D4801004DEE01005D2A0100BF
:10030000BD06000021740000387A0200447A020021
:10031000B1770000507A0200197700007C0C0020B1
:1003200065010000C99800003DF40100587A020000
:10033000350F0000900C0020B96B0100016C01002A
:10034000D16B0100055901001D59010039990000C8
:10035000747A020015EE01008C7A02005D10000034
:10036000987A0200F0B55F4656464D464446F0B4D2
:10037000ABB09D4B9847051C9C4B9847041E2BD057
:10038000002D42D0037A427A0092827A0192C27A98
:100390000292027B0392427B0492827B0592C27B93
:1003A00006920AA88021924A924EB04792480AA922
:1003B000924B9847201C924B984700280ED0914BA7
:1003C0009847002803D0904B9847011C00E000217B
:1003D0008E488F4B984701E0002D16D0A97C8D48A0
:1003E0008B4CA047A98B8C48A0472B6A002B0CD0C4
:1003F00094229B5C02209840FA218900874B984701
:100400000104090C8648824B9847864B9847011C8B
:1004100085487F4CA047854B9847011C8448A047DE
:10042000844B9847844B1B68C61AF609834B984740
:100430000020834CA047051C0120A047071C062074
:10044000A04782460720A04781467E4B1B68ED1AD5
:100450007D4B1B68FB1A08937C4B1B6809937C4BF4
:100460001A689346002E0ADD7A4B586C7A4B1B684B
:10047000C01A311C794B9847794B186006E0754BD0
:100480005A6C754B1B68D21A754B1A601F20754C3D
:10049000A047754B98461A68801A744B186026203E
:1004A000A047734F3B68C01A724B18600020A047EA
:1004B000714E3268801A714B18601F20A047434666
:1004C00018602620A04738600020A0473060002038
:1004D0005B4CA0475B4B18600120A0475A4B18604B
:1004E0000620A047594B18600720A047584B1860BA
:1004F000584B5A6C584B1A604E4B98474E4B1860ED
:10050000099A131C5B445246D31A9944089B5C1900
:10051000002C00D10124FA26B600301C68434F4F4E
:10052000211CB847051C564B186048467043211CD7
:10053000B847544B1860B54201D9514B1E60FA239D
:100540009B00984202D91A1C4E4B1A604B4B1968FB
:100550004D482F4CA0474D4B19784D48A0474D4B67
:1005600019784D48A047474B1D684C4F3B4A92466F
:10057000281C0A219047061C494B9846281C0A2132
:10058000984700910AA880213A1C331C194EB047A5
:1005900044480AA9194DA847394B1A689146101CBE
:1005A0000A21D047824648460A21C04700910AA83E
:1005B00080213A1C5346B0473B480AA9A8472D4B17
:1005C00019683A48A047294B19683948A047244B75
:1005D00019683848A047384B98472BB03CBC904628
:1005E0009946A246AB46F0BD85D20100AD48010058
:1005F000788302005D100000F0B202002D78000048
:10060000557201000972010079CC0100A47A020040
:100610004D780000A87A0200C08302006D0D000032
:10062000B07A020021720100B47A0200A58D0100A7
:10063000B87A0200CD570100B80C0020B16E01005D
:10064000756E0100AC0C0020A00C0020A40C002052
:10065000840C0020F86300208C0C0020D10C0000DA
:10066000B40C0020B5E30100D40C0020FC0C0020E9
:10067000F80C0020B00C0020880C0020CC0C0020CE
:10068000A80C0020D00C0020BC7A0200646D002071
:10069000C87A0200656D0020D47A0200E07A020078
:1006A000590D0000E87A0200EC7A0200F07A0200AC
:1006B000F87A0200047B02000579000038B50328AF
:1006C00013D1081C09490A4B984700280DD1074D42
:1006D000281C084B9847041C281C211C064B9847D3
:1006E000064B1C600020064B984738BD507A02002C
:1006F000C5100000A5780000197700007C0C0020D0
:100700006501000030B583B00D1C6C460634211C19
:10071000024B984723882B7003B030BD655401000D
:1007200008B5014B984708BD3D540100F0B54F4650
:100730004646C0B491B0BE4B98478023DB0500937A
:1007400000230193FF226846028100228372C37254
:10075000012124206C462154252021542621635454
:10076000272163540A932C2163542D21635405934C
:100770002382E3762276227762761323A37662774A
:10078000E1235B02089380235B030393A94B0C9343
:10079000A94B0D9301235B420E930F93A74CA84BDB
:1007A0001C60A84AA84B1A60A84AA94B1A60201CD2
:1007B000A8496A46A84B9847A84E33689868002114
:1007C000A74DA847336858680021A8472368DA690D
:1007D000002AFCD1196802220A431A60974B1B6851
:1007E000DA69002AFCD15968802252020A435A6011
:1007F0000124924BDC719B4B984707209A4B9847FA
:100800009A4B1C70BFF35F8F62B6994B1A69042133
:100810008A431A610022974B5A70974B9847974B1F
:100820009847974B9847974B9847974B9847974BC4
:100830009847974B984797480021974B9847974B75
:1008400098479748974DA8479748A8479748984B87
:100850009847984B1C789848A847610602D5974856
:10086000934B9847A20602D59548914B9847E306CB
:1008700002D594488E4B9847600702D592488C4B1E
:100880009847A10702D59148894B9847E20700D4C1
:10089000C3E18F48864B9847BFE121784846C0475F
:1008A0000134AC42F9D1D2E121784046B847013455
:1008B000AC42F9D16B46D97986487A4DA847864C27
:1008C0002088864B9847864B98471A20854B984737
:1008D000854B9847011C8548A847854B9847854814
:1008E00000216D4B9847844B9847844B9847844B25
:1008F00018600122834B1A702188002903D0824896
:10090000684B984702E08148694B98478048311C02
:100910000822804B9847804B9847804B1D68DC69C4
:10092000A0478022002805D0A047011C80207C4BD6
:100930009847021C7B48291C1A235A4CA0477A4826
:100940000021554B98477948A04701204042784BF9
:100950009847051C041C072676488046514FA1780D
:10096000E2784046B847013E0234002EF7D1297C98
:100970006A7C71484B4CA047FC2369460B800023DE
:100980004B8068468B80CB800B814B818B81CB81E8
:100990005F496A4B9847684600210022684B984798
:1009A0006848A0476C466F460E37624E3D4D217831
:1009B0006278301CA8470234BC42F8D16B46997B60
:1009C000DA7B5D48374CA0475F48A0475F4B1B6808
:1009D000002B0AD05E4C5F4E324D5968301CA84740
:1009E0000434231F1B68002BF7D11C4B1868826846
:1009F0009368013B9360002B00DBAFE08268946852
:100A000091698C4210DB13680A221A70134B186824
:100A10008268136819780A2902D001331360A7E0AD
:100A20000A214D4B9847A3E00A214B4B98479FE082
:100A3000615101000300040003000500000D0020C7
:100A4000DC62002021070000D862002005070000BA
:100A5000D4620020000800428551010050040020AB
:100A6000490F0000D558010005590100380A00203F
:100A700000ED00E000040040E9590100F14C0100E4
:100A8000255701000D6D0100096701002D5501007A
:100A900069680100640A0020BD69010095590100E0
:100AA000287B0200B50E0000347B0200447B02006C
:100AB000350F000038040040787B02008C7B020078
:100AC000A47B0200B47B0200C47B0200E07B020036
:100AD000FC7B02006C7C020026450020356F010083
:100AE000A5DB01005D610100B5600100107C020022
:100AF00015660100540A0020496E01007956010074
:100B00008C64002080640020247C0200347C02007D
:100B1000CC640020310E0000C9E30100AC88020063
:100B20006D0D0000487C0200F40A0020547C020095
:100B3000F19301005C7C0200687C020005960100D4
:100B4000CD940100747C0200947C02002C7A020097
:100B5000307A0200A07C0200353D000083681B68EB
:100B60000A221A703F4B1B689B681A6801321A6090
:100B70003D483E4B984707203D4B98473D483E4BEC
:100B800098473E4B98473E4B98473E4B984700202E
:100B90003D4B984700203D4B98473D4D3D4C3E4EC8
:100BA000A847A0470028FBDCB0473C4B1B78002B34
:100BB0000DD03B4F3A6890463A4B98473A4B1B68EA
:100BC0004146CB1A181838600022344B1A70354B46
:100BD0009847354B58600122304B5A70BFF34F8F06
:100BE00030BF264B98472D4B5B78002B0DD02C4FF8
:100BF0007A6890462B4B98472B4B5B684146CB1A43
:100C0000181878600022254B5A70264B9847264BBF
:100C100018600122214B1A70C2E7244B9847061C2A
:100C20000023009301936846311C0822204B98470B
:100C30006846204B98472048204B98476F466D46A2
:100C400007356C461E4A91461C4B984625E66C4675
:100C5000E1791C48194B98473C1C1B488046174FAC
:100C600022E6C04650040020A47C0200350F00009C
:100C70001D5901002C7A0200F16E0100615501003E
:100C80007D4701006D480100C99800006D99000082
:100C9000A155010099680100815501008064002080
:100CA0004C640020795601008C640020F56201003C
:100CB000310E000091DB0100C87C0200B50E00007F
:100CC0000C7C0200DC7C0200607C02007047C046A5
:100CD000002934D00123002210B488422CD30124EF
:100CE0002407A14204D2814202D209011B01F8E784
:100CF000E400A14204D2814202D249005B00F8E73D
:100D0000884201D3401A1A434C08A04202D3001B68
:100D10005C0822438C08A04202D3001B9C0822439B
:100D2000CC08A04202D3001BDC082243002803D0D9
:100D30001B0901D00909E3E7101C10BC704700280B
:100D400001D00020C04307B4024802A1401802901D
:100D500003BDC046D90000000029F0D003B5FFF75D
:100D6000B9FF0EBC4243891A1847C046002941D03A
:100D700010B4041C4C40A44601230022002900D5D5
:100D80004942002800D5404288422CD30124240740
:100D9000A14204D2814202D209011B01F8E7E4001A
:100DA000A14204D2814202D249005B00F8E78842A6
:100DB00001D3401A1A434C08A04202D3001B5C081E
:100DC00022438C08A04202D3001B9C082243CC087B
:100DD000A04202D3001BDC082243002803D01B09D9
:100DE00001D00909E3E7101C6446002C00D54042FD
:100DF00010BC7047002806D003DB0020C043400829
:100E000001E08020000607B4024802A140180290C9
:100E100003BDC046190000000029EBD003B5FFF761
:100E2000A7FF0EBC4243891A1847C0467047C04608
:100E3000F0B50F2A35D9031C0B439C0735D1161C7E
:100E4000103E36093501451910350C1C031C276866
:100E50001F6067685F60A7689F60E7681034DF60A5
:100E60001033AB42F3D1731C1B01C518C9180F23F3
:100E70001340032B1BD91C1FA4080134A40000231A
:100E8000CE58EE500433A342FAD1ED18C91803230B
:100E90001A4005D00023CC5CEC5401339342FAD1C4
:100EA000F0BD051C002AF5D1FAE7051CF2E71A1C73
:100EB000F8E7C0460FB400B583B004AB04CB054AD5
:100EC00001931068049A816801F0F2FB03B008BC3A
:100ED00004B018475004002030B5041C89B0081C29
:100EE0000D1C00F0F9F8114A04ABA16806920193B9
:100EF000012202230792029380228B89059092019E
:100F0000013004950390134205D113438B814A6E3F
:100F1000074B13404B66201C01AA04F07BFA431ECA
:100F2000984140420A23184309B030BD308A02007C
:100F3000FFDFFFFF08B5034B011C1868FFF7CCFF6C
:100F400008BDC0465004002008B54A424A418023EB
:100F50005200DB0000F002F808BDC046F0B547467D
:100F600080B41F1C3B4B041C1D688846161C002DBA
:100F700002D0AB6B002B48D0022E59D8002F57DB84
:100F8000281C211C04F08EF8A28900236360A36151
:100F9000130623D483239A43A281022E28D04346EA
:100FA000002B36D0012E13D02B4B92B2EB6343466D
:100FB0002360236167610020130706D503231A40CD
:100FC00053425A4152421740A76004BC9046F0BDBC
:100FD00001231A437B42A281A361E5E7281C216912
:100FE00004F050F9A28983239A43A281022ED6D11C
:100FF000002002231A430023A360231C43332360F1
:1010000023610123A2816361DFE7281C04F068F8F3
:10101000B2E7002F01D18027FF00381C04F026FC26
:101020008046002807D0A28980231A43A281B9E70D
:1010300001204042C9E78020C00004F017FC804630
:10104000002803D10120A2894042D2E78027FF0077
:10105000E9E7C04650040020D15000000CB430B580
:10106000174B9DB00C1C1D6824D4822302A99B0041
:101070008B81029008610023002C16D18B604B619C
:1010800001235B42CB81209A21AB281C019300F005
:101090002BF8421C0BDB002C02D0029A00231370A9
:1010A0001DB030BC08BC02B01847631EE6E78B23B6
:1010B0002B60F0E78B2301202B604042F0E7C04615
:1010C0005004002002780B7801300131002A01D051
:1010D0009A42F7D0D01A70470023C25C0133002A2D
:1010E000FBD1581E7047C046F0B544465F46564691
:1010F0004D46F0B4C7B014930B9190460D9004F098
:1011000041FB00681A90FFF7E7FF0B9C1D90A38935
:101110001D0604D52069002801D101F0A1F836ACE4
:10112000002529AF0023099429940024BB607B602B
:1011300019951B941C9536AE1F941E951194C346A9
:101140005D462B785C46002B1BD0252B02D118E086
:10115000252B3AD001342378002BF9D15846251A93
:10116000002D0ED0B8685A462B18BB607B683260E1
:10117000013375607B60072B34DC083611994919FF
:1011800011912378002B36D0621C872593460023CB
:101190006D4401222B7052420025637800240C928A
:1011A000109410220A954024802591460021202089
:1011B000A446AA465A4601321C1C203C582C00D991
:1011C000CAE2C74DA4002C59A7465946651AC7E77D
:1011D000109D14946D4210950A9C04231C430A949C
:1011E0001378E8E70D980B993A1C05F02BFC0028C2
:1011F00009D136AEC2E7B868002804D00D980B9923
:101200003A1C05F01FFC0B9C1198A3895D0601D5C3
:101210000120404247B03CBC90469946A246AB46AE
:10122000F0BD13782B21C6E71378551CA8462A2B4E
:1012300001D101F0F0F91C1C303C0022092C01D92D
:1012400001F05FF92B1C884691008A185200013387
:10125000A2185C1E21780C1C303C092CF4D91C1CF3
:101260000B1C4146A046002A01DA01F067F80C92F7
:101270004246A1E70A9C55462C430A9413789AE704
:101280000A9C1793102387251C436D440A942970E8
:101290000A9D9346AD0600D470E1149A07230732E5
:1012A0009A43141C536812680834149412921393CE
:1012B000002B00DA70E187256D442D78129A13987F
:1012C000A846012302430C9C002C03DB0A9D8021CD
:1012D0008D430A95002A00D068E30C9C002C00D0B6
:1012E00064E3002B01D000F0C1FC0A9DED0701D49E
:1012F00000F0BCFC6D46D7353023099C2B70641B75
:101300000F9415950F9B0C9DAB4200DA2B1C00240B
:101310000E9318944546002D02D00E9C01340E9475
:101320000A9D02231D40AA4602D00E9C02340E9450
:101330000A9D84231D40A94600D017E2109D0E98F7
:101340002C1A002C00DC11E2BA687B68102C01DC3E
:1013500000F0F0FF634D311CA8464646102503E01F
:10136000103C0831102C15DD103201330E604D6039
:10137000BA607B60072BF3DD0D980B993A1C05F0E2
:1013800061FB002800D03EE7103CBA687B6836A9B4
:10139000102CE9DCB0460E1C404674600133A418E2
:1013A0003060BC607B60072B01DD00F0B6FC87215C
:1013B0006944097808368846D9E1179387236B4436
:1013C0001970149B93460733072293431D1C08355D
:1013D00014951C681B945B681B981C931C9905F062
:1013E000A3FA012801D000F0CFFD1B981C993B4BBC
:1013F000394A23F0B5FD002801D000F0F0FF872521
:101400006D442D78A846179C472C01DC00F024FF82
:10141000354C15940A9D80239D4303240A950E9410
:1014200003250F95002400250C94189572E70024DD
:1014300010941C1C303C002388469900CB185B009C
:1014400001321B19541E21780C1C303C092CF4D994
:1014500010930B1C4146AFE60A9D08231D430A95D5
:101460001378A8E60A9C179310231C430A940A9D3C
:101470009346AD0600D45FE1149B072207339343E4
:101480001C1C083414941C685D6812941395221C6B
:1014900000232A43872400216C442170884612E7E8
:1014A0000A9C179310231C430A940A9D9346AD0689
:1014B00000D42BE1149B0722073393431C1C0834F0
:1014C00014941C685D68221C1294139501232A430E
:1014D000E0E7C046C046C046000000000000000033
:1014E000E87C02004C7E0200607E02009346BC4C09
:1014F00087220A9D6A44179311701F94AD0600D489
:10150000A1E0149B0722073393431C1C0834149456
:101510001C685D68129413950A9DED0701D400F0D4
:101520000CFC129A139802230243B3D00A9D179C15
:1015300022A930201D4308704C700A95AAE7149C1C
:101540001793149B04341B6893462CAD1494012408
:1015500087202B70684400230E940F94002403709E
:1015600098460C9418941595DAE687200A9D6844ED
:10157000179393460170AD0600D58EE60A9DED06E1
:1015800001D400F040FD149C236804341293DB174F
:101590001393149400D48EE61298139900254442B4
:1015A0008D4187212D236944221C0B70984612948B
:1015B000139501232A4386E687250A9C6D449346AA
:1015C0002970A40601D400F0F9FC149D119C2B682D
:1015D000E21704351C605A601495B1E5149B149D04
:1015E0001B680A9C1293043502231C43934622ABCA
:1015F000302214957B4D1A70002078220A947824AA
:101600005A7013901F9502231794129A42E70A9C6E
:1016100065462C430A941378CDE51378141C6C2B83
:1016200001D100F07FFD0A9C4D462C430A94C2E58F
:1016300087256D4429706B4C0A9D179393461F9420
:10164000AD0600D55DE70A9DED0601D400F0CDFCA6
:101650001498149C0068002104341290139114947F
:101660005AE70A9C04430A941378A4E5149D149C39
:101670002D688720179368440023934604341595FA
:101680000370002D01D100F091FE0C9D1598002DE6
:1016900001DA00F043FE00212A1C04F077FB002849
:1016A00001D100F0F3FE159D401B0C9D0F90A84248
:1016B00000DD0F9587200F9D68440078EB43DB1712
:1016C00080461D400E951494002500240C94189516
:1016D00020E60A9D01231D430A9513786BE5149DAE
:1016E000149C2D6804341095002D00DA70E51378F1
:1016F000149460E51378002900D05CE520215AE5B8
:101700000A9D17939346AD0600D5D3E60A9DED06D4
:1017100001D400F09DFC1498149C0068002104344E
:101720001290139114940123021CB3E60A9D17939F
:101730009346AD0600D59FE60A9DED0601D400F064
:1017400072FC1498149C00680021043412901391C8
:1017500014940023021C9DE687256D44179393463D
:101760002970002B00D146E52CADF0E6BC6843465D
:10177000002B0DD0012373607B6887256D440134F5
:1017800001333560BC607B60072B00DD1AE2083650
:10179000504600280CD022AB3360022373607B6874
:1017A00002340133BC607B60072B00DD22E2083687
:1017B0004946802900D17DE10C9A0F9BD51A002D56
:1017C0003EDD7B68102D01DC00F052FC0649102242
:1017D00089469246211C321C0D9C2E1C4D4609E068
:1017E0006C7E0200807E0200A07E0200103E083265
:1017F000102E16DD50461031013315605060B9606F
:101800007B60072BF2DD201C0B993A1C05F01AF9BE
:10181000002800D0F7E4103EB9687B6836AA102E85
:10182000E8DCA9460C1C351C161C4946641901331A
:1018300031607560BC607B60072B00DDB6E1083667
:101840000A9DED0500D5D8E0159D7B6835600F9D9C
:10185000013364197560BC607B60072B00DD9AE082
:1018600008360A9D6D0743D510980E99451A002D2C
:101870003EDD7B68102D01DC00F0ADFDDA48102163
:101880008946321C211C2E1C80460D9C0B9D03E0BA
:10189000103E0832102E17DDD3481031106001338E
:1018A00048465060B9607B60072BF1DD201C291C85
:1018B0003A1C05F0C7F8002800D0A4E4103EB9682F
:1018C0007B6836AA102EE7DC351C0C1C161C414622
:1018D0006419013322C6BC607B60072B08DD0D98BC
:1018E0000B993A1C05F0AEF8002800D08BE4BC68D8
:1018F0000E9B109DAB4200DA2B1C119DED1811952B
:10190000002C00D025E100237B6036AEFFF718FCE9
:10191000199D012D00DCEFE2012373607B68159DAA
:10192000013401333560BC607B60072B00DD04E3CC
:1019300008361A9D013335601D9D984664197560FF
:10194000BC607B60072B00DD04E308361B981C9904
:10195000A44BA34A23F0FEFA002800D0F3E1199B20
:10196000159D0121013B88440135E418424635604C
:101970007360BC607A60072A00DDDCE0083625ABC6
:101980001E9D33604346641901337560BC607B6003
:10199000072B00DC64E70D980B993A1C05F052F810
:1019A000002800D02FE4BC6836AE5AE7012B00D1E6
:1019B0002CE1022B00D0D6E01F9D6B46D7330F21C0
:1019C000A946B4461C1C129A139B201C0C1C1440E4
:1019D0004D462C5D1E071509321C04702A431C0954
:1019E000231C151C441E1D43EFD1099C1590241A7D
:1019F0001292139366460F9484E4179D652D87DD3C
:101A00001B981C99774B764A23F0A4FA002800D142
:101A100032E1764B01343360012373607B68BC6034
:101A200001337B60072B00DD26E308362398199DE0
:101A3000A84203DB0A9DED0700D412E71A9D7B68DC
:101A400035601D9D013364197560BC607B60072B98
:101A500000DD6EE30836199D013D002D00DC00E736
:101A60007B68102D01DC00F0CEFD61491022894613
:101A70009046211C321C0D9C2E1C4D4604E0083261
:101A8000103E102E00DCADE14046103101331560F0
:101A90005060B9607B60072BF1DD201C0B993A1C6C
:101AA00004F0D0FF002801D0FFF7ADFBB9687B68D8
:101AB00036AAE5E7109A0E9BD51A002D00DC7BE6CE
:101AC0007B68102D01DC00F0B7FC494910228946E3
:101AD0009246211C321C0D9C2E1C4D4603E0103EEC
:101AE0000832102E17DD504610310133156050605A
:101AF000B9607B60072BF2DD201C0B993A1C04F0C7
:101B0000A1FF002801D0FFF77EFB103EB9687B687B
:101B100036AA102EE7DCA9460C1C351C161C4946BB
:101B20006419013331607560BC607B60072B00DD98
:101B30001EE2083640E60D980B993A1C04F082FF2D
:101B4000002801D0FFF75FFB7B68BC68984636AE83
:101B500015E70D980B993A1C04F074FF002800D18A
:101B6000D1E6FFF750FB6B46D7330720B446129CF3
:101B7000139D021C22403032191C1A706B079946C3
:101B8000E6084C46EB0834431D1C261C4B1E2E4316
:101B9000EFD1129413950A9C15916646E40700D57F
:101BA0002FE1099D6D1A0F95FFF7ACFB0D980B996E
:101BB0003A1C04F047FF002801D0FFF724FBBC6863
:101BC00036AE3DE60D980B993A1C04F03BFF002819
:101BD00001D0FFF718FBBC6836AED9E5C046C04659
:101BE00000000000000000004C7E02009C7E02000D
:101BF000A07E02000D980B993A1C04F023FF0028E8
:101C000001D0FFF700FBBC6836AED1E51398002881
:101C100002D11299092923D96B46D733B146129CB8
:101C2000139D1E1C201C291C0A22002323F0C0F92E
:101C300030323270201C0A220023291C23F0B8F90C
:101C4000021C041C0D1C731E0A43EAD11596129443
:101C50001395099D159C4E462D1B0F95FFF752FBC2
:101C60006D460B1CD7353033FFF747FB002536ACEC
:101C70000F951594FFF746FB239B002B00DC07E232
:101C800015981999189A4518281A8046904200DD2F
:101C90009046404600280BDD7B681599444401338B
:101CA00031607060BC607B60072B00DD4AE3083662
:101CB0004246D343DB1718981340C01A80460028C9
:101CC00000DCBBE07B68102801DC00F0A0FCDE4AF1
:101CD00010209146211C321C44468246A8464E469E
:101CE0000D9D04E00832103C102C00DC95E05046BD
:101CF0001031013316605060B9607B60072BF1DD55
:101D0000281C0B993A1C04F09DFE002801D0FFF717
:101D10007AFAB9687B6836AAE5E70D980B993A1C00
:101D200004F090FE002801D0FFF76DFA87226A4484
:101D30001278BC68904636AE19E5129A13980223C1
:101D40000243FFF7A7FB199D013D002D00DC16E6BD
:101D5000102D01DC00F040FCBB4910228946924660
:101D6000211C321C43462E1C0D9C4D4603E0103EA8
:101D70000832102E17DD50461031013315605060C7
:101D8000B9607B60072BF2DD201C0B993A1C04F034
:101D900059FE002801D0FFF736FA103EB9687B687B
:101DA00036AA102EE7DCA9460C1C351C9846161CDA
:101DB0000122904449466419434631607560BC6015
:101DC0007B60072B00DCD9E50D980B993A1C04F0D9
:101DD00039FE002801D0FFF716FA7D68BC68A846D6
:101DE00036AECCE5A9460C1C351C161C49466419B8
:101DF000013331607560BC607B60072B00DC2FE530
:101E0000C9E5302A03D01593013930230B70099CA2
:101E1000159D641B0F94FFF775FA4546B146A04621
:101E2000161C0C1C49464246444401333160726022
:101E3000BC607B60072B00DDACE20836159B19986F
:101E40009846189B9844239B834247DB0A99C9070D
:101E500044D441466A1A199DEB1A1D1E954200DDB5
:101E6000151C002D0BDD7A68404664190132306084
:101E70007560BC607A60072A00DD7CE20836EA43C0
:101E8000D21715405D1B002D00DCEAE47B68102DA5
:101E900000DCD1E36C4A10209146211C321C8046A4
:101EA0002E1C0D9C4D4603E00832103E102E99DD8D
:101EB00040461031013315605060B9607B60072BDC
:101EC000F2DD201C0B993A1C04F0BCFD002801D067
:101ED000FFF799F9B9687B6836AAE6E71A9A1D9860
:101EE00032607A68241801327060BC607A60072A18
:101EF00000DD33E20836ACE70A9D01232B4200D017
:101F00000AE57868159D80460120804401344146E9
:101F100035607360BC607960072900DC2EE50D98A0
:101F20000B993A1C04F08EFD002801D0FFF76BF9E5
:101F30007A68BC68904636AE21E50D980B993A1C3C
:101F400004F080FD002801D0FFF75DF9BC687B68D4
:101F500036AEEEE40D980B993A1C04F073FD0028A0
:101F600001D0FFF750F97868BC68804636AEEDE4E2
:101F70000D980B993A1C04F065FD002801D0FFF77D
:101F800042F9BC6836AE17E41B981C9904F0CCFCEF
:101F9000002800D0D9E0179C472C00DC6EE12B4CC8
:101FA000159487200A9D6844802300789D4303246C
:101FB0000A9580460E940325FFF733FA0A9DED0635
:101FC0000BD40A9C640608D5149D119C2D682C80A6
:101FD000149D04351495FFF7B3F8149C119D2368E4
:101FE00004341D601494FFF7ABF80A9D6D0600D40D
:101FF0006FE1149C0025248813951294149C0434DA
:102000001494FFF789FA0A9D149C6D0601D4FFF71A
:10201000BBFA0023E35E149D12930435DB17139380
:102020001495FFF745F90A9D6D0600D439E1149C1B
:102030000025248813951294149C002304341494CE
:10204000129AFFF727FAC046A07E0200687E0200BF
:102050000A9D6D0600D430E1149C00252488139558
:102060001294149C012304341494129AFFF712FA68
:10207000E1488146FFF7D9FB0D980B993A1C04F013
:10208000E1FC002801D0FFF7BEF8BC6836AECDE415
:10209000DA4A01343260012272607A68BC6001322F
:1020A0007A60072A00DDECE00836181C002807D10A
:1020B000199D002D04D10A9DED0701D4FFF7D1FB36
:1020C0001A9D7B6835601D9D013361197560B9608B
:1020D0007B60072B00DD19E2321C08324442002CE1
:1020E00000DC0CE1102C00DCC6E2C34D102604E03D
:1020F0000832103C102C00DCF5E010310133156083
:102100005660B9607B60072BF2DD0D980B993A1C85
:1021100004F098FC002801D0FFF775F8B9687B68D7
:1021200036AAE6E70A9D013205430A956378FFF770
:1021300042F80D980B993A1C04F084FC002801D059
:10214000FFF761F8BC6836AE85E4179D20230C9C30
:102150009D43A946013400D1A0E0472D00D1C9E13B
:1021600080230A9C5B001C431C9D1C9B1694A84664
:10217000002B00DAE7E100240E94179D662D00D1B4
:102180005EE1462D00D15BE14B460C9C453B5A423B
:102190005341E4180223009323AB029324AB03932F
:1021A00027AB049301940D981B9A434601F030FF2E
:1021B000A2461590672D01D0472D03D10A9DED074A
:1021C00000D4E0E115984946041C5444462900D146
:1021D00048E1884B864A1B98414622F0BBFE221CF0
:1021E00000280BD1279B1A1C9C4207D930215A1C6E
:1021F00027921970279B9C42F9D81A1C159C4D46B2
:10220000121B1992472D00D10EE1179C652C00DCA2
:1022100038E2179C662C00D1A8E1239D1895199CE3
:10222000189DAC4200DD7FE10A9CE40700D5D7E1B0
:10223000EB43DB172B400F95672517950E9D002D5F
:1022400000D0E5E0872068440078169C80460E9315
:102250000A940C95FFF75EF8694D1595FFF7DAF8CB
:102260000D98402103F00CFB20602061002800D174
:102270000DE20B9D40236B61FEF751FF614D1595FB
:102280008FE60D980B993A1C04F0DCFB002801D076
:10229000FEF7B9FF2398BC6836AE07E706240C9416
:1022A0005EE7149D149C2D68002004341295139051
:1022B000149400232A1CFFF7EDF8149D149C2D683C
:1022C0000020043412951390149401232A1CFFF764
:1022D000E1F8149D149C2D6800200434129513908D
:1022E0001494FFF719F9A9464846091901331060FB
:1022F0005460B9607B60072B00DD2AE10832159C31
:10230000199D146001334C195560BC607B60072B2C
:1023100001DDFFF740FB161CFFF7A2FAFEF7DCFE1B
:102320000F90C343872068440078DB1780460F9DD9
:10233000FFF7C7F934498846FFF72EF801225242C9
:10234000FEF795FF0D980B993A1C04F07BFB0028D3
:1023500001D0FEF758FFBC6836AEA9E40D980B9982
:102360003A1C04F06FFB002801D0FEF74CFF239BC2
:10237000BC6836AE6DE50D980B993A1C04F062FB13
:10238000002801D0FEF73FFF199C239836AE231A90
:10239000BC6874E50D980B993A1C04F053FB0028B7
:1023A00001D0FEF730FFBC6836AE47E50C9B062B2C
:1023B00000D906230F930F9DDB43DB1714940024F1
:1023C0001D400C94114C0E95002000258046189558
:1023D0001594FEF7A5FF0C4A9046FFF778FA872080
:1023E0002D23684403709846FFF70DF8C046C04699
:1023F0000000000000000000A07E02009C7E0200A1
:102400005C7E0200647E02004C7E0200947E02002C
:10241000169C87202D2268440A94002402700E9393
:1024200090460C94FEF779FF239CE01C36DB0C9D54
:10243000A54233DB1894F2E69B488146FFF76FFB19
:102440000323009323AB0C9C029324AB039327AB91
:10245000049301940D981B9A434601F0D9FDA246BE
:102460001590AFE60378302B02D0239BE418B0E63A
:102470001B9841468B4B8A4A22F06CFD0028F4D110
:10248000012350461B1A2393E418A2E687206844D0
:1024900000780E9580461494FEF7C3FF179D023D09
:1024A0001795179825AD013C2394A8462870002C59
:1024B00000DAD4E06B462B2295331A70092C64DCC9
:1024C0006B469633302230341A705C7026AB44462B
:1024D000199D1C1B2D191E94199C0F95012C00DCB5
:1024E000B7E00F9C01340F94E343DB170025234032
:1024F0001895A3E60C9C002C00D031E601250C9524
:102500002EE600242A1C0C94FEF756FE0D980B991B
:102510003A1C04F097FA002801D0FEF774FE2398C5
:10252000B9687B6836AAD9E5189C0123002C00DC29
:10253000A5E0199D5B190F930F9CDB43DB17672503
:10254000234017957AE680252D062D24A8440E9465
:1025500013E60D980B993A1C04F074FA002801D088
:10256000FEF751FEB9687B6836AAC8E6239C0C9D2D
:102570001894002C64DD002D3BD10A9CE40738D46C
:10258000189B0F935AE6279A38E6A2216944894698
:102590000B1C201C0A211D1CFEF73EFC303129704B
:1025A000201C0A21FEF7E2FB6B1E041E092CF0DC46
:1025B00030346A46E4B2A3321C70934264D20D3ABE
:1025C00001E05C780133147001329945F9D196220B
:1025D0007B1B6A44D3187AE733488146FFF7E8FB50
:1025E000189C67250134E343DB170F9423401795AC
:1025F00024E60C9B189D0133EB180F930F9CDB43D3
:10260000DB1723401AE628488146FFF7EFFB2649EF
:102610008946FFF707FC149D149C2D6804345378F9
:102620000C9514944246002D01DBFEF7C4FD0124F5
:1026300064420C94FEF7BFFD1B498946FFF7D6FBA9
:10264000002D12D10A9CE4070FD4012401230F941A
:10265000F4E50A9DED0700D543E70F9C44E76B4680
:102660002D22953364421A7028E70C9D0235EB4306
:10267000DB170F952B40E1E50B48814634E602233A
:102680001B1B56E7239C0CE76B4696331FE70D9CFC
:102690000C23012023604042FEF7BCFDC046C0462B
:1026A0000000000000000000A07E0200C046C046FE
:1026B000F0B5444656465F464D46F0B4C5B0804638
:1026C0008A460A921C1C119303F05CF8006817906C
:1026D000FEF702FD1A904046002803D0816B0029C6
:1026E00000D1ADE053469A89802193B289010B4213
:1026F00007D15546686EBC4B0A4303406B66AA81FE
:1027000093B2190770D552461269002A6CD01A226A
:1027100013400A2B74D034AC07942794002400256E
:1027200027AF002319941D9412944446BB607B602C
:1027300018951B9534AE1C950894D3460A9D2B78AA
:10274000002B00D17FE0252B00D17CE02C1C01E088
:10275000252B3CD001342378002BF9D10A98251A77
:10276000002D0ED0B8680A9A2B18BB607B683260C7
:10277000013375607B60072B57DC083612994919C5
:1027800012912378002B01D101F037F8651C7F20CE
:1027900001210A9500236844494200254022037024
:1027A0000B916378099500241021914608250A9A17
:1027B0001094002020248A46AC460132191C20398E
:1027C000582900D9C1E2894D890069588F460A9974
:1027D000651AC5E7109D11916D421095099D04235E
:1027E0001D4309951378E8E74046514601F0FEFA8B
:1027F000002811D15546AB891A2213400A2B8AD1E1
:1028000050460E23C35E002B85DB404651460A9A94
:10281000231C01F055FA01E00120404245B03CBCC8
:1028200090469946A246AB46F0BD089859463A1CD8
:1028300004F0DCF9002801D000F094FC34AE9DE7F0
:1028400002F04EFC4EE70A9C9BE713782B20B4E77E
:102850001378511C88462A2B01D101F0F8F9191C74
:1028600030390022092901D901F039F9434680465F
:1028700090008218520001338A18591E0878011CF2
:1028800030390929F4D9191C031C40468846002A0E
:1028900001DA01F048F80B9242468FE7099D80214A
:1028A0000D430995137888E7099C159310237F251C
:1028B0001C436D4409942870099D0A92AD0600D40A
:1028C000A7E1119A072307329A43141C5368126830
:1028D000083411940E920F93002B01DA00F028FEB9
:1028E0007F256D442D780E9A0F98A8460123024348
:1028F0000B9C002C03DB099D80218D430995002A48
:1029000000D049E30B9C002C00D045E3002B01D004
:1029100000F09BFC099DED0701D400F096FC6D468C
:10292000CF353023079C2B70641B0D9413950D9BA2
:102930000B9DAB4200DA2B1C00240C9316944546E9
:10294000002D02D00C9C01340C94099D02231D40E3
:10295000AA4602D00C9C02340C94099D84231D408D
:10296000A94600D006E2109D0C982C1A002C00DC21
:1029700000E2BA687B68102C01DC00F0D0FF1C4D2F
:10298000311CA8465E46102503E0103C0831102C8F
:1029900017DD40461032013308604D60BA607B603D
:1029A000072BF2DD0898311C3A1C04F01FF90028AF
:1029B00001D000F0AEFC103CBA687B6834A9102C42
:1029C000E7DCB3460E1C414674600133A418316045
:1029D000BC607B60072B01DD00F08CFC7F226A4429
:1029E000127808369046C6E1FFDFFFFFB07E020096
:1029F0002480020015937F236B441870119B0A9268
:102A00000733072293431D1C083511951C68199440
:102A10005B6819981B931B9903F086FF012801D06E
:102A200000F09AFD19981B99CE4BCD4A22F098FAE6
:102A3000002801D000F0F3FF7F256D442D78A846D3
:102A4000159C472C01DC00F020FFC74C1394099D16
:102A500080239D43032409950C94032500F0E9FE8F
:102A6000191C002510953039002380469800C318A2
:102A70005B0001325B18511E0878011C30390929AE
:102A8000F4D91093031C404698E6099D61460D4316
:102A90000995137891E6099C159310231C4309941A
:102AA000099D0A92AD0600D429E1119B0722073344
:102AB00093431C1C083411941C685D680E940F9598
:102AC000221C00232A437F2400216C442170884665
:102AD0000EE7099C159310231C430994099D0A9243
:102AE000AD0600D421E1119B0722073393431C1C40
:102AF000083411941C685D68221C0E940F95012304
:102B00002A43E0E77F25099C6D440A922870A406B9
:102B100001D400F0EEFD119D129C2B68E2170435E4
:102B20001C605A60119509E6119C1593119B0434A1
:102B30001B680A922AAD119401247F202B706844EF
:102B400000230C940D940024037098460B94169463
:102B50001395FAE67F256D442870844C099D1593E2
:102B60000A921D94AD062CD5119B0722073393437F
:102B70001C1C083411941C685D680E940F95099D07
:102B8000ED0700D4C7E30E9A0F98022302439AD0B0
:102B9000099D159C20A930201D4308704C70099593
:102BA00091E71378002800D007E6202005E60A9276
:102BB0006F4C7F22099D6A44159310701D94AD06D9
:102BC000D2D4099DED0601D400F085FD1198119C29
:102BD0000068002104340E900F911194CFE7099DF5
:102BE00049460D4309951378E7E51378111C6C2BC2
:102BF00001D100F05AFE099D51460D430995DCE5CF
:102C00007F21099D694415930A920870AD0600D58D
:102C100057E6099DED0601D400F02DFD119C2368B7
:102C200004340E93DB170F93119455E6099D254349
:102C300009951378C1E5119D119C2D687F2015938E
:102C4000684400230A92043413950370002D01D1C7
:102C500000F0BAFE0B9D1398002D01DA00F038FE4B
:102C600000212A1C03F092F8002801D100F0E2FEB6
:102C7000139D401B0B9D0D90A84201DD00F0E0FD6F
:102C80007F200D9D68440078EB43DB1780461D4094
:102C90000C951194002500240B9416954FE6119B7A
:102CA000119D1B68099C0E93043502231C430A9254
:102CB00020AB302211952D4D1A70002078220994F6
:102CC00078245A700F901D95022315940E9AFAE6F7
:102CD000099D01231D43099513786EE5119D1199F6
:102CE0002D6804311095002D00DA73E513781191E9
:102CF00063E5099D15930A92AD0600D5D5E6099DB9
:102D0000ED0601D400F0D7FC1198119C0068002159
:102D100004340E900F9111940023021CD3E6099DF8
:102D200015930A92AD0600D5DDE6099DED0601D4A6
:102D300000F0B1FC1198119C0068002104340E9041
:102D40000F9111940123021CBDE67F256D4415935C
:102D50000A922870002B01D100F04FFD2AADEBE65E
:102D60000000000000000000607E0200807E020083
:102D70006C7E0200BC684546002D0DD001237360B7
:102D80007B687F206844013401333060BC607B6025
:102D9000072B00DD15E20836514600290CD020AB88
:102DA0003360022373607B6802340133BC607B6054
:102DB000072B00DD0FE208364A46802A00D16DE17C
:102DC0000B9A0D9BD51A002D34DD7B68102D01DC8C
:102DD00000F0B8FCD649102292468946221C5C4677
:102DE00003E0103D0836102D17DD484651461032DD
:102DF000013330607160BA607B60072BF1DD0898A9
:102E0000211C3A1C03F0F2FE002800D081E1103DA5
:102E1000BA687B6834AE102DE7DCA346141C4A4622
:102E20006419013332607560BC607B60072B00DD84
:102E3000BDE10836099DED0500D5D4E0139D7B6802
:102E400035600D9D013364197560BC607B60072B94
:102E500000DD96E00836099D6D073FD510980C9966
:102E6000451A002D3ADD7B68102D01DC00F0A8FD2D
:102E7000B0481021221C804689465C4603E0103D84
:102E80000836102D17DDAB4849461032013330604B
:102E90007160BA607B60072BF1DD0898211C3A1C39
:102EA00003F0A4FE002800D033E1103DBA687B682F
:102EB00034AE102DE7DCA346141C424664190133DE
:102EC00024C6BC607B60072B08DD089859463A1C75
:102ED00003F08CFE002800D044E1BC680C9B109DE0
:102EE000AB4200DA2B1C129DED181295002C00D07D
:102EF00030E100237B6034AEFFF720FC189D012DEC
:102F000000DCB5E2012373607B68139D013401335B
:102F10003560BC607B60072B00DDC9E20836179D79
:102F2000013335601A9D984664197560BC607B60FA
:102F3000072B00DDC8E2083619981B997B4B7A4AAB
:102F400022F008F8002800D0EBE1189B139D012126
:102F5000013B88440135E418424635607360BC602B
:102F60007A60072A00DDE9E0083623AB1C9D336058
:102F70004346641901337560BC607B60072B00DC3D
:102F800068E7089859463A1C03F030FE002800D044
:102F9000E8E0BC6834AE5EE7012B00D125E1022BEE
:102FA00000D0E1E01D9D6B46CF330F21A946B4460A
:102FB0001C1C0E9A0F9B201C0C1C14404D462C5DB3
:102FC0001E071509321C04702A431C09231C151CFA
:102FD000441E1D43EFD1079C1390241A0E920F93A9
:102FE00066460D94A3E4159D652D87DD19981B9900
:102FF0004E4B4D4A21F0AEFF002800D12BE14E4B45
:1030000001343360012373607B68BC6001337B60F3
:10301000072B00DD9AE308362198189DA84203DBB0
:10302000099DED0700D416E7179D7B6835601A9D52
:10303000013364197560BC607B60072B01DD00F013
:103040003BFC0836189D013D002D00DC03E77B6842
:10305000102D01DC00F0D8FD354910229046D946EC
:10306000221C0C1C04E00836103D102D00DC57E338
:1030700040461032013334607060BA607B60072BC9
:10308000F1DD089849463A1C03F0B0FD002801D054
:1030900000F093FCBA687B6834AEE5E7109B0C98AF
:1030A0001D1A002D00DC8BE67B68102D01DC00F082
:1030B000BDFC1F4A102091468246221C5C4603E05C
:1030C000103D0836102D16DD4946504610320133AA
:1030D00031607060BA607B60072BF1DD0898211CBD
:1030E0003A1C03F083FD002813D1103DBA687B68B9
:1030F00034AE102DE8DCA346141C49466419013394
:1031000031607560BC607B60072B00DD05E208362E
:1031100056E6A246524693895C0601D5FFF77CFB32
:103120001298FFF77BFBC046000000000000000083
:1031300014800200248002009C7E020008985946F8
:103140003A1C03F053FD00280CD17B68BC689846FC
:1031500034AE0AE7089859463A1C03F047FD0028A8
:1031600000D1C6E6DA46D5E76B46CF330720B44632
:103170000E9C0F9D021C22403032191C1A706B07E6
:103180009946E6084C46EB0834431D1C261C4B1E92
:103190002E43EFD10E940F95099C13916646E407D8
:1031A00000D5EAE0079D6D1A0D95FFF7C0FB089862
:1031B00059463A1C03F01AFD0028D3D1BC6834AE3E
:1031C00038E6089859463A1C03F010FD0028C9D18A
:1031D000BC6834AEE0E5089859463A1C03F006FD99
:1031E0000028BFD1BC6834AEE6E50F98002802D1B4
:1031F0000E99092923D96B46CF33B1460E9C0F9DFA
:103200001E1C201C291C0A22002321F0D1FE303272
:103210003270201C0A220023291C21F0C9FE021C46
:10322000041C0D1C731E0A43EAD113960E940F95CD
:10323000079D139C4E462D1B0D95FFF778FB6D46A1
:103240000B1CCF353033FFF76DFB002534AC0D95EB
:103250001394FFF76CFB219B002B00DC81E2139899
:103260001899169A4518281A8046904200DD904613
:10327000404600280BDD7B681399444401333160DC
:103280007060BC607B60072B00DD50E3083642466F
:10329000D343DB1716981340C01A8046002800DC81
:1032A00089E07B68102801DC00F0B1FCA94A1020FD
:1032B0009146211C321C44468246A8464E465D4635
:1032C00003E00832103C102C63DD5046103101330E
:1032D00016605060B9607B60072BF2DD0898291CEE
:1032E0003A1C03F083FC002800D02BE3B9687B680C
:1032F00034AAE7E7089859463A1C03F077FC0028FF
:1033000000D02FE77F236B441B78BC68984634AE0F
:1033100031E5B246FEE60E9A0F9802230243FFF70C
:10332000D2FB189D013D002D00DC1EE6102D01DCB6
:1033300000F071FC8749102292468946221C4346C0
:103340005C4604E00836103D102D00DCC9E048461C
:1033500051461032013330607160BA607B60072BD8
:10336000F0DD0898211C3A1C03F040FC002800D036
:10337000CFE6BA687B6834AEE5E7302A03D0139312
:10338000013930230B70079C139D641B0D94FFF7CC
:10339000CEFAAB46B1464546161CA0460C1C494623
:1033A00042464444013331607260BC607B60072B4D
:1033B00000DDE7E20836139B18989846169B984460
:1033C000219B834246DB0999C90743D441466A1AC7
:1033D000189DEB1A1D1E954200DD151C002D0BDDFE
:1033E0007A6840466419013230607560BC607A606A
:1033F000072A00DDD2E20836EA43D21715405D1BEA
:10340000002D00DC27E57B68102D01DC00F030FC8E
:10341000504A102091468046221C5C4604E0083643
:10342000103D102D00DC8AE1494640461032013340
:1034300031607060BA607B60072BF0DD0898211C5A
:103440003A1C03F0D3FB002800D062E6BA687B6820
:1034500034AEE5E7179A1A9832607A682418013278
:103460007060BC607A60072A00DD6EE20836ADE766
:10347000099D01232B4200D044E57868139D8046C6
:10348000012080440134414635607360BC6079603E
:10349000072900DC68E5089859463A1C03F0A6FBAA
:1034A000002800D05EE67A68BC68904634AE5CE5E1
:1034B000089859463A1C03F099FB002800D051E6C1
:1034C000BC687B6834AE2AE5089859463A1C03F07C
:1034D0008DFB002800D045E67868BC68804634AE95
:1034E0002AE5A3469846141C0123984464194A46C9
:1034F000756045463260BC607D60072D00DC33E5B9
:10350000089859463A1C03F071FB002800D029E6C0
:103510007868BC68804634AE27E5089859463A1C5E
:1035200003F064FB002800D01CE6BC6834AE47E41E
:103530000E980F99002544428D417F212D23694427
:10354000221C0B7098460E940F9501232A43FFF717
:10355000CFF9C0461480020019981B9903F0E4F9D2
:10356000002800D154E1159D20230B9C9D43A946C2
:10357000013400D1C5E2472D00D1B5E28023099C7A
:103580005B001C431B9D1B9B1494A846002B00DA78
:10359000B1E200240C94159D662D00D1C3E2462DA6
:1035A00000D116E34B460B9C453B5A425341E4186D
:1035B0000223009321AB029322AB039325AB049328
:1035C00001940898199A434600F022FDA2461390F0
:1035D000672D01D0472D03D1099DED0700D4E9E205
:1035E00013984946041C5444462900D129E2DF4B74
:1035F000DD4A1998414621F0ADFC221C00280BD170
:10360000259B1A1C9C4207D930215A1C25921970FF
:10361000259B9C42F9D81A1C139C4D46121B1892EC
:10362000472D00D1E7E1159C652C00DC36E3159CA5
:10363000662C00D1C0E2219D1695189D169CA542CE
:1036400000DD61E2099DED0700D5D4E2E343DB171D
:1036500023400D94672415940C9C002C00D0D2E1DB
:103660007F256D442D78149CA84600250C93099461
:103670000B95FFF764F9099D119C6D0601D4FFF7C6
:10368000CEFA0023E35E119D0E930435DB170F93F2
:103690001195FFF721F9099D6D0600D4E9E0119C11
:1036A000002524880F950E94119C01230434119455
:1036B0000E9AFFF708FA099D6D0600D4CDE0119C23
:1036C000002524880F950E94119C00230434119436
:1036D0000E9AFFF7F8F9099D6D0600D4B3E0119C2E
:1036E000002524880F950E94119C04341194FFF743
:1036F00046FA099DED060BD4099C640608D5119D78
:10370000129C2D682C80119D04351195FFF716F839
:10371000119C129D236804341D601194FFF70EF86C
:10372000CB46A146141C49466419013331607560CB
:10373000BC607B60072B01DCFFF78CFB21E4A34618
:10374000141CF0E78A488146FFF769FB0898594640
:103750003A1C03F04BFA002800D003E5BC6834AEF5
:103760005AE4844A01343260012272607A68BC6093
:1037700001327A60072A00DD8BE00836181C002829
:1037800007D1189D002D04D1099DED0701D4FFF745
:1037900062FB179D7B6835601A9D01336119756066
:1037A000B9607B60072B00DD8BE1321C083244429C
:1037B000002C00DCA4E0102C00DC5FE26C4D102635
:1037C000A9465D4604E00832103C102C00DC8BE07A
:1037D00048461031013310605660B9607B60072B9A
:1037E000F1DD0898291C3A1C03F000FA002800D0EB
:1037F000A8E0B9687B6834AAE6E7B9680898DA46B1
:10380000002900D186E459463A1C03F0EFF981E41F
:10381000159C472C00DDEBE0574D13957F20099D4B
:103820006844802300789D430324099580460C94C6
:1038300003250D95002400250B941695FFF77FF8BE
:103840000D95FFF71DFA119D119C2D680020043481
:103850000E950F901194FFF792F9119D119C2D6810
:10386000002004340E950F90119400232A1CFFF7BA
:103870002AF9119D119C2D68002004340E950F909B
:10388000119401232A1CFFF71EF93C4D1395FFF7F5
:10389000DEF8089859463A1C03F0A8F9002800D031
:1038A00060E42198BC6834AE69E7099D0132254384
:1038B00009954B78FEF781FF089859463A1C03F0AA
:1038C00095F9002800D04DE4BC6834AEFFF7BAFB90
:1038D000FDF702FC0D90C3437F2068440078DB179E
:1038E00080460D9DFFF7D3F9AB464D4609190133CC
:1038F00015605460B9607B60072B00DD4DE1083234
:10390000139C189D146001334C195560BC607B609A
:10391000072B01DDFFF735FB161CFFF79BFA184953
:103920008846FFF750F801225242FEF7B4FF08988C
:1039300059463A1C03F05AF9002800D012E4BC683A
:1039400034AEA4E4AA46FFF7E5FB089859463A1CB2
:1039500003F04CF9002801D0FFF704FC219BBC6860
:1039600034AE33E5C046C046000000000000000051
:10397000148002009C7E0200647E02005C7E0200D5
:1039800024800200089859463A1C03F02FF90028B9
:1039900001D0FFF7E7FBBC6834AE0CE50898594648
:1039A0003A1C03F023F9002801D0FFF7DBFB189C39
:1039B000219834AE231ABC681EE5CA46FFF7AAFB5D
:1039C000BB4A9046FFF779FA0B99062900D90621E0
:1039D000CB43DB17119400240D910B941940B54C87
:1039E0000C9100250021884616951394FEF7ADFF33
:1039F000B14C139412E7219CE01C36DB0B9DA542D1
:103A000033DB169419E6149C7F202D226844099418
:103A1000002402700C9390460B94FEF793FF7F20D6
:103A20002D23684403709846FFF70AF8A349894696
:103A3000FFF763FB7F20684400780C958046119463
:103A4000F7E60378302B02D0219BE418CFE51998D4
:103A50004146964B944A21F07DFA0028F4D1012387
:103A600050461B1A2193E418C1E5159D023D15959A
:103A7000159823AD013C2194A8462870002C00DA4B
:103A8000DFE06B462B228D331A70092C5DDC6B4610
:103A90008E33302230341A705C7024AB4446189D4B
:103AA0001C1B2D191C94189C0D95012C00DCE8E0C2
:103AB0000D9C01340D94E343DB170025234016953C
:103AC000CAE5089859463A1C03F090F8002801D03E
:103AD000FFF748FB2198B9687B6834AA67E60025A0
:103AE00042460B95FEF76AFE0B9C002C00D045E584
:103AF00001250B9542E580252D062D24A8440C9424
:103B000049E506240B9439E5169D0123002D00DCC0
:103B1000B1E0189C1B190D930D9DDB43DB17672447
:103B20002B40159498E50323009321AB0B9D029342
:103B300022AB039325AB049301950898199A434649
:103B400000F066FAAA4613904AE59A21694489462C
:103B50000B1C201C0A211D1CFDF75EF93031297059
:103B6000201C0A21FDF702F96B1E041E092CF0DC53
:103B700030346A46E4B29B321C70934200D38FE02B
:103B80000D3A01E05C780133147001329945F9D1A6
:103B90008E227B1B6A44D31880E7089859463A1C4A
:103BA00003F024F8002801D0FFF7DCFAB9687B683D
:103BB00034AAA5E6259A2FE5219C1694002C36DD23
:103BC0000B9D002D2AD1099CE40727D4169B0D9349
:103BD00042E50323009321AB0B9C029322AB03939A
:103BE00025AB049301940898199A434600F010FA03
:103BF000A2461390F4E4169D67240135EB43DB17CE
:103C00000D952B40159427E52C4881468BE52B49D3
:103C10008946FFF7C4FB2948814665E40B99169D48
:103C200001316918CB43DB170D910B4014E50B9C58
:103C3000002C2CD1099DED0729D4012501230D95D8
:103C40000AE56B462D228D3364421A701DE7119DE3
:103C500011992D68043153780B9511914246002D2E
:103C600001DBFEF7AAFD012149420B91FEF7A5FDFC
:103C70001249894657E502235B1B4AE70F488146F4
:103C800033E6099DED0700D512E70D9C13E70B9C69
:103C90000234E343DB170D942340DDE4219CE7E687
:103CA0006B468E33FAE6C0460000000000000000BC
:103CB00024800200947E0200687E020014800200CC
:103CC00070B51B4C061CA5440C1C8989022081433D
:103CD00068468181616E1991E189C181E169606AFB
:103CE00007911AA9009104918021C90002910591C0
:103CF000002109900691301C6946FEF7D9FC051E8B
:103D000005DB301C694601F0CDF900280CD16A466C
:103D10009389580603D5A28940231343A381281C05
:103D20008D23DB009D4470BD01256D42EFE7C04649
:103D300098FBFFFF70B5051C0E1C141C002802D058
:103D4000816B00294AD0A269A260A28993B21907A7
:103D50003AD52069002837D0FF210E408021890103
:103D60000B4215D023686169181A88421BDA0130AA
:103D7000A268013AA2605A1C22601E7062698242E7
:103D80001AD0A389301CD90701D50A2E14D070BDD2
:103D90000A43A281144B626E616913406366236813
:103DA000181A8842E3DB281C211C01F07BF900284B
:103DB00017D123680120DBE7281C211C01F072F9D0
:103DC00000280ED1301CE2E7281C211C00F00EF860
:103DD000002806D1A289206993B2BDE701F080F9DD
:103DE000B1E701204042D2E7FFDFFFFF324B70B561
:103DF000061C18680C1C002802D0816B00293BD0DF
:103E0000A589ABB21A070DD52269002A15D0D807AB
:103E100021D561690023A3604B42A3610020002AE1
:103E200021D070BDD8063ED5590728D42269082371
:103E30001D43A581ABB2002AE9D1A02080008021DA
:103E4000184089008842E2D0301C211C01F09EFC01
:103E5000A3892269DBE70021980700D46169A1608A
:103E60000020002ADDD1A3891906DAD540221343A8
:103E70000120A3814042D4E701F032F9C0E7216B71
:103E8000002909D0231C4033994203D0301C01F093
:103E9000F9F9A58900232363242322699D43002384
:103EA00063602260C3E70923336040231D43012080
:103EB000A5814042B5E7C04650040020F0B5444615
:103EC0005F4656464D46F0B480468B460C694146E7
:103ED000096985B000208C4200DD90E05D46013C20
:103EE0001435A30002954746ED1814372968FB18CE
:103EF000013118680393FCF7EBFE061E42D0002147
:103F00008A46029B3A1CAC46B9465546071C0E1C15
:103F1000A24602CB0804000C7843090C7943301800
:103F2000040C6418116800040904090C4D19000CF4
:103F3000281A1568260C2404290C240C0514091BC6
:103F4000491900040D14000C0904014302C29C45E8
:103F5000DFD203993E1C096865464F465446002946
:103F600010D1039B043B9F420AD21A68002A03D057
:103F700006E01968002903D1043B013C9F42F8D3B5
:103F8000424614614046594602F030FA002835DBBB
:103F9000002189460136211C029BB4464C463A1C3E
:103FA0002E1C8946116820CB0804000C0419280433
:103FB000000C201A090C2D0C0414491B09190004CB
:103FC0000C14000C0904014302C29E42EAD24C4682
:103FD000A300FB181A686646002A0FD1043B9F42D3
:103FE0000AD21D68002D03D006E01968002903D10C
:103FF000043B013C9F42F8D342461461301C05B09B
:104000003CBC90469946A246AB46F0BD000000007D
:10401000F0B556464D465F464446F0B4016C9DB03F
:104020008246299D02920393002909D0436C012204
:104030009A404B608A6001F0C7FF002351460B6431
:10404000039E002E34DB00232B601F4B321C1A40D2
:104050009A421AD0029C039D1A4B194A201C291C13
:1040600020F078FF002837D0289C2A9D0123236068
:10407000002D00D13AE21548286001381DB03CBC43
:1040800090469946A246AB46F0BD114B289C029D36
:104090002360002D00D10CE20E482A9C002CEDD0AC
:1040A000C278C31C002A00D005332A9D2B60E5E7A7
:1040B0007600012376082B600396C6E7C046C0460B
:1040C00000000000000000000000F07F9D7E020064
:1040D0000F270000408002001BAB00931AAB019336
:1040E00050462B1C221C02F011FA330D834600D1DE
:1040F000E4E1201CBC4C2A03120B211C1143BB4AD7
:1041000000241A9F9E181394A84BA74A22F0EEF998
:10411000A74AA84B21F058FFA74AA84B20F0C0FFA0
:10412000041C301C0D1C22F04BFDA54AA54B21F0B0
:104130004BFF021C0B1C201C291C20F0B1FF041C8F
:104140000D1C22F009FDA04AA04B0890291C201C40
:1041500020F006FF002800D0BBE2089D0124119446
:10416000162D0FD8A24AEB00D31818685968029A86
:10417000039B20F009FF002800D1CDE3013D00247E
:10418000089511940024BE1B0994013EB14600D548
:10419000ACE2089C002C00DA92E20025A1440D94C8
:1041A0000B95269C092C00D9A2E10125052C02DDE6
:1041B000043C26940025269C032C01D100F0FFFC32
:1041C00001DC00F07FFC269C042C01D100F0FDFBFB
:1041D00001241094269C052C00D08BE1279C089983
:1041E0006418129401340A94002C01DC00F037FCAE
:1041F0000023524653640021172C0AD901220423BC
:104200005B00181C1430111C0132A042F8D953462F
:104210005964504601F0B0FE51460C9008640E2CD3
:1042200000D978E1002D00D175E1089D002D01DC59
:1042300000F002FD2A1C0F236D491A40D2008A1893
:104240000899146855680E11F20601D400F0C3FCF9
:104250001E40684B029803991A6A5B6A21F044FA7F
:104260000E900F9103239846002E12D0614F201C10
:10427000291C44460123334204D03A687B68013448
:1042800021F0A2FE76100837002EF3D1A0460D1CB7
:10429000041C0E980F99221C2B1C21F025FA061CD9
:1042A0000F1C119D002D09D0301C391C484A494B68
:1042B00020F056FE002801D000F0A9FD404622F073
:1042C0007FFC021C0B1C301C391C21F07DFE424A75
:1042D000424B20F0E5FE0E900F910F9B464C0A9D3D
:1042E0001C190F94002D01D100F044FC089C0A9D7C
:1042F0001894A846109C002C01D100F0DEFC434627
:104300003B4A013BDB00D3181A685B6834483549E7
:1043100021F0EAF90E9A0F9B22F0E8F8149015911B
:10432000391C301C22F018FC041C22F049FC021C31
:104330000B1C301C391C22F0D9F8271C30370C9D7F
:104340000E900F910E9A0F9B149815990C9EFFB228
:104350002F70013620F018FE002801D000F097FDE4
:104360000E9A0F9B1A481B4922F0C0F8021C0B1C26
:104370001498159920F008FE002801D000F0C5FD22
:104380004146012900DCC6E04C46199452465C4681
:10439000A8441694B1460E9C0F9D149E159F0E9234
:1043A0003EE0C046C046C046000000000000F83FA6
:1043B00061436F63A787D23FB3C8608B288AC63F2B
:1043C000FB799F501344D33F000000000000000021
:1043D000000000000000F03F0000000000001C4052
:1043E000000000000000E03F0000F03F01FCFFFF84
:1043F00058800200208102000000C0FC221C2B1CFF
:10440000BE49BD4822F072F8321C3B1C20F0A8FDCA
:10441000002801D000F055FDC14501D100F05DFD3F
:10442000301C391CB64AB74B21F0CEFDB44AB54B0F
:10443000061C0F1C201C291C21F0C6FD0D1C041C91
:1044400022F08AFB824622F0BBFB021C0B1C201CC4
:10445000291C22F04BF80D1C0121012349429944EB
:104460008B4653463033CB44DBB25A46041C1370A0
:104470009A46201C291C321C3B1C20F071FD002890
:10448000BCD00E9C169BA246189C9B464E46089498
:104490005046594601F098FD00233370089B289C34
:1044A0002A9D01332360002D00D108E32E600C9873
:1044B000E4E5360300D0EFE59548EEE51A9F1B9939
:1044C000944B7D189D4200DA20E29348934A401BAA
:1044D000029C8640AB18301CDC40204322F0AEFB2F
:1044E0008F4A012489186E1E13940DE68D48C5E588
:1044F000002426940023554600216B64504601F0A9
:104500003BFD01267642002101240C9028640A9686
:104510001296279110941B9B002B00DAB2E0089DA5
:104520000E2D00DDAEE0804AEB00D3181C685D68FC
:1045300004940595279D002D00DA50E2029C039D0E
:10454000049A059B201C291C21F0CEF822F004FBC4
:10455000804622F035FB049A059B21F035FD021CB4
:104560000B1C201C291C21F0C1FF43460C9A303340
:104570000C9E13700A9B041C0D1C0136012B53D09A
:104580005F4A604B21F020FD5F4A604B041C0D1C0C
:1045900020F0E0FC002800D07AE70C990C9F8946B7
:1045A0000A99023752465B46BA46894402930792FB
:1045B000049E059F12E0101C191C514A514B21F01A
:1045C00003FD514A514B0D1C041C01218A44201C3F
:1045D000291C20F0BFFC002800D0B2E2321C3B1C9A
:1045E000201C291C21F080F822F0B6FA804622F027
:1045F000E7FA321C3B1C21F0E7FC021C0B1C201CC0
:10460000291C21F073FF021C0B1C041C0D1C4046CE
:10461000514601393030D3460870CA45CBD1029A91
:10462000079B564693469A46221C2B1C201C291C8D
:1046300020F036FD041C0D1C221C049805992B1C2F
:1046400020F08EFC00280CD104980599221C2B1C0C
:1046500020F080FC002800D11AE74346DB0700D495
:1046600016E7741E27780C9B06E0A34200D1CAE22D
:10467000023E3778261C013C392FF6D00137FFB2B5
:10468000277005E7109C002C50D0269D012D00DCE2
:10469000CCE10A9C0B9D013CA54200DA93E22C1B65
:1046A0000A9D002D00DA99E3099E0A9B099D504658
:1046B000ED1801210995994401F030FD071C38E0FF
:1046C000089D099C641B09946C4200250B940D9570
:1046D00067E5089822F074FA2B1C221C20F03AFCA3
:1046E000089D43424341ED1A089536E54D466D421B
:1046F0000995A1464DE5C046000000000000F03FCE
:104700000000000000002440000000000000000045
:1047100034800200EFFBFFFF0EFCFFFF12040000DD
:10472000000010FE9C7E0200588002000B9C099E37
:104730000027002E0DD0494600290ADD4B46B14521
:1047400000DD40E1099D4946ED1AC91A0995F61A9E
:1047500089460B9D002D1ADD109D002D00D127E20A
:10476000002C10DD391C221C504601F083FD071C73
:104770005A46391C504601F0DBFC5946051C504690
:1047800001F022FCAB460B9D2A1B00D048E15046AD
:10479000012101F0C3FC0D9C8046002C05DD414643
:1047A0005046221C01F066FD8046269D0024012D06
:1047B00000DC8EE10D9D0123002D00D074E14B44FF
:1047C0001F22134000D19FE02022D21A042A00DCCD
:1047D000A1E31C22D31A099DF618ED1809959944F6
:1047E000099D002D05DD594650462A1C01F09EFD0D
:1047F00083464946002905DD414650464A4601F0B8
:1048000095FD8046119D002D00D02EE10A9D002DC2
:1048100000DC71E1109D002D00D180E0002E05DD4F
:10482000391C5046321C01F081FD071CB946002C92
:1048300000D02EE20C9C0A9D231C013B5B19029DBB
:104840000D9301231D4042460295A0465D46079206
:1048500054460799281CFFF731FB031C30330A909C
:10486000391C281C099301F0C1FD079982464A466C
:10487000201C01F0D7FDC168061C002900D0E4E02F
:10488000281C311C01F0B2FD8346311C201C01F0B4
:104890009BFB26995B460B4303D1029A002A00D169
:1048A000F9E25146002900DA62E2269953460B43A9
:1048B00003D1029A002A00D1FCE25946002900DD0A
:1048C00076E2099A41460A700D99464601368845B6
:1048D00000D17CE2291C0A220023201C01F07EFB6F
:1048E000391C051C0A22201C00234F4500D1A6E0DC
:1048F00001F074FB4946071C0A22201C002301F02A
:104900006DFBB0468146A4E71C2364E7C6480299C4
:10491000401B8140081CE1E50025119532E40C9A0A
:10492000B946002447460A9E5D46904606E0291C8B
:1049300050460A22002301F051FB051C391C281C9B
:10494000FFF7BCFA031C303341460B550134A64235
:10495000EDDC0A9EB8460993AB464F46002E00DCBC
:1049600040E20C9C0025A61959465046012201F050
:10497000DDFC4146834601F039FD002800DC32E1D0
:10498000741E23780C9A06E0A24200D1D2E0023EC7
:104990003378261C013C392BF6D001332370504666
:1049A000414601F011FB002F00D171E5002D05D02B
:1049B000BD4203D05046291C01F006FB5046391C6D
:1049C00001F002FB64E5331CBCE601241094279936
:1049D00000293DDD0C1C12910A91FFF709FC0A9C8D
:1049E000002C00DDAAE500D087E28C4B8A4A0498AF
:1049F000059921F0E9FA029A039B20F0CFFA0028EA
:104A000000D1FCE0002290460027279C0C9EE44346
:104A100008945046414601F0D7FA002FCED137E531
:104A20005946504601F026FC8346B0E6139C002C04
:104A300000D1D9E17D4D0B9C5B19099E36E601F052
:104A4000CDFAB046071C814603E7012293461CE7D6
:104A5000012301210122012412930A912792514638
:104A600000234B640021FFF7D4FB5846414601F078
:104A7000BDFC002800DBC9E6089D5946013D5046B3
:104A80000A220023089501F0A9FA129D83460A958F
:104A9000109D002D00D1B9E6391C50460A22002392
:104AA00001F09CFA071CB1E641460B6903339B00F9
:104AB0004344586801F0E6FA20231B1A7FE60C985D
:104AC000FFF7DCFA00241094269C022C00D17EE72C
:104AD00010E50299002900D06CE6039A130300D078
:104AE00068E6534B134200D164E6099C012501346A
:104AF0000994A94401245DE6269D022D00DC89E687
:104B00000A9C002C81D1414650460522002301F029
:104B100065FA80464146584601F068FC002800DCF2
:104B200073E7089D0C9E0C9C3123013501362370E0
:104B300008956EE7089C3123013408940C9C23707F
:104B40002DE70299079A5E4692468B46A0E44046BE
:104B500022F036F8021C0B1C301C391C21F034FAF0
:104B60002F4A304B20F09CFA0E900F910F99314A4A
:104B70008A180F92294B284A301C391C21F0B6FCA8
:104B80000E9A0F9B041C0D1C20F0FEF9002836D154
:104B9000201C291C0F9C80252D060E9A631920F0DD
:104BA000DFF9002800D1B6E40025A84600272CE74D
:104BB000594650460B9A01F05DFB8346E7E5002419
:104BC0001094FFF70BFB0B9D0B94631B0D9D0024B2
:104BD000ED180D9564E50299039A0E910F92022249
:104BE0009046FFF741FB002804D1099CE40701D55A
:104BF000C6E61E1C731E1A78302AFAD0CFE60025AE
:104C0000A84600278DE7089D3023013508950C9DA7
:104C100031272B7027703BE4000000000000144097
:104C20000000000000001C40EEFBFFFF330400000A
:104C30000000F07F0000C0FC089D6C42002C00D1F9
:104C4000D8E00F232340BE4ADB00D3180298039913
:104C50001A685B6821F0B8F92411061C0F1C002C9F
:104C600000D14EE102218846B64D301C391C464623
:104C70000122224204D02A686B68013621F0A4F98F
:104C800064100835002CF3D1B0460F1C061CFFF74A
:104C900008FB7968504601F06FF93A69391C023215
:104CA000041C92000C310C30FCF7C2F85046211C59
:104CB000012201F03BFB8146BCE54546013DA04A8F
:104CC000EB00D318186859680E9A0F9B149521F0C1
:104CD0007BF916901791391C301C21F03DFF0E9086
:104CE00021F06EFF0B1C021C391C301C21F0FEFB56
:104CF0000E9F0D1C0C9E0C9930370F7001364144ED
:104D00004346041C371C0E91012B1ED0B046201CBC
:104D1000291C864B844A21F057F9041C0D1C21F0F4
:104D20001BFF061C21F04CFF021C0B1C201C291C25
:104D300021F0DCFB30360E9C3E700137A742E8D1F3
:104D40000D1C14994646041C7618794A794B16981E
:104D5000179920F0A5F9221C2B1C20F001F900283E
:104D600000D180E0189D741E277808950C9B83E481
:104D7000079A5E46A246AB4644469046002E11DD99
:104D800059465046012201F0D1FA4146834601F0CE
:104D90002DFB002800DCA8E0099D392D30D00A9DAC
:104DA00031350995099D661C25703D1C4F46F6E579
:104DB000AB46079A099DA24644469046392D1FD01E
:104DC000099B3D1C0133661C23704F46E7E5AB464B
:104DD000079DA246A8463D1C4F46C5E509990023FC
:104DE0004E1B63E40126BCE51A9936235B1A0B9C23
:104DF000099E5BE40223029E039F9846FFF751FA47
:104E000039233D1C661C23704F460C9AC3E50A9C4F
:104E1000002C00D19BE6129D002D01DCFFF77BFBEF
:104E2000089C424B404A301C391C013C189421F02C
:104E3000CBF8061C404601300F1C21F0C1FE021CBD
:104E40000B1C301C391C21F0BFF83B4A3B4B20F0B7
:104E500027F90E900F910F9D3B49129A69180F91F7
:104E60009046FFF747FA169A179B3148314921F0CF
:104E70003DFB221C2B1C20F087F8002801D1FFF7F6
:104E80004AFB00E01E1C731E1A78302AFAD0189DC7
:104E90000895FFF7FDFAAB46554602950799099D1F
:104EA0005346A24644468846392DA9D0002B00DD42
:104EB00075E777E7079B5E46A246AB4644469846B1
:104EC0005CE70E9D57461699AA46189D5C464E46CD
:104ED0008B4608950C9BFFF7CFFB199A169B0E9CEF
:104EE00091469B46A246FFF716FB002800D059E7E3
:104EF000099DED0700D455E74EE7002188460027BD
:104F000083E50224A046FFF7CCF9189C08940C9C7A
:104F1000231CFFF7B1FB042A00D161E43C22D31A21
:104F200059E4C046C046C0460000000000002440CE
:104F3000000000000000E03F0000000000001C40F6
:104F400058800200208102000000C0FCC046C0461C
:104F5000F0B5474680B48B8980469AB20D1C110784
:104F60003CD48022120113436A68AB81002A56DDCB
:104F7000AC6A002C2ED0414600229BB20E680A601B
:104F8000DA0450D52A6D5F0706D569682B6B521A73
:104F9000002B01D0EF6BD21BE96940460023A047EC
:104FA000411C4BD0AA893E4B296913400022AB819A
:104FB0006A602960DA044ED4296B43461E600029DA
:104FC00008D02B1C4033994202D0404600F05AF9D9
:104FD00000232B63002004BC9046F0BD2E69002EF8
:104FE000F8D02F680023BC1B2E60910700D16B699D
:104FF000AB60002C04DCEDE73618241A002CE9DD48
:105000004046E969321C231C6F6AB8470028F3DC6C
:10501000AA89402313430120AB814042DBE7EF6BB9
:10502000002FA5DCD6E700224046E9690123A0470E
:10503000021C431C1ED0AB89AC6AA4E7424613682D
:10504000002B0AD1A989164A2F690A40AA816B60F0
:105050002F60D104B0D52865AEE71D2B01D0162BEB
:1050600019D1AA890E4B1340AB8100236B602B69C9
:105070002B60A1E747463B68002BDCD01D2B06D0F8
:10508000162B04D0A98940230B43AB81A3E74146EB
:105090000E6000209FE7AA8940231343AB819AE763
:1050A000FFF7FFFF38B5041C0D1C002802D0826BEF
:1050B000002A09D00C22AB5E0020002B03D0201C5C
:1050C000291CFFF745FF38BD00F00AF8F2E7C0469B
:1050D00008B5024900F02AFB08BDC046396D000042
:1050E000F8B5564644465F464D46F0B4846B061C00
:1050F000002C62D1344B0322C363B8239B00C450FD
:10510000B9239B00C250BB239B004568C218BA2339
:105110009B00C2500423281CAB812C606C60AC60E7
:105120006C66EC812C616C61AC61002108225C3002
:1051300000F0C0FE254B264F9A462B62254BED61B1
:1051400099466B62244BEF62AB62B56898460923BF
:10515000AB81281C0123EB812C606C60AC606C6619
:105160002C616C61AC61002108225C309B4600F030
:10517000A1FE53462B624B466B624346AB62ED6128
:10518000EF62F5681223AB81281C0223EB812C60AF
:105190006C60AC606C662C616C61AC615C30002151
:1051A000082200F087FE53462B624B466B62434653
:1051B000AB625B46ED61EF62B3633CBC90469946DF
:1051C000A246AB46F8BDC046D1500000AD69000014
:1051D000396A0000D56900000D6A00007047C046BA
:1051E0007047C046F8B50F1C041C00F0C1FE204DEE
:1051F000204AAB685E6803239E43F71BBF183F0B32
:105200001D4B013F3F039F4207DD201C002101F0A1
:10521000BBFBAA689319984204D0201C00F0AAFE98
:105220000020F8BD7942201C01F0AEFB01300DD00A
:10523000AB68F61B012216435E60104B201C1A68F7
:10524000D71B1F6000F096FE0120EAE7201C00211A
:1052500001F09AFBAB68C21A0F2ADEDD0849096823
:10526000401A0649086001210A435A60D5E7C04642
:10527000B0040020EF0F0000FF0F0000180D002009
:10528000BC080020F0B5474680B4051C0C1E55D064
:1052900000F06EFE211C083948680127031CBB433F
:1052A000CA185468804603208443201C534CA668C7
:1052B000964260D00026B4464646506037420AD136
:1052C0000E68271C891B9B198E680837BE426BD05D
:1052D000CF68F760BE601618766801273E4207D196
:1052E0001B18604600282CD09068D268C26090607D
:1052F0000122181C104366464860CB50002E1AD17C
:105300003F48834229D95A0A042A50D89E09383680
:10531000700080002018826882424ED003265468B4
:10532000B443A34202D292689042F8D1D368CB60D2
:105330008A609960D160281C00F01CFE04BC904675
:10534000F0BD90682F4EB042CFD11F43C160816045
:10535000C86088604F60CB50EDE7DB089810824052
:105360006068DB0002436260E418A368CC608B6075
:10537000A160D960DFE7C3184046074206D10A683A
:10538000891A88689B18CA68C260906001221A4313
:105390004A601D4AA16012689342CCD31B4B281C63
:1053A0001968FFF71FFFC6E70126B44693E7142AE2
:1053B0000CD8161C5B367000ABE7B6100123B34067
:1053C0001E1C63681E436660131CB0E7542A03D892
:1053D0001E0B6E3670009CE7AA204000824203D864
:1053E000DE0B7736700094E70948824203D89E0CA2
:1053F0007C3670008DE7FC207E268AE7B004002012
:10540000FF010000B8040020B8080020140D00209F
:1054100054050000F0B5564644465F464D46F0B48C
:1054200085B0039090680C1C9246002824D08B898C
:10543000190729D52269002A26D057463E68B34667
:1054400098072ED5B649002600258846002D65D040
:10545000E1692B1E434500D9B14B0398321C676AA2
:10546000B847002800DC80E05146896836182D1ABC
:105470005246081A9060E9D1002005B03CBC904625
:105480009946A246AB46F0BD0398211CFEF7AEFC40
:10549000002800D03BE157463E68A389B3469807F1
:1054A000D0D4DE0768D5002600270196B146002536
:1054B000002D2AD0019E002E00D1AFE0B846AF42A9
:1054C00000D9A846206821694646A26863698842D7
:1054D00004D9D2180292904500DDF0E0984500DA38
:1054E00080E0666A0398E1694A46B047061E3CDDE3
:1054F000BF1B00D185E050468068B144AD1B5146CA
:10550000861B8E60B8D0002DD4D15B4608261A6861
:10551000B344002691465D680196C9E75A460823C0
:10552000166855689B4491E720682369984204D81F
:105530006669B146B54200D3ADE0A946454500D9FC
:10554000C14601994A4600F063FC2668A0684946B6
:10555000321C431A4A44A3602260002B40D10398B6
:10556000211CFFF79FFD00283AD0A2894023134356
:105570000120A381404280E70026002501965F4676
:10558000002D28D0A0688021890080460B42CBD016
:1055900085423FD39022D20013424CD12068C146AD
:1055A00001994A4600F034FCA06822684146431A3B
:1055B000A360131C4B4423602A1C5046019E806844
:1055C000B618AD1A5146821A01968A6000D153E787
:1055D000A389002DD6D13E687D6801960837CFE7B4
:1055E0004A46EAE74946424600F012FCA0682268B3
:1055F0004146431AA360131C43442360BF1B00D0E1
:1056000079E70398211CFFF74DFD0028ADD1002359
:10561000019370E7A8462068A946C1E748460A21D9
:105620002A1C00F0B3FB00286DD0471C0126484619
:105630003F1A019642E76269216950008218266884
:10564000D00F8218761A52109146321C013252192C
:10565000B346914543D29146580543D50398111C52
:1056600000F00EF98046002854D05A462169FBF715
:10567000DFFBA2892B4B134080221343A3814046BA
:105680004A465E462061931B584420606261A846EA
:10569000A360A94684E72449281E884200D9081C33
:1056A0004946FBF763FB4B464343E1690398019A84
:1056B000666AB047002800DC57E7021C7DE74946D0
:1056C00000F0A6FB2268029E039893192360211C18
:1056D000FFF7E8FC002800D047E7029E08E74A46AB
:1056E0005805BBD4039800F06FFF80460028C6D150
:1056F00003982169FFF7C6FDA2898023039F9A437F
:105700000C233B6032E701266F1C0196D6E6012090
:105710004042B2E6039E0C233360A28926E7C046CE
:1057200000FCFF7F7FFBFFFFFFFFFF7FF0B5B8228C
:105730004746920080B4871888460026002F13D071
:105740007D68BC68013D0CD4A389012B06D90E22CB
:10575000A35E013302D0201CC04706436834013DDC
:10576000F2D23F68002FEBD1301C04BC9046F0BD54
:10577000004870478C040020014B18687047C046F1
:10578000AC0400200048704754040020F0B58B8919
:1057900091B09AB2051C0C1C900740D40E20095EF3
:1057A00000291BDB281C01AA01F032FB002813DBB7
:1057B000029AF0231B021340294A9F187A4257414C
:1057C00080221202934234D0A28980231B0113430A
:1057D0008026A381F60009E0A3899AB2402611062B
:1057E00024D5802212011343A3810027281C311CD9
:1057F00000F046F800280CD01A4BEB63A2898023F6
:105800001343A381206020616661002F1CD111B079
:10581000F0BDA3899905FAD402221343A381231C66
:1058200043332360236101236361F0E78026F600A0
:10583000D7E70D4BA06A9842C6D1A3898026F6000F
:105840003343A381E664D1E70E22A15E281C01F058
:10585000F3FA0028DBD0A28901231343A381D6E702
:1058600000E0FFFFD15000000D6A000008B5034BB7
:10587000011C186800F004F808BDC0465004002060
:10588000F0B5564644465F464D46F0B40C1C0B340A
:1058900083B0061C162C2BD907239C432BD4A14282
:1058A00029D8301C00F064FBF823FF339C4226D833
:1058B000E208CA4DD300EB18DF689F4200D1BBE17C
:1058C00078680323FA68B96898433B18CA60916006
:1058D000596801220A43301C5A6000F04BFB381C07
:1058E000083003B03CBC90469946A246AB46F0BD9A
:1058F0001024A142D5D90C2333600020F1E7630ABC
:1059000000D18EE0042B00D93DE1A30938339C4639
:105910005900B24D89006918CF68B94215D07A682C
:1059200003239A43101B0F2800DD8DE000287CDA4A
:10593000032007E07A688243131B0F2B00DD83E00E
:10594000002B72DAFF68B942F4D1012294442B1C77
:105950002F6908339F4200D163E1786803229043A6
:10596000021C011B0F2900DD4AE16B612B6100293C
:105970005FDA9B4B984200D90FE1C3089A100121CE
:10598000DB00EB18914068680A1C99680243FB60D1
:10599000B9606A609F60CF6061468B1001219940B9
:1059A000914255D811420DD1032360469843031C00
:1059B000043349009C46114204D1042349009C440D
:1059C0001142FAD0032080466246D3005B199A4602
:1059D000181CE146C768B84207D124E1002B00DB60
:1059E00033E1FF68B84200D11DE17A6843469A432B
:1059F000131B0F2BF2DD01213A190C437C60F86870
:105A0000BC680835E06019438460EA60AA60301C15
:105A1000D56095605160D35000F0ACFA381C083066
:105A20005FE73F227E21944673E7FB68B968CB604D
:105A30009960BA18516801230B43301C536000F081
:105A400099FA381C08304CE70120404284447CE736
:105A5000AF680323786898438146A04203D3031BB1
:105A60000F2B00DD81E05F4A5F4B49461B681068E1
:105A700079180191E3189346013000D147E15B4961
:105A80005B181B0B1B030093301C009900F07CFF7C
:105A9000021C804601325DD0019B834200D9EBE0BD
:105AA00053480099026882468B180199036041456A
:105AB00000D135E15A461268013200D143E1019824
:105AC00041460A1A9B1851460B6007234246134071
:105AD00000D104E1D21A08329046464AD31A0098FF
