:10000000087F0020D9710100D5710100B97201008B
:1000100000000000000000000000000000000000E0
:10002000000000000000000000000000D571010089
:100030000000000000000000D5710100D571010032
:10004000D5710100D5710100D5710100D571010094
:1000500041510200D5710100D5710100D571010037
:10006000D5710100814B0200914B0200A14B0200AF
:10007000B14B0200C14B0200D14B0200D57101000F
:10008000D5710100D5710100A54F0200B54F0200E6
:10009000C54F0200D5710100D5710100D571010075
:1000A000D5710100D5710100D5710100D571010034
:1000B000F0B5474680B492B0041C0388F82B24D0D6
:1000C0000822FF32934255D0002B5AD1314B98472A
:1000D000314B9847314B9847314B9847314832491B
:1000E000324B98470020324B9847324B9847324B5F
:1000F0009847002831D13148314B98473148802109
:10010000314B98470AE0F82323802E482F4B98471D
:100110000023002838D02B482D4B9847264B984772
:100120000028F0D02B48264B98472B4DA84706783F
:10013000A84743789846A8478778A847434600933E
:100140000197C378029305A83221244A331C244D19
:10015000A847244805A9244B9847F02040010121D5
:10016000224B98471748F0210901174B984708235D
:10017000FF3323801348154B984700230028B6D13E
:1001800002E0002303800333181C12B004BC904625
:10019000F0BDC046C1EC0100892B0200ED4E01000C
:1001A000E5790000680D00203D0200006179000043
:1001B00029B10000057B000099310200ACA40200C7
:1001C000710F0000140D00204D8D0100A98D01005C
:1001D000658D0100C8A40200512B0200E0A40200BA
:1001E00099100000ECA40200097F000095B1000006
:1001F00038B50A4B196800290FDDCC01084B984728
:10020000211C084B98470848084A0023084DA84776
:100210000848211C084A0023A84738BD7C0D00204F
:10022000599201007D0C00002C0D00208502000079
:10023000318F0100EC0C0020F101000038B50328DB
:1002400013D1081C09490A4B984700280DD1074DC6
:10025000281C084B9847041C281C211C064B984757
:10026000064B1C600020064B984738BDF8A40200DE
:100270001D110000E97C0000C57B00007C0D002002
:10028000F1010000F0B55F4656464D464446F0B4D5
:10029000ABB09D4B9847051C9C4B9847041E2BD038
:1002A000002D43D0037A427A0092827A0192C27A78
:1002B0000292027B0392427B0492827B0592C27B74
:1002C00006920AA88021924A924EB04792480AA903
:1002D000924B9847201C924B984700280ED0914B88
:1002E0009847002803D0904B9847011C00E000215C
:1002F0008E488F4B984701E0002D17D0A97C8D4880
:100300008B4CA047A98B8C48A0472B6A002B0DD0A3
:100310009422985C02238340181CFA218900874BA1
:1003200098470104090C8648814B9847854B9847AC
:10033000011C85487E4CA047844B9847011C84488B
:10034000A047844B9847844B1B68C01AC409834B51
:1003500098470020824EB047051C0120B047071C7B
:100360000620B04709900720B04780467D4B1868AB
:100370002D1A7D4B1B68FB1A9B467C4B1F687C4BE0
:100380001B68FF18002C0ADD7A4B5B6C7A4A1068F8
:10039000181A211C794B9847794B186006E0754B69
:1003A0005B6C754A12689B1A754A13601F20754E64
:1003B000B047754B9A461B68C01A744B18602620CC
:1003C000B047734B99461B68C01A724B18600020E7
:1003D000B047714C2368C01A704B18601F20B0479B
:1003E000534618602620B0474B4618600020B0479F
:1003F000206000205A4EB0475A4B18600120B04789
:10040000594B18600620B047584B18600720B0477A
:10041000574B1860574B5A6C574B1A604D4B9847C7
:100420004D4B1860099BDC1B44445B465E19002E53
:1004300000D10136FA27BF00281C78434F4B98465D
:10044000311C9847051C564B1860201C7843311C02
:10045000C047544B1860BD4201D9514B1F60FA236D
:100460009B00984202D91A1C4E4B1A604B4B1968DC
:100470004D482F4CA0474D4B19784D48A0474D4B48
:1004800019784D48A047474B1E683C4B9A46301C94
:100490000A219847071C494B9946301C0A21984766
:1004A00000910AA88021464A3B1C1A4DA84745489E
:1004B0000AA91A4FB8473A4B1E68301C0A21D04788
:1004C0000990301C0A21C84700910AAA101C8021FB
:1004D0003B4A099BA8473C480AA9B8472D4B1968D5
:1004E0003A48A047294B19683948A047244B196856
:1004F0003848A047384B98472BB03CBC90469946AB
:10050000A246AB46F0BDC046A50E02007DEF01003D
:1005100000A5020099100000CCE30200B17F0000AA
:1005200081A6010035A60100B9080200DCAF020077
:10053000D982000024A5020014B00200910C000032
:100540002CA502004DA6010030A5020011C2010039
:1005500034A502009D790100700D00207990010002
:100560003D900100580D00204C0D0020640D00202E
:10057000800D002078630020540D0020710B0000D6
:10058000240D002075200200500D0020280D0020B1
:10059000740D0020100D00205C0D00200C0D0020BB
:1005A000600D0020780D002038A50200106D00209D
:1005B00044A50200116D002050A502007D0C000032
:1005C0005CA5020064A5020068A502006CA50200FB
:1005D00074A5020080A502004584000030B583B0F8
:1005E0000D1C6B469C1D211C024B984723882B70C9
:1005F00003B030BD0176010008B589B2014B9847C0
:1006000008BDC046D9750100F0B5474680B490B02A
:10061000BE4B98478023DB05009300230193FF2204
:1006200069460A8100228B72CB72012124206C461C
:1006300021540130215425316354013163540A930C
:10064000053163540131635405932382E3762276A6
:10065000227762761323A3766277E1235B02089305
:1006600080235B030393AA4B0C93AA4B0D930123A6
:100670005B420E930F93A84CA84B1C60A84AA94B51
:100680001A60A94AA94B1A60201CA9496A46A94BBD
:100690009847A94E336898680021A84DA847336849
:1006A00058680021A8472368DA69002AFCD1196834
:1006B00002320A431A60984B1B68DA69002AFCD19F
:1006C0005A68802149020A435A600124924BDC7126
:1006D0009B4B984707209B4B98479B4B1C70BFF345
:1006E0005F8F62B6994A136904218B43136100221C
:1006F000974B5A70974B9847974B9847974B98470B
:10070000974B9847974B9847974B9847974B9847E5
:1007100097480021974B9847974B98479748984D93
:10072000A8479848A8479848984B9847984B1C78F2
:100730009848A847630602D59748944B9847A30664
:1007400002D59648914B9847E30602D594488F4BC3
:100750009847630702D593488C4B9847A30702D567
:1007600091488A4B9847E30700D4B5E18F48874BFF
:100770009847B1E16B46E15C381CB0470134072C67
:10078000F8D1BEE16B46E15C381CB0470134072C60
:10079000F8D16B46D9798648794EB047854C208888
:1007A000854B9847854B98471A20854B9847854B32
:1007B0009847011C8448B047844B984784480021DF
:1007C0006C4B9847834B9847834B9847834B1860F3
:1007D0000122834B1A702188002903D08148684B7D
:1007E000984702E08048694B98478048291C0822B6
:1007F0007F4B98477F4B98477F4B1D68DC69A0472C
:100800008022002805D0A047011C80207B4B984700
:10081000021C7B48291C1A23594CA0477948002107
:10082000544B98477848A04701204042774B98475F
:10083000051C841C102398468044754F504E217827
:100840006278381CB04702344445F8D1297C6A7C70
:1008500070484B4CA047FC236A461380002353800A
:100860009380D380138153819381D38168465F49FC
:10087000694B9847684600210022684B98476848B2
:10088000A0476C460E276F44614E3D4D217862783B
:10089000301CA8470234BC42F8D16B46997BDA7B06
:1008A0005C48374CA0475F48A0475F4B1B68002B54
:1008B00009D05D4C5D4E324D5968301CA847043458
:1008C0002368002BF8D11C4B186882689368013BA1
:1008D0009360002B00DBADE08268936891698B42E6
:1008E00010DB13680A221A70134B186882681368A9
:1008F00019780A2902D001331360A5E00A214C4B74
:100900009847A1E00A214A4B98479DE0BD7201003B
:100910000300040003000500840D00205C62002039
:10092000F905000058620020DD0500005462002037
:1009300000080042E172010040040020850F000021
:10094000A57A0100D57A0100B40A002000ED00E08C
:1009500000040040BD7B0100316E0100E57801001C
:10096000B98E0100AD880100BD760100F589010056
:10097000E40A0020498B0100657B010094A5020078
:10098000F10E0000A0A50200B0A50200710F00004A
:1009900038040040E4A50200F8A5020010A60200F9
:1009A00020A6020030A602004CA6020068A60200A3
:1009B000D8A602008A4500204D9201007D18020051
:1009C000058301005D8201007CA60200B987010059
:1009D000D40A002011900100317801000C6400203D
:1009E0000064002090A60200A0A60200546400202B
:1009F000750E00008920020004B80200910C00006E
:100A0000B4A60200840B0020C0A602007DC801002D
:100A1000C8A60200D4A6020089CA010051C901007B
:100A2000E0A6020000A70200A4A402000CA7020096
:100A3000213C000083681B680A221A70354B1B6832
:100A40009A681368013313600720334B9847334883
:100A5000334B9847334B9847334B98470020334BE1
:100A60009847334D334C344FA847A0470028FBDC50
:100A7000B847324B1B78002B0BD0314B9847314A8B
:100A8000314B1B681168CB1A1818106000222B4BD1
:100A90001A702B4B98472C4B5860284E01237370CB
:100AA000BFF34F8F30BF1F4B98477378002B0BD08D
:100AB000234B9847234A244B5B685168CB1A18187C
:100AC000506000221D4B5A701D4B98471E4B1860FA
:100AD00001221A4B1A70C7E71C4B9847051C0023CC
:100AE000009301936846291C0822194B98476846D1
:100AF000184B98471848194B98470024184F174E21
:100B000038E66B46D9791748144B98470024164F9E
:100B1000124E37E640040020ED7A0100A4A4020042
:100B20001991010015770100C1EC010029B1000005
:100B300055770100258A0100357701000064002007
:100B400031780100CC6300200C6400209D840100FA
:100B5000750E00006918020010A70200F10E0000D7
:100B600078A6020024A70200CCA602007047C04667
:100B7000002243088B4274D303098B425FD3030ADC
:100B80008B4244D3030B8B4228D3030C8B420DD3EF
:100B9000FF22090212BA030C8B4202D3121209027D
:100BA00065D0030B8B4219D300E0090AC30B8B42BB
:100BB00001D3CB03C01A5241830B8B4201D38B0369
:100BC000C01A5241430B8B4201D34B03C01A52410E
:100BD000030B8B4201D30B03C01A5241C30A8B4251
:100BE00001D3CB02C01A5241830A8B4201D38B023C
:100BF000C01A5241430A8B4201D34B02C01A5241E0
:100C0000030A8B4201D30B02C01A5241CDD2C30951
:100C10008B4201D3CB01C01A524183098B4201D3CD
:100C20008B01C01A524143098B4201D34B01C01AB8
:100C3000524103098B4201D30B01C01A5241C30830
:100C40008B4201D3CB00C01A524183088B4201D39F
:100C50008B00C01A524143088B4201D34B00C01A8B
:100C60005241411A00D20146524110467047FFE7F7
:100C700001B5002000F0FCF802BDC0460029F7D005
:100C800003B5FFF775FF0EBC4243891A1847C046EB
:100C900003460B437FD4002243088B4274D30309DD
:100CA0008B425FD3030A8B4244D3030B8B4228D37E
:100CB000030C8B420DD3FF22090212BA030C8B42A4
:100CC00002D31212090265D0030B8B4219D300E044
:100CD000090AC30B8B4201D3CB03C01A5241830BC9
:100CE0008B4201D38B03C01A5241430B8B4201D379
:100CF0004B03C01A5241030B8B4201D30B03C01AA2
:100D00005241C30A8B4201D3CB02C01A5241830A1B
:100D10008B4201D38B02C01A5241430A8B4201D34A
:100D20004B02C01A5241030A8B4201D30B02C01A74
:100D30005241CDD2C3098B4201D3CB01C01A5241DB
:100D400083098B4201D38B01C01A524143098B4264
:100D500001D34B01C01A524103098B4201D30B014D
:100D6000C01A5241C3088B4201D3CB00C01A524172
:100D700083088B4201D38B00C01A524143088B4237
:100D800001D34B00C01A5241411A00D201465241D0
:100D9000104670475DE0CA0F00D04942031000D3EF
:100DA0004042534000229C4603098B422DD3030A44
:100DB0008B4212D3FC22890112BA030A8B420CD354
:100DC000890192118B4208D3890192118B4204D37D
:100DD00089013AD0921100E08909C3098B4201D3FD
:100DE000CB01C01A524183098B4201D38B01C01A37
:100DF000524143098B4201D34B01C01A52410309AE
:100E00008B4201D30B01C01A5241C3088B4201D35C
:100E1000CB00C01A524183088B4201D38B00C01A09
:100E20005241D9D243088B4201D34B00C01A5241E0
:100E3000411A00D20146634652415B10104601D36D
:100E40004042002B00D54942704763465B1000D3F7
:100E5000404201B5002000F00BF802BD0029F8D097
:100E600003B5FFF715FF0EBC4243891A1847C04669
:100E70007047C04670B50F2A32D9041C0C430B1CB6
:100E8000A40731D1151C041C103D2D0901352D017D
:100E900049191E6826605E6866609E68A660DE6806
:100EA0001033E66010349942F3D10F2345191340F3
:100EB000032B1BD91C1F0023A4080134A400CE5807
:100EC000EE500433A342FAD1ED18C91803231A4097
:100ED00005D00023CC5CEC5401339342FAD170BDB1
:100EE000051C002AF5D1FAE7051CF2E71A1CF8E701
:100EF0000FB400B5064983B004AB086804CB816821
:100F0000019301F0F5FB03B008BC04B01847C046DC
:100F10004004002030B5041C89B0081C0D1C00F0F2
:100F200041F9114A04AB0692012201930223079270
:100F300080220590A16801300495039002938B896B
:100F40009201134205D113438B814A6E074B134024
:100F50004B66201C01AA04F023FA431E98410A2381
:100F60004042184309B030BD48B80200FFDFFFFF20
:100F700008B5034B011C1868FFF7CCFF08BDC0463D
:100F80004004002008B54A424A4180235200DB0059
:100F900000F002F808BDC046F0B547461D1C3C4BAA
:100FA00080B41E68041C8846171C002E02D0B36B48
:100FB000002B48D0022F59D8002D57DB301C211CA4
:100FC00004F024F800236360A361A3891A0623D4E4
:100FD00083229343A381022F28D04246002A36D091
:100FE000012F13D02B4A9BB2F26342466561226007
:100FF000226100201A0706D503221A4053425341AA
:101000005B422B40A36004BC9046F0BD0122134319
:101010006A42A381A261E5E7301C216904F0E8F887
:101020008322A3899343A381022FD6D100200222D9
:101030001343A3810023A360231C43332360236154
:1010400001236361DFE7301C04F076F8B2E7002D7E
:1010500001D18025ED00281C04F0E2FB8046002829
:1010600007D08023A2891343A381B9E7012040421E
:10107000C9E78020C00004F0D3FB8046002803D1DC
:101080000120A3894042D2E78025ED00E9E7C04670
:1010900040040020395000000CB410B51E4B9CB029
:1010A0001C68002932DB82220B1C920002A98A8173
:1010B00002900861002B11D0013B8B604B61012332
:1010C0005B42CB81201C1FAB1E9A019300F09EF85F
:1010D000431C18DB0023029A13700CE08B604B61F9
:1010E00001235B42CB81201C1FAB1E9A019300F0B1
:1010F0008DF8431C04DB1CB010BC08BC02B01847C0
:101100008B232360F7E78B232360E3E78B23012006
:1011100023604042EFE7C04640040020024670B51D
:101120000A4392072AD11E4DEE0104C808C9541B78
:101130009443344017D0D0B2D9B2401A21060143AB
:1011400010D190B299B2401A210401430AD1100281
:101150001902000A090A401A2102014302D1100EA5
:10116000190E401A70BD9A42DFD010BA19BA8842DF
:1011700001D9012070BD0020C04370BD02780B78FA
:1011800001300131002A09D09A4207D102780B7848
:1011900001300131002A01D09A42EFD0D01A70BD3F
:1011A0000101010110B5830727D00378002B26D059
:1011B000031C032102E01A78002A1CD001330B42E1
:1011C000F9D119680F4A104C8A188A4322420FD16C
:1011D000043319680B4A8A188A43224208D104331F
:1011E0001968084A8A188A432242F1D000E0013384
:1011F0001A78002AFBD1181A10BD031CE1E7002061
:10120000FAE7C046FFFEFEFE80808080F0B55F46B4
:10121000444656464D46F0B4C3B00C1C0791934665
:101220000F93099004F07AFA0368181C1993FFF7DA
:10123000B9FF1A90A3891B0606D5079B1B69089363
:10124000002B01D101F086F832AB25930023DA465A
:1012500025AFBB607B6016931793189332AE109343
:101260001B930B9353461B785446002B1CD0252B05
:1012700002D119E0252B03D001342378002BF9D1BA
:101280005346E51A10D053463360BB687560EB18BF
:10129000BB607B6801337B60072B27DC08360B9B28
:1012A0009C46AC4463460B932378002B27D0002345
:1012B00016A90120621CCB776378102440420021DC
:1012C0008046A446002070344025A14692460A90EC
:1012D000834608912030514601311A1C203A582A81
:1012E00000D904E3D64C9200A25897460998079972
:1012F0003A1C05F0B9FB002809D132AECFE7BB6834
:10130000002B04D0099807993A1C05F0ADFB079B08
:101310009B895B0607D40B9843B03CBC904699462A
:10132000A246AB46F0BD01204042F5E78A460423C1
:101330005A461A4393460B78CDE70B784A1C2A2B62
:1013400001D101F0A0F9302149428A469A4454461D
:10135000111C0022092C12D8B046161C5246B300AC
:101360009B195B000131D6184B1E1B781A1C303AB2
:10137000092AF4D9321E464601DA00F0E6FF90460B
:10138000ABE75B464A4613439B468A460B78A2E787
:101390000022141C303A92469A445246B246261C09
:1013A000B3009B195B0001319E184B1E1B781A1C61
:1013B000303A092AF4D90A9656468EE78A460899A1
:1013C000149316AB5A46D97710231A4393465B46BB
:1013D0009B0600D48FE107230F9A07329A4301330B
:1013E0009C46944463460F93536812680D930C9285
:1013F000002B00DA8EE10C980D9916ABDD7F434689
:10140000021C139301230A434146002903DB58467B
:10141000802188438346002A00D09FE34246002A69
:1014200001D100F09CFC012B00D1C9E3022B01D1BA
:1014300000F0D0FC32AB1C1CB1465B46AB460893B7
:101440000C9A0D9B5807D6080721DD0830432B1C4A
:10145000051C1140013C30312170021C1D43F1D1AB
:101460000C920D930B1C08995D4611944E468B46C9
:10147000221CC90700D49FE3302B01D100F08FFF5D
:10148000119B013A013B191C11933023137032AAAE
:10149000531A0E930E9A131E434500DA43460893DF
:1014A00000231593002D02D0089B013308930223DB
:1014B0005A461A40914602D0089B0233089384236F
:1014C0005A461A40129200D026E20A9B089A9C1AA9
:1014D000002C00DC20E2BA687B685A4D102C20DD1D
:1014E00010218846311C099E03E0103C0831102C65
:1014F00016DD4046103201330D604860BA607B60F3
:10150000072BF2DD301C07993A1C05F0ADFA0028D4
:1015100000D0FCE6103CBA687B6832A9102CE8DCED
:101520000E1C74600133A4183560BC607B60072B0F
:1015300001DD00F0BCFC16AB0836DD7FEDE10722D3
:101540008A460899149316ABD9770F9B4546073303
:101550009343013294469C4462460F921A68179254
:101560005B6817981893189905F0F2F9012801D0D3
:1015700000F0A3FD179818990022002326F0EAFB3B
:10158000002801D000F0ACFF16ABDD7F149B472B89
:1015900001DC00F0D6FE2C4B11935A4680239A436F
:1015A0009346032308930E9300231393159379E72F
:1015B0005B46082213439B468A460B788BE65A46C5
:1015C000149310231A4393465B468A469B0600D425
:1015D00063E107220F9B07339343013294469C44F7
:1015E00062465C681B68181C211C0F92021C0023B9
:1015F0000C900D912243002116A8C1774146002589
:10160000139101E75A46149310231A4393465B46FD
:101610008A469B0600D458E107220F9B0733934369
:10162000013294469C4462465C681B68181C0F9209
:10163000211C021C0C900D9101232243DBE7C046C4
:1016400030A70200A4A80200B8A802008A460899A0
:10165000149316ABD977CC4B10935B469B0600D402
:10166000FCE007220F9B07339343013294469C44CE
:1016700062465C681B680C930D945B460F92DB0717
:1016800000D4FEE00C9B0D9C1A1C02232243B2D016
:1016900030201EA908705024684600190078487050
:1016A000594619438B46A6E78A460F990B1C0A68D0
:1016B00004330F9300230C925A460D9302331A43BE
:1016C000934630221EAB1A7048325A70AF4B1492B8
:1016D00010930C9A02238EE75B4603439B468A468F
:1016E0000B78F8E58A460899149316ABD9775B46D0
:1016F0009B0600D56FE65B46DB0601D400F00BFDD0
:101700000F9A136808930C930432DB170D930F9212
:1017100000D470E60C990D9A00244B429441191C98
:101720002D2316A8221CC377081C43460C910D924A
:10173000021C13932D250123224365E65B462B43B0
:101740009B468A460B78C6E50B786C2B01D100F0DE
:1017500062FD5A466446224393468A46BBE58A4662
:10176000089916ABD9775B469B0601D400F0BAFC0A
:101770000F990B9A0B681A60D2175A600B1C04332E
:101780000F936FE58A460F9914930B6828AA13707C
:10179000002304310F9116A9CB77013308930E93E0
:1017A0000023002513931593119280E6089B002BCC
:1017B00001D000F0BAFC20220B788A4608928AE514
:1017C00001235A461A4393460B788A4683E50F9BBA
:1017D0001A1D1B680A93002B01DA00F015FD0B7827
:1017E0000F928A4677E52B220B788A46089272E59B
:1017F00014930F9B8A461C1D1B6816A91A1C119373
:101800000023CB77002A01D100F053FE4346119804
:10181000002B01DA00F0E3FD0021424604F0A8FAB3
:10182000002801D100F076FE119BC31A1A1C0E93FA
:10183000DB43DB171A40002316A9CD7F08920F94D3
:10184000139315932EE68A460899149316ABD9770D
:101850004E4B10935B469B0600D502E75B46DB06CA
:1018600000D587E35B465B0600D483E30F9B1A88B1
:1018700004330C9200220F930D925B46DB0700D5D8
:1018800000E70C980D99021C02230A43B3E6149357
:101890005B468A469B0600D59BE65B46DB0600D589
:1018A0005DE35B465B0600D459E30F9B1A88043363
:1018B0000C9200220F930D9200230C9A9BE6149336
:1018C0005B468A469B0600D5A6E65B46DB0600D54E
:1018D00058E35B465B0600D454E30F9B1A8804333D
:1018E0000C9200220F930D9201230C9A83E68A46F4
:1018F000089916A81A1E1493C17700D1FFE428ABEB
:101900001A700022C277013208920E92002200253E
:10191000139215921193CAE5BC68002D0FD016AA38
:101920001F23944663443360012373607B68013452
:101930000133BC607B60072B00DD2DE208364B468F
:10194000002B0CD01EAB3360022373607B68023423
:101950000133BC607B60072B00DD29E20836129B57
:10196000802B00D197E1139B0E9A9D1A002D3ADD32
:10197000074A7B689046102D2ADD1022211C9146D3
:10198000099C321C464609E0C4A80200D8A80200FF
:1019900094A80200103D0832102D16DD4846103183
:1019A000013316605060B9607B60072BF2DD201CAC
:1019B00007993A1C05F058F8002800D0A7E4103D1C
:1019C000B9687B6832AA102DE8DCB0460C1C161CE6
:1019D00042466419013332607560BC607B60072B3E
:1019E00000DDC7E108365B46DB0500D5F6E0119B5C
:1019F00033600E9B9C4673607B6864440133BC601B
:101A00007B60072B00DD9DE008365B465B0746D513
:101A10000A9B089A9B1A9846002B40DD102B01DC8C
:101A200000F05AFD1022D94D9146211C321C7B68D2
:101A30004646099CA846079D03E0103E0832102E3A
:101A400017DDD24810311060484601335060B9604C
:101A50007B60072BF1DD201C291C3A1C05F004F8E3
:101A6000002800D053E4103EB9687B6832AA102EDB
:101A7000E7DC45460C1CB046161C42464444013384
:101A800035607260BC607B60072B08DD09980799A0
:101A90003A1C04F0E9FF002800D038E4BC68089B39
:101AA0000A9A934200DA131C0B9A94469C446346AC
:101AB0000B93002C00D048E1002332AE7B60FFF78F
:101AC000D1FB169B012B00DC22E1119B013433601A
:101AD000012373607B68BC605D1C7D60072D00DDA9
:101AE000C5E20836199B013533601A9B7D609C4620
:101AF00064447360BC60072D00DDC5E208361798AA
:101B000018990022002326F01FF9002800D0DCE1FC
:101B1000119B013501333360169B7D60013BE41856
:101B20007360BC60072D00DD02E1083621AB336035
:101B30001B9B01359C4664447360BC607D60072D2F
:101B400000DC61E7099807993A1C04F08DFF002832
:101B500001D0FFF7DCFBBC6832AE56E7012B00D0AA
:101B600064E40D9B002B02D10C9B092B28D95B460A
:101B700032AC0893B146AB46261C0C9C0D9D201C34
:101B8000291C0A22002326F00DF9013E3032327062
:101B9000201C291C00230A2226F004F9031C041C23
:101BA0000D1C0B43EBD10C940D95341C089B5D462A
:101BB0004E469B46221C119432AB9B1A0E9369E44D
:101BC00027220C9B28A930338B546F2316AA9446E6
:101BD00032AA6344D21A0E9211935BE4149B652BD4
:101BE00000DC6EE7179818990022002326F0ACF865
:101BF000002800D10EE1664B01343360012373608D
:101C00007B68BC6001337B60072B00DDA0E20836F7
:101C10001F9B169A934203DB5B46DB0700D4F4E676
:101C2000199B33601A9B9C4673607B686444013344
:101C3000BC607B60072B00DD77E30836169B5D1EDA
:101C4000002D00DCE1E6534A7B689046102D00DC55
:101C50007AE11022211C9146099C321C464604E080
:101C60000832103D102D00DC6BE148461031013385
:101C700016605060B9607B60072BF1DD201C07996E
:101C80003A1C04F0F1FE002801D0FFF740FBB968D0
:101C90007B6832AAE5E70A9B089A9D1A002D00DCB2
:101CA00061E63C4A7B689046102D25DD1022211C00
:101CB0009146099C321C464603E0103D0832102D27
:101CC00017DD48461031013316605060B9607B6003
:101CD000072BF2DD201C07993A1C04F0C5FE0028F2
:101CE00001D0FFF714FB103DB9687B6832AA102DB4
:101CF000E7DCB0460C1C161C424664190133326006
:101D00007560BC607B60072B00DDCAE108362AE6FF
:101D100001235A46134200D0D7E673607B68119ABC
:101D200001345D1C3260BC607D60072D00DCFCE688
:101D3000099807993A1C04F097FE002801D0FFF794
:101D4000E6FABC687D6832AEF0E6099807993A1C5D
:101D500004F08AFE002800D1AEE6FFF7D8FA002B87
:101D600032D15B46DB072FD52723302128AAD15457
:101D700048332BE7099807993A1C04F075FE0028B0
:101D800001D0FFF7C4FABC6832AE2CE6A4A802006A
:101D9000F4A8020094A80200099807993A1C04F0DC
:101DA00063FE002801D0FFF7B2FABC6832AEC6E588
:101DB000099807993A1C04F057FE002801D0FFF754
:101DC000A6FABC6832AECAE500230E9332AB11937B
:101DD000FFF760FB0F20B446A94632AB191C0C9AE2
:101DE0000D9B041C109D14402C5D1E071509013924
:101DF0002E430C701C09231C341C321C1C43F0D1D4
:101E00000C920D9332AA531A66464D4611910E93C9
:101E1000FFF740FB1F9D002D00DCA5E1119B169AEA
:101E2000191C9446159B61440E91151E9D4200DDC0
:101E30001D1C002D0BDD119B641933607B687560E0
:101E40000133BC607B60072B00DDFDE20836EB430D
:101E5000DB171D40159B5D1B002D00DCA8E0DA4A56
:101E60007B689046102D00DC66E11022211C914613
:101E7000099C321C464604E00832103D102D00DC5F
:101E800057E148461031013316605060B9607B60FD
:101E9000072BF1DD201C07993A1C04F0E5FD002812
:101EA00001D0FFF734FAB9687B6832AAE5E70998F0
:101EB00007993A1C04F0D8FD002801D0FFF727FA53
:101EC00016ABDD7FBC6832AE27E5169B013B994619
:101ED000002B00DC2AE6102B00DCBCE3BA4B221CF2
:101EE0009846331C44464E4603E0103E0833102EFD
:101EF00017DD1021103201351C605960BA607D6019
:101F0000072DF2DD099807993A1C04F0ADFD002871
:101F100001D0FFF7FCF9103EBA687D6832AB102E95
:101F2000E7DCB146A0461E1C141C434633604B46FA
:101F30004C4401357360BC607D60072D00DCF4E526
:101F4000F6E6B0460C1C161C42466419013332609A
:101F50007560BC607B60072B00DC55E5F2E50F9BEC
:101F60001A6804330C9200220F930D9200230C9AEE
:101F7000FFF741FB0F9B1A6804330C9200220F936A
:101F80000D927AE40F9B1A6804330C9200220F938F
:101F90000D9201230C9AFFF72EFB099807993A1C22
:101FA00004F062FD002801D0FFF7B1F9BC6832AE41
:101FB000159A119B944663449846169A1F9B934228
:101FC00046DB5A46D20743D441460E9A521A169916
:101FD000CB1A1D1E954200DD151C002D0BDD42465F
:101FE00032607A68641901327560BC607A60072AD1
:101FF00000DD4FE20836EA43D21715405D1B002D85
:1020000000DC02E5704A7B689046102D9CDD1022B2
:10201000211C9146099C321C464603E00832103DC3
:10202000102D8EDD48461031013316605060B960C6
:102030007B60072BF2DD201C07993A1C04F014FD8D
:10204000002801D0FFF763F9B9687B6832AAE6E798
:10205000199A32601A9A944672607A68644401321E
:10206000BC607A60072A00DDFAE10836ACE709981F
:1020700007993A1C04F0F8FC002801D0FFF747F953
:10208000BC687D6832AE2DE5099807993A1C04F0CA
:10209000EBFC002801D0FFF73AF9BC687D6832AE4E
:1020A0002DE5099807993A1C04F0DEFC002801D0C0
:1020B000FFF72DF9BC6832AE55E41798189904F073
:1020C00047FC002800D0AEE0149B472B00DC50E119
:1020D0003E4B119380235A469A4316AB9346DD7FBD
:1020E000FFF75FFA5B46DB060CD45B465B0609D55F
:1020F00069460F9B898D1A680433089211800F93EB
:10210000FFF7B0F80F9A0B9913681960131C04338A
:102110000F93FFF7A7F85B460F9A5B0601D4FFF712
:10212000F0FA0021535EFFF7EEFA0B788A46FFF7CC
:10213000D2F8B0460C1C161C4246641901333260BA
:102140007560BC607B60072B00DD26E708362FE753
:10215000099807993A1C04F087FC002801D0FFF782
:10216000D6F8BC6832AE53E5194B01343360012315
:1021700073607B68BC6001337B60072B00DDFBE094
:102180000836002D06D1169B002B03D15B46DB07DA
:1021900000D43AE4199B33601A9BE21873607B68A1
:1021A000BA6001337B60072B00DD12E208366D4216
:1021B000002D00DC05E104498846102D00DC5EE1BD
:1021C000311C102446460AE094A80200C0A8020070
:1021D000F4A802000831103D102D00DC4DE1103252
:1021E00001330E604C60BA607B60072BF2DD09980A
:1021F00007993A1C04F038FC002801D0FFF787F853
:10220000BA687B6832A9E6E70A9B8A465B420A9372
:102210000F92FFF78CF84B1C9A465B4603439B4694
:102220004B78FFF758F84346013300D1B1E0202343
:10223000149A9A430E92472A00D1D8E180235A4635
:102240005B001A43189B1292002B00DAE2E1179A06
:102250009846002391461393149C662C00D1C5E048
:10226000462C00D1C2E00E9B0998453B594259418A
:102270006B181A1C0893022300931FAB029320AB28
:10228000039323AB019204934A46434601F038FE80
:102290001190672C02D0472C00D0B7E0119A089B10
:1022A000944663441C1C5B46DB0700D4CAE1002350
:1022B00048464146002225F047FD231C002809D14D
:1022C000239B9C4206D930215A1C23921970239BD0
:1022D0009C42F9D8119A9B1A16930E9B472B00D15A
:1022E00004E1149B652B00DC00E2149B662B00D1FB
:1022F0009BE11F9B1593169B159A934200DD7BE192
:102300005B46DB0700D5A9E1D343DB1713400E92F0
:10231000139A002A00D0F2E00893129B16AA9B465B
:102320000023D57F1393FFF7BDF8099807993A1C4E
:1023300004F09AFB002801D0FEF7E9FFBC6832AE3A
:102340007CE4DC4B1193FFF728F9012252429046BE
:10235000FEF7C3FF0998402103F06CFA079B186051
:102360001861002800D1BBE14023079A5361FEF7B2
:102370006BFFD14B1193ADE6099807993A1C04F015
:1023800073FB002801D0FEF7C2FF1F9DBC6832AE70
:10239000F7E62023149A06259A430E924EE7119AE7
:1023A00032AB9B1A0E93FFF775F8099807993A1C00
:1023B00004F05AFB002801D0FEF7A9FFBA687B6839
:1023C00032AE11990133316016997B6054187160F7
:1023D000BC60072B01DCFFF717FBFFF7B3FBFEF731
:1023E000E1FE021C0E90031CFFF722FA0323009368
:1023F0001FAB029320AB039323AB04930195099881
:102400004A46434601F07CFD08951190089A119BBD
:10241000944663441C1C0E9B462B00D047E7119B3F
:102420001B78302B02D01F9BE41840E748464146FA
:102430000022002325F088FC0028F4D10123089A0B
:102440009B1A1F93E41832E7099807993A1C04F085
:102450000BFB002801D0FEF75AFFBC6832AEF6E451
:10246000099807993A1C04F0FFFA002801D0FEF7FA
:102470004EFF1F9BBC6832AEA6E5B0460E1C41461F
:102480005219013331607560BA607B60072B8CDCB8
:10249000083696E7099807993A1C04F0E5FA0028EF
:1024A00001D0FEF734FF169B1F9ABC689B1A32AE10
:1024B000A1E54046062800D90620C343021CDB17CD
:1024C0001A400023139315937C4B0E9008920F949F
:1024D00000251193FEF7EBFF7B68794DFFF7CDFAEE
:1024E0002D2316AAD3772D25FFF750F81F9CE31C48
:1024F0001BDBA54219DB672315941493FBE60893B5
:10250000129B2D229B46002316A9CA772D251393D3
:10251000FEF7CAFF16ABDD7F434608930E930023F8
:102520000F9413931593FEF7BDFF149B023B149376
:102530006A4650215218127821AB013C1F949846EC
:102540001A70002C00DA90E02B2342465370092CBD
:102550007ADD16AA3B239446634499461D1C201C31
:102560000A21FEF77BFC013D30312970201C0A2135
:10257000FEF78EFB041E092CF1DC30346A1EE4B237
:1025800014704A4500D3A6E0791B4346414400E05D
:1025900014789C70013301328B42F9D116AA94460B
:1025A0002E2363449C467D1B654443461699EB1AD3
:1025B0000A1C9C4662441B930E9201296EDD0E9B01
:1025C00001331A1C0E93DB43DB17134000221592D4
:1025D0009EE6099807993A1C04F046FA002801D0B3
:1025E000FEF795FE1F9DBA687B6832AEDFE5002DD1
:1025F00000D023E6012521E6159B0120002B55DDA7
:10260000031C169A944663441A1C0E93DB43DB1793
:1026100013407DE6802212069446179B9946189B2C
:10262000634498462D23139316E61F9B1593002BA6
:1026300020DD002D15D15B46DB0712D4159A131C43
:102640000E9265E6239B45E6424630233034937074
:10265000D47022ADA9E71B4B984666E4159B013365
:10266000D2E701352B1C159ACCE72D234246644254
:1026700053706CE7002D17D15B46DB0714D40122A1
:1026800001230E9244E60F9B92461A1D1B68984642
:10269000002B19DB4B780F92FEF71DFE5B46DB0724
:1026A0008DD40E9A131C8EE7AB1CADE70130C01A17
:1026B000A6E7C046B4A80200BCA80200ECA802002D
:1026C000A4A8020094A802000F92012252424B7863
:1026D0009046FEF700FE16AB2E259C46654464E747
:1026E0000C23099A01381360FEF716FE1F9C1FE7A2
:1026F000F0B544464D465F465646F0B4C3B08146F9
:10270000884609921C1C0D9303F008F80368181CF6
:102710001993FEF747FD4B461A90002B03D09B6B95
:10272000002B00D1A6E0434680219A89890193B20B
:102730000B4209D10A43434641469A81496EBD4B3B
:102740000B4041464B6693B21A075AD5424612696E
:10275000002A56D01A2213400A2B5ED032AB2593A2
:102760000023CA46C34625AEB36073601693179321
:10277000189332AF10931B930B93099C2378002B73
:1027800000D17BE0252B02D178E0252B03D001344A
:102790002378002BF9D1099BE51A10D0099B7D60A5
:1027A0003B60B368EB18B360736801337360072B49
:1027B00048DC08370B9B9C46AC4463460B9323785C
:1027C000002B01D100F0EFFF01200023082516A9FE
:1027D0004042CB77804600210020AC467835621C11
:1027E0006378A94640240A90079008912030511C34
:1027F0001A1C203A582A00D904E38F4D9200AA5897
:1028000097464846414601F067FA002811D14346F1
:102810001A229B8913400A2BA0D143460E229B5EAD
:10282000002B9BDB48464146099A231C01F0BEF968
:1028300001E00120404243B03CBC90469946A2468C
:10284000AB46F0BD50465946321C04F0E1F9002871
:1028500009D132AFAEE750465946321C04F0D8F9E0
:10286000002800D1A5E3D84643469B895B06E0D407
:102870000B98E0E7484602F05FFC54E7099C9EE7AE
:102880000A1C0423079D1D4307950B78AFE70B78BF
:102890004A1C2A2B01D101F060F91D1C303D111C8E
:1028A0000022092D12D8131C2A1C9D00EB185B0076
:1028B0000131D3184A1E15782A1C303A092AF4D956
:1028C0001A1C2B1C002A01DA00F09EFF90468FE7AD
:1028D0004A46079B134307930B780A1C87E700229D
:1028E0001D1C131C303D9A000131D3184A1E12786A
:1028F0005B005B19151C303D092DF4D90A93131C9C
:1029000076E709910899149316ABD9771023079AA3
:102910001A430792079B9B0600D48CE107230D9A6C
:1029200007329A4301339C46944463460D9353689F
:1029300012680F930E92002B01DA00F00AFE0E9837
:102940000F9916ABDD7F4346021C139301230A4304
:102950004146002903DB8021079888430790002A1D
:1029600000D078E34246002A01D100F06CFC012B34
:1029700000D1A1E332AA022B01D100F099FC0E98FC
:102980000F9907239C464346A946B84608934F072C
:10299000C5086346CC082F43211C3C1C0340013A68
:1029A00030331370381C0C43F1D10E900F911192FB
:1029B0000899079A47464D468846D20701D400F049
:1029C000DFFC302B01D100F0DBFC119B32A9013B75
:1029D0001A1C1193302313708B1A0C930C9A131E2C
:1029E000434500DA4346089300231593002D02D097
:1029F000089B013308930223079A1A40914602D09C
:102A0000089B023308938423079A1A40129200D03D
:102A10000AE20A9B089A9C1A002C00DC04E2B268C5
:102A20007368064D102C28DD10218846391C574646
:102A30000AE0C046FFDFFFFFF8A802006CAA020010
:102A4000103C0831102C16DD4046103201330D6069
:102A50004860B2607360072BF2DD381C5946321CA7
:102A600004F0D6F8002800D0FDE6103CB268736888
:102A700032A9102CE8DCBA460F1C7C600133A41884
:102A80003D60B4607360072B01DD00F07FFC16AB86
:102A90000837DD7FC9E1072209910899149316AB25
:102AA000D9770D9B454607339343013294469C44A6
:102AB00062460D921A6817925B68179818931899D6
:102AC00003F046FF012801D000F058FD179818992F
:102AD0000022002325F03EF9002801D000F070FF0D
:102AE00016ABDD7F149B472B01DC00F089FECB4B3E
:102AF00011938023079A9A43079200F06DFE624675
:102B0000079B134307930B780A1C70E6149310235A
:102B1000079A09911A430792079B9B0600D45FE12D
:102B200007220D9B07339343013294469C4462462F
:102B30005C681B68181C211C0D92021C00230E905F
:102B40000F912243002116A8C17741460025139119
:102B5000FEE614931023079A09911A430792079BE4
:102B60009B0600D424E107220D9B073393430132D7
:102B700094469C4462465C681B68181C0D92211C9C
:102B8000021C0E900F9101232243DBE70991089963
:102B9000149316ABD977A24B1093079B9B0600D4D6
:102BA000D6E007220D9B07339343013294469C44A1
:102BB00062465C681B680E930F94079B0D92DB07BF
:102BC00000D4D8E00E9B0F9C1A1C02232243B9D0DC
:102BD00030201EA9087050246846001900784870FB
:102BE000079919430791ADE709910D990B1C04331F
:102BF0000D9300230A680F930E92079A02331A432B
:102C0000079230221EAB1A7048325A70854B1492CC
:102C100010930E9A022395E7079B0A1C0343079320
:102C20000B78E4E509910899149316ABD977079BC3
:102C30009B0600D572E6079BDB0601D400F027FD5A
:102C40000D9A136808930E930432DB170F930D92BD
:102C500071E6079B0A1C234307930B78C7E50B78A3
:102C60006C2B01D100F0E9FD1025079A2A43079249
:102C70000A1CBCE50991089916ABD977079B9B06FE
:102C800001D400F011FD0D990B9A0B681A60D21750
:102C90005A600B1C04330D936FE509910D99149341
:102CA0000B68043128AA0D911370002316A9CB7765
:102CB000013308930C93002300251393159311926D
:102CC00099E6089B002B01D000F007FD0B780A1C49
:102CD000202108918BE50123079A1A4307920B786C
:102CE0000A1C84E514930D9B09911C1D1B6816A9F1
:102CF0001A1C11930023CB77002A01D100F032FE79
:102D000043461198002B01DA00F0C4FD0021424631
:102D100003F02EF8002801D100F0ADFE119BC31A7C
:102D20001A1C0C93DB43DB171A40002316A9CD7F36
:102D300008920D941393159358E6099108991493EA
:102D400016ABD977374B1093079B9B0600D528E726
:102D5000079BDB0604D4079B5B0601D500F048FD0A
:102D60000D9B1A680E92002204330D93079B0F925D
:102D7000DB0700D526E70E980F99021C02230A43B1
:102D8000E0E60D9B1D1D1B680A93002B01DA00F085
:102D90004DFD0B780D950A1C29E50B780A1C2B219B
:102DA000089124E51493079B09919B0600D5DAE668
:102DB000079BDB0604D4079B5B0601D500F01CFDD6
:102DC0000D9B1A680E92002204330F920D930E9AF7
:102DD0000123B7E61493079B09919B0600D59FE654
:102DE000079BDB0604D4079B5B0601D500F0FCFCC7
:102DF0000D9B1A680E92002204330F920D930E9AC7
:102E000000239FE60991089916AA1493D177002B05
:102E100001D100F0C8FC28AA46E7C046B8A80200C5
:102E2000C4A80200D8A80200B468002D0FD016AACA
:102E30001F23944663443B6001237B607368013425
:102E40000133B4607360072B00DD13E208374B4693
:102E5000002B0CD01EAB3B6002237B6073680234F6
:102E60000133B4607360072B00DD0FE20837129B5B
:102E7000802B00D189E1139B0C9A9D1A002D31DD26
:102E8000CA4A73689046102D21DD10229146221CFB
:102E9000444603E0103D0837102D16DD4946103238
:102EA00001333C607960B2607360072BF2DD5046FD
:102EB0005946321C03F0ACFE002800D0D3E4103D8C
:102EC000B268736832AF102DE8DCA046141C42468D
:102ED000641901333A607D60B4607360072B00DDD4
:102EE000BCE10837079BDB0500D5F3E0119B3B6095
:102EF0000C9B9C467B60736864440133B4607360D0
:102F0000072B00DD9BE00837079B5B0744D50A9B36
:102F1000089A9B1A9846002B3EDD102B01DC00F02E
:102F200034FD1022A24D91467368221C4446A846E7
:102F3000554603E0103C0837102C17DD9C49103231
:102F40003960494601337960B2607360072BF1DD67
:102F5000281C5946321C03F05BFE002800D082E496
:102F6000103CB268736832AF102CE7DCAA464546C5
:102F7000A046141C4246444401333D607A60B4606C
:102F80007360072B08DD50465946321C03F040FEA3
:102F9000002800D067E4B468089B0A9A934200DADC
:102FA000131C0B9A94469C4463460B93002C00D050
:102FB00051E4002332AF7360FFF7DFFB169B012B58
:102FC00000DC23E1119B01343B6001237B607368CB
:102FD000B4605D1C7560072D00DD86E20837199B23
:102FE00001353B601A9B75609C4664447B60B4600D
:102FF000072D00DD86E20837179818990022002374
:1030000024F0A2FE002800D0CEE1169B119A013BCD
:103010000132E41801353A607B60B4607560072DB9
:1030200000DD03E1083721AB3B601B9B01359C466B
:1030300064447B60B4607560072D00DC63E7504634
:103040005946321C03F0E4FD002801D0FFF70BFCC9
:10305000B46832AF58E7012B00D08BE40F9B002BF4
:1030600002D10E9B092B27D9434632AC0893B846B0
:10307000A946271C0E9C0F9D201C291C0A220023F8
:1030800024F090FE013F30323A70201C291C0023AE
:103090000A2224F087FE031C041C0D1C0B43EBD1F9
:1030A0000E940F953C1C089B4746984632AB1B1B61
:1030B0004D4611940C9391E427220E9B28A930339E
:1030C0008B54483216AB9C4632AB62449B1A0C932D
:1030D000119283E4149B652B00DC6FE71798189915
:1030E0000022002324F030FE002800D1FEE0314B06
:1030F00001343B6001237B607368B460013373600B
:10310000072B00DDFBE208371F9B169A934203DB77
:10311000079BDB0700D4F7E6199B3B601A9B9C4694
:103120007B60736864440133B4607360072B00DD17
:103130008AE30837169B5D1E002D00DCE4E61B4A7F
:1031400073689046102D00DC5CE110229146221C31
:10315000444604E00837103D102D00DC50E149469C
:10316000103201333C607960B2607360072BF1DD8F
:1031700050465946321C03F04BFD002801D0FFF7A2
:1031800072FBB268736832AFE5E70A9B089A9D1A32
:10319000002D00DC6FE6054A73689046102D29DD8E
:1031A00010229146221C44460AE0C0465CAA020056
:1031B0006CAA0200F4A80200103D0837102D17DD9C
:1031C0004946103201333C607960B2607360072B6E
:1031D000F2DD50465946321C03F01AFD002801D09A
:1031E000FFF741FB103DB268736832AF102DE7DC8A
:1031F000A046141C4246641901333A607D60B460F5
:103200007360072B00DD98E1083734E60123079A45
:10321000134200D0D6E67B607368119A01345D1CBE
:103220003A60B4607560072D00DCFBE650465946F5
:10323000321C03F0EDFC002801D0FFF714FBB4684A
:10324000756832AFEFE6002B2CD1079BDB0729D541
:103250003021272328AAD1546F2233E750465946FC
:10326000321C03F0D5FC002801D0FFF7FCFAB4684B
:1032700032AF37E650465946321C03F0C9FC0028ED
:1032800001D0FFF7F0FAB46832AFE0E55046594696
:10329000321C03F0BDFC002801D0FFF7E4FAB4684B
:1032A00032AFE4E500230C9332AB1193FFF796FBAA
:1032B0000F20BC46A9460E9C0F9D031C109923406D
:1032C000CB5C2F072109013A0F4313702B091D1CFA
:1032D0003B1C3C1C2B43F0D132AB9B1A0E940F9538
:1032E00067464D4611920C93FFF778FB1F9D002D0A
:1032F00000DC10E2119B169A191C9446159B614440
:103300000C91151E9D4200DD1D1C002D0BDD119B37
:1033100064193B6073687D600133B4607360072B90
:1033200000DDECE20837EB43DB171D40159B5D1B0E
:10333000002D7DDDDB4A73689046102D00DCD2E164
:1033400010229146221C444604E00837103D102DFF
:1033500000DCC6E14946103201333C607960B2605E
:103360007360072BF1DD50465946321C03F050FCC8
:10337000002801D0FFF777FAB268736832AFE5E74B
:10338000119A32AB9B1A0C93FFF728FB5046594613
:10339000321C03F03DFC002801D0FFF764FA16ABA5
:1033A000DD7FB46832AF40E5169B013B9946002BA8
:1033B00000DC38E6102B00DCB1E0BA4B984608E0A0
:1033C000083710235B429C46E1444B46102B00DC3F
:1033D000A7E043463B601023103401357B60B460A6
:1033E0007560072DECDD50465946321C03F010FC89
:1033F000002801D0FFF737FAB468756832AFE0E70C
:10340000A046141C4246641901333A607D60B460E2
:103410007360072B00DC76E511E650465946321CF6
:1034200003F0F6FB002801D0FFF71DFAB46832AFB5
:10343000159A119B944663449846169A1F9B934293
:1034400044DB079AD20741D441460C9A521A169986
:10345000CB1A1D1E954200DD151C002D0BDD4246CA
:103460003A607268641901327D60B4607260072A44
:1034700000DD68E20837EA43D21715405D1B002DD6
:1034800000DC41E5874A73689046102DBADD1022B2
:103490009146221C444603E00837103D102DAFDD55
:1034A0004946103201333C607960B2607360072B8B
:1034B000F2DD50465946321C03F0AAFB002801D029
:1034C000FFF7D1F9B268736832AFE6E7199A3A604C
:1034D0001A9A94467A60726864440132B4607260E9
:1034E000072A00DD22E20837AEE750465946321C73
:1034F00003F08EFB002801D0FFF7B5F9B4687568BA
:1035000032AF6CE550465946321C03F081FB00286F
:1035100001D0FFF7A8F9B468756832AF6CE5614B6C
:10352000984643463B604B464C4401357B60B46053
:103530007560072D00DC75E578E650465946321C6B
:1035400003F066FB002801D0FFF78DF9B46832AFB5
:1035500091E40E990F9A00244B429441191C2D239B
:1035600016A8221CC377081C43460E910F92021C1A
:1035700013932D2501232243FFF7EAF91798189991
:1035800003F0E6F9002800D11AE14346013300D1E7
:10359000B7E22023149A9A430C92472A00D175E28D
:1035A0008023079A5B001A43189B1292002B00DAC3
:1035B0008EE2179A9846002391461393149C662C2A
:1035C00000D16EE1462C00D16BE10C9B5046453B8F
:1035D000594259416B181A1C0893022300931FABE0
:1035E000029320AB039323AB019204934A464346D4
:1035F00000F086FC1190672C02D0472C00D060E1CF
:10360000119A089B944663441C1C079BDB0700D45B
:103610008AE2002348464146002224F095FB231C01
:10362000002809D1239B9C4206D930215A1C2392A1
:103630001970239B9C42F9D8119A9B1A16930C9BE4
:10364000472B00D1A5E1149B652B00DCA4E2149B61
:10365000662B00D15BE21F9B1593169B159A934234
:1036600000DD40E2079BDB0700D56AE2D343DB17AE
:1036700013400C92139A002A00D096E10893129BF3
:1036800016AA07930023D57F1393FFF7AFF9079B83
:103690000D9A5B0601D4FFF7D4FA0021535EFFF7C1
:1036A000D2FAC0465CAA0200079BDB060CD4079B3B
:1036B0005B0609D569460D9B898D1A68043307920C
:1036C00011800D93FFF759F80D9A0B991368196043
:1036D000131C04330D93FFF750F80B780A1CFFF707
:1036E00086F8A046141C4246641901333A607D6096
:1036F000B4607360072B00DD8FE6083798E650460C
:103700005946321C03F084FA002801D0FFF7ABF8C9
:10371000B46832AFF8E4E04B01343B6001237B60D6
:103720007368B46001337360072B72DC0837002DB7
:1037300007D1169B002B04D1079BDB0701D4FFF7B1
:10374000E3FB199B3B601A9BE2187B607368B260D5
:1037500001337360072B00DDACE108376D42002DAB
:1037600000DC89E0CD4910248846102D05DCD2E02C
:103770000837103D102D00DCCDE0414610320133FA
:1037800039607C60B2607360072BF1DD50465946AA
:10379000321C03F03DFA002801D0FFF764F8B2684C
:1037A000736832AFE5E7B368D846002B01D1FFF765
:1037B0005BF850465946321C03F02AFAFFF754F8DA
:1037C000149B472B00DDEDE0B54B11938023079A46
:1037D0009A4316ABDD7F0792032308930C930023D3
:1037E00013931593FFF702F90D9B1A88FFF702FB5D
:1037F0000D9B1A88FFF7B6FA0D9B1A88FFF7E2FABD
:10380000A84B1193FFF775F9012252429046FEF73B
:10381000EFFF50465946321C03F0FAF9002801D058
:10382000FFF721F81F9DB46832AF80E70A9B0A1C9E
:103830005B420A930D95FFF724F8079B4A1C03434C
:1038400007934B78FEF7D3FF50465946321C03F0DE
:10385000DFF9002801D0FFF706F8B46832AF69E459
:1038600050465946321C03F0D3F9002801D0FEF728
:10387000FAFFB268736832AF119901333960169953
:10388000736054187960B460072B01DCFFF73BFBD1
:10389000FFF7D5FBFDF786FC021C0C90031CFFF71D
:1038A00041FA032300931FAB029320AB039323AB96
:1038B0000493019550464A46434600F021FB089583
:1038C0001190089A119B944663441C1C0C9B462B38
:1038D00000D09EE6119B1B78302B02D01F9BE41872
:1038E00097E6484641460022002324F02DFA00289E
:1038F000F4D10123089A9B1A1F93E41889E65046D5
:103900005946321C03F084F9002801D0FEF7ABFFC2
:10391000B46832AF07E541465219013339607D6022
:10392000B2607360072B9BDC0837A5E75046594609
:10393000321C03F06DF9002801D0FEF794FF1F9BA5
:10394000B46832AF80E550465946321C03F060F946
:10395000002801D0FEF787FF169B1F9AB4689B1AB8
:1039600032AF88E54046062800D90620C343021C32
:10397000DB171A400023139315934B4B0C900892BE
:103980000D9400251193FFF736F87368474DFFF744
:10399000F1FA1F9CE31C19DBA54217DB6723159482
:1039A00014935AE6424B119310E70893129B2D2271
:1039B0000793002316A9CA772D251393FFF718F84C
:1039C0002D2316AAD3772D25FFF78CF8149B023BE5
:1039D00014936A4650215218127821AB013C1F946F
:1039E00098461A70002C00DACAE02B234246537026
:1039F000092C00DC9AE016AA3B23944663449946BE
:103A00001D1C201C0A21FDF729FA013D30312970C7
:103A1000201C0A21FDF73CF9041E092CF1DC30348E
:103A20006A1EE4B214704A4500D3B0E0711B4346ED
:103A3000414400E014789C70013301328B42F9D18B
:103A400016AA94462E2363449C46751B6544434640
:103A50001699EB1A0A1C9C4662441B930C9201298E
:103A600072DD0C9B01331A1C0C93DB43DB171340F4
:103A700000221592FEE516ABDD7F434608930C93BA
:103A800000230D9413931593FEF7B0FF002D00D083
:103A900086E5012584E5C046F4A802005CAA020080
:103AA000BCA80200B4A80200ECA802006CAA0200A4
:103AB000C0A8020050465946321C03F0A9F800285D
:103AC00001D0FEF7D0FE1F9DB268736832AF45E6A5
:103AD000802212069446179B9946189B6344984689
:103AE0002D2313936AE5159B0120002B32DD031C67
:103AF000169A944663441A1C0C93DB43DB1713405D
:103B0000B8E52023149A06259A430C9248E51F9B9A
:103B10001593002B2BDD002D0FD1079BDB070CD459
:103B2000159A131C0C92A5E5239B85E5424630238C
:103B300030349370D47022AD89E701352B1C159A6F
:103B4000D7E7159B0133D6E7079BDB0789D40C9A8F
:103B5000131C8AE70130C01AC9E70D9B1D1D1B68A5
:103B60009846002B1ADB4B780D95FEF740FE002D92
:103B70000BD1079BDB0708D4012201230C9279E5C6
:103B80002D2342466442537032E7AB1CB3E716ABB9
:103B90002E259C4665445AE71F9C1AE74B78012165
:103BA00049420D958846FEF722FEC04670B5061CB8
:103BB00002201A4CA5440C1C8989814368468181E6
:103BC000616E1991E189C181E169301C0791616AD7
:103BD00009911AA9009104918021C90002910591CF
:103BE000002106916946FEF783FD051E05DB301CAA
:103BF000694601F00BFA00280CD16B469B895B06E5
:103C000003D54023A2891343A381281C8D23DB0005
:103C10009D4470BD01256D42EFE7C04698FBFFFF54
:103C200070B5061C0D1C141C002802D0836B002BE1
:103C30004AD0A289A36991B2A3600B073AD5236940
:103C4000002B37D0FF20054080208001014215D095
:103C500022686169D31A8B421BDA0133A1680139EA
:103C6000A160511C2160157062699A421AD0A38923
:103C7000281CDB0701D50A2D14D070BD0243616EEC
:103C8000A281144A0A40626661692268D31A8B4293
:103C9000E3DB301C211C01F0B9F9002817D12268A0
:103CA0000123DBE7301C211C01F0B0F900280ED104
:103CB000281CE2E7301C211C00F00EF8002806D179
:103CC000A289236991B2BDE701F036FAB1E701207C
:103CD0004042D2E7FFDFFFFF38B5324B051C1868C2
:103CE0000C1C002802D0836B002B3BD0A08983B230
:103CF0001A070DD52169002916D0DA0722D500232D
:103D0000A360636900205B42A361002922D038BD13
:103D1000DA063ED55B0728D421690822031C134329
:103D2000A3819BB20029E8D1A022802092001A40F2
:103D300080008242E1D0211C281C01F0F3FCA38901
:103D40002169DAE700229B0700D46269A2600020A3
:103D50000029DCD1A3891A06D9D540221343A381B7
:103D60000138D4E701F0E8F9C0E7216B002909D058
:103D7000231C4033994203D0281C01F039FAA08952
:103D80000023236324239843002321696360216077
:103D9000C3E709232B60402303430120A381404252
:103DA000B5E7C04640040020F0B54D4644465F46A6
:103DB0005646F0B403690C6985B000259C4200DDCD
:103DC00095E00B1C1422013C1433A6009F190293AA
:103DD0009446031C634498463B6846440391019013
:103DE000591C3068FCF7C4FEB346051E45D0029B43
:103DF000002699460020231CBC46041C2F1C484664
:103E0000351C9946464604C81104090C7943120C26
:103E10007A4369180B0C9A18336809041B041B0CAD
:103E20001C19090C631A3168150C1204090C120CC8
:103E30008A1A191452181B0414141B0C120413436D
:103E400008C68445DFD25B461B683D1C4C4667466E
:103E5000002B12D15E46043EB0450CD23368002BD5
:103E600009D1434602E03268002A03D1043E013CF6
:103E7000B342F8D39846019B1C610198039902F064
:103E80008FFA002833DB029B00209C466646A4463E
:103E90003C1C47460135396804CE0B041B0C18182E
:103EA00013041B0CC31A090C120C18148A1A1218CA
:103EB0001B0410141B0C1204134308C7B442EAD2AB
:103EC0006446A30043441A68002A10D1043B984575
:103ED0000BD21A68002A08D1424602E0196800296C
:103EE00003D1043B013C9A42F8D3019B1C61281C7E
:103EF00005B03CBC90469946A246AB46F0BDC046D4
:103F0000F0B556465F464D464446F0B4016C99B054
:103F100082461D1C161C1F1C002909D00123426C5F
:103F200093404A608B6002F023F8002352461364EA
:103F3000B846002F32DB0023259A13604246D84B47
:103F40001A409A4218D0301C391C0022002323F05A
:103F5000FBFE00282AD00123249A1360269B002B05
:103F600000D13FE2CF481860013819B03CBC904600
:103F70009946A246AB46F0BDCB4B249A1360002E67
:103F800000D10BE2C948269B002BEED0C278C31C9F
:103F9000002A00D00533269A1360E6E70123259A0C
:103FA00013606B005B0898461F1CC7E717AB0093B4
:103FB00016AB019350463B1C321C02F083FA434679
:103FC0008346180D00D1EFE13903B94C090B0C43BE
:103FD000B849321C88461699231C89460021804422
:103FE0000991101C191C0022B34B25F05BF9B34A50
:103FF000B34B24F0BDFEB34AB34B23F053FF041C74
:1040000040460D1C25F0FEFCB04AB14B24F0B0FE3A
:10401000021C0B1C201C291C23F044FF041C0D1C3B
:1040200025F0BAFC291C03900022201C002323F059
:1040300091FE002800D0CBE201230C93039B162BAA
:1040400011D8A44ADB00D31818685968321C3B1CED
:1040500023F094FE002801D100F0F9FB039B013B03
:10406000039300230C9342464B469B1A0022069270
:10407000013B049300D5B8E2039B002B00DA9EE2DB
:10408000049A9C46111C0D930023614404910A93E9
:10409000229B092B00D9A7E10124052B02DD002476
:1040A000043B2293229B032B01D100F02EFD01DC67
:1040B00000F0ACFC229B042B01D100F03FFC01235B
:1040C0000B93229B052B01D000F0A5FC039A239BA8
:1040D000944663441293013307939846002B01DC06
:1040E00000F08BFC079B1D1C9846002352460021C4
:1040F0005364172D0AD9012204335B00181C1430B5
:10410000111C01328542F8D253465964504601F0E1
:1041100007FF53461864434608900E2B00D975E1FB
:10412000002C00D172E1039810961197031E01DC58
:1041300000F042FD0F2267491340DB00CB18061147
:104140001C685D68F30601D400F0EDFC109811992D
:10415000614B16401A6A5B6A24F0CCF90323984637
:104160000E900F91002E14D00123291C9946201C7B
:104170004546594F4B46334204D03A687B68013577
:1041800024F0F6FD76100837002EF3D1A846041C63
:104190000D1C0E980F99221C2B1C24F0ABF9061C49
:1041A0000F1C0C9B002B09D0301C391C0022404BEB
:1041B00023F0D0FD002801D000F0E1FD404625F0BD
:1041C00021FC321C3B1C24F0D3FD0022434B23F086
:1041D00069FE434A0B1C944663440E900F910F9363
:1041E000079B002B01D100F065FC039B1493079BF8
:1041F00013930B9B002B01D100F02EFD139B354A2E
:10420000013BDB00D3181A685B680020354924F0B5
:1042100071F90E9A0F9B25F045F80E900F91391CFD
:10422000301C25F0B9FB051C25F0ECFB021C0B1C17
:10423000301C391C25F036F8061C0F1C089A303546
:10424000E9B21170541C88460E980F99151C3B1C3E
:10425000321C23F093FD002801D000F0CDFD321C6C
:104260003B1C0020124925F01DF8021C0B1C0E9867
:104270000F9923F083FD002801D000F002FE139B6C
:10428000012B01DC00F089FCAC46634499465B4697
:1042900013935346A2460E9C0F9D159336E0C046DD
:1042A0000000F07FF5A802000F27000088AA020096
:1042B0000000F03F01FCFFFF0000F83F61436F6327
:1042C000A787D23FB3C8608B288AC63FFB799F502F
:1042D0001344D33F98AA020070AB020000001C40B8
:1042E0000000C0FC0000E03F321C3B1C0020C24923
:1042F00024F0D8FF221C2B1C23F02CFD002801D019
:1043000000F093FDCA4501D100F043FC201C291C9C
:104310000022BA4B24F02CFD0022B84B041C0D1CCB
:10432000301C391C24F024FD0F1C061C25F034FB26
:10433000804625F067FB021C0B1C301C391C24F046
:10434000B1FF01239C4643463033DBB2984601233C
:104350004246E2445B4253441A709B46221C2B1C8B
:10436000061C0F1C23F0F6FC0028BDD0139B5446FE
:104370009B46159B9A46149B03935046594601F061
:10438000F7FD00232370039B249A01331360269BBF
:10439000002B00D137E31C600898E6E543461B0379
:1043A00000D0EFE59648EEE5169B9946179B4B44E7
:1043B0001C1E944B9C4200DA44E24246924B1B1B6B
:1043C0009A40131C914AA018321CC240101C18437A
:1043D00025F054FB8E4D021C4B19611E88460121AD
:1043E0000991FEE58B48C0E50023524650465364D0
:1043F000002101F095FD5346186401230B9300231F
:1044000022932393013B089007931293179B002B51
:1044100000DAAFE0039A0E2A00DDABE0D3007E4A5B
:10442000D3185C681B6804930594239B002B00DA67
:104430008FE2341C3D1C301C391C049E059F321C2D
:104440003B1C24F057F825F0A7FA804625F0DAFA4D
:10445000321C3B1C24F08CFC021C0B1C201C291C55
:10446000454624F01FFF089E3035341C3570079DEB
:10447000021C0B1C0134012D4ED000225F4B24F096
:1044800077FC00220023061C0F1C23F05DFC002893
:1044900000D072E7089B079A9D1C9C465B460693DA
:1044A00053466244AA46049C059D914607930FE03B
:1044B0000022524B24F05CFC01239C460022002386
:1044C000061C0F1CE24423F03FFC002800D0D9E278
:1044D000221C2B1C301C391C24F00CF825F05CFA33
:1044E000804625F08FFA221C2B1C24F041FC021C74
:1044F0000B1C301C391C5646474624F0D3FE013EA7
:104500003037021C0B1CD3463770CA45D0D10699F0
:1045100054468B4607998A46101C191C23F0C2FC8E
:10452000061C0F1C04980599321C3B1C23F012FC3E
:1045300000280CD104980599321C3B1C23F004FC84
:10454000002800D119E74346DB0700D415E7651EB4
:104550002B78089906E0A94200D15AE3023C23785F
:104560002C1C013D2A1C392BF5D01D1C0135EBB24A
:10457000137002E70B9A002A50D0229A012A00DC1D
:1045800022E2079B5C1E0A9BA34200DAC1E21C1BCD
:10459000079B002B00DAD5E3069B0993079B069A3D
:1045A000504694469C4462460692049A01219446E1
:1045B0009C446346049301F077FD814633E0069AFC
:1045C000039BD21A5B420A93002306920D935FE588
:1045D000039825F017FA221C2B1C23F0B5FB43424D
:1045E0004341039AD31A039326E5049B5B42069347
:1045F0000023049340E5C0460000F03F0000244043
:104600007CAA0200EFFBFFFF0EFCFFFF120400007C
:10461000000010FEF4A8020098AA0200069B0A9C63
:10462000099300239946099A002A0ED004990B1E7B
:104630000BDD914200DD7FE1069AD21A0692099ABB
:10464000D21A0992049AD31A04930A9B002B1ADDFA
:104650000B9B002B00D151E2002C10DD4946221C9F
:10466000504601F0D9FD81465A464946504601F070
:1046700025FD051C5946504601F07AFCAB460A9BC5
:104680001A1B00D086E15046012101F00DFD0D9B63
:104690008046002B15DD41461A1C504601F0BCFD3A
:1046A000229B8046012B00DC7AE1002443461B69F3
:1046B00003339B004344586801F0AAFC2023181AD6
:1046C00008E0229B0024012B00DCD0E10D9B01209F
:1046D000002BEBD1049B9C461F236044184000D163
:1046E000AEE001331B1A042B00DCD1E31C23181AA3
:1046F000069B9C46844463460693099B9C468444DF
:1047000063460993049B9C46844463460493069B3A
:10471000002B05DD594650461A1C01F0DBFD83468F
:10472000049B002B05DD414650461A1C01F0D2FDCA
:1047300080460C9B002B00D08DE0079B002B00DCFB
:104740007AE10B9B002B00D1A3E0099B002B05DD38
:10475000494650461A1C01F0BDFD81464B460B935D
:10476000002C00D05FE2079C089A013C231C944671
:10477000634409934346012406930B9B34404D4602
:104780005E4690469946D3460794069F301C391CD6
:10479000FFF70AFB031C0A903033291C301C0493DA
:1047A00001F0FEFD391C041C4A46584601F014FE77
:1047B000C368071C002B00D017E1301C391C01F026
:1047C000EFFD82465846391C01F0D2FB5346229A2F
:1047D000134303D1079B002B00D111E3002C00DA17
:1047E000A9E1229B1C4303D1079B002B00D1A2E12E
:1047F0005346002B00DD8AE26A464346127C5F1C6A
:104800001A70099B3C1C984500D192E2311C0A2287
:104810000023584601F0B6FB291C061C0A22584604
:1048200000234D4500D1DAE001F0ACFB4946051C00
:104830000A225846002301F0A5FBB8468146A4E7AA
:104840001C2055E7301CD64B1B1B9840C0E50023AD
:104850000C93FFF708FC5846414601F0A1FD0028E3
:1048600000DB6AE7039B5946013B03935046002354
:104870000A2201F087FB0B9B8346002B00D0E7E266
:10488000129B002B04DC229B022B00DDF2E2129B28
:104890000793089B47460024079E5D46984606E01E
:1048A000291C50460A22002301F06CFB051C281C21
:1048B000391CFFF779FA4346303018550134B442B9
:1048C000EEDB079C061CAB46B846002C00DC3FE242
:1048D000089B00279C46644459465046012201F03B
:1048E000F9FC4146834601F05BFD002800DC45E110
:1048F000651E2B78089A06E0AA4200D1BBE0023C74
:1049000023782C1C013D392BF6D001332B705046F7
:10491000414601F02DFB4B46002B00D12DE5002F29
:1049200005D04F4503D05046391C01F021FB5046BD
:10493000494601F01DFB20E5131C7DE601230B9386
:10494000239B002B54DD1D1C984612930793FFF701
:10495000CCFB079B002B00DD6BE500D0CAE0049880
:10496000059900228F4B24F003FA3B1C321C23F0E4
:104970000FFA002398469946002870D0239B089C84
:10498000DB4303935046414601F0F2FA4B46002BBD
:10499000CDD1F2E45946504601F03EFC834672E622
:1049A000002E00D081E63B030024002B00D08DE6D2
:1049B0007D4B3B4200D189E6069B013401330693CF
:1049C000049B0133049381E6099A002A00D1C1E1D6
:1049D000764A0A9C9446069A63440992DFE501F000
:1049E000D1FAB846051C8146CFE601239A46E9E68E
:1049F00001239846129307932393002352460021E4
:104A00005364FFF783FB0898FFF7AFFA00230B937B
:104A1000229B022B94D00024534650465C64211CF8
:104A200001F07EFA5346186401230B93023B089071
:104A3000239407931293E9E4229B022B00DC80E687
:104A4000079B002B9AD141465046052201F09AFA65
:104A500080465846414601F0A3FC00288EDD3123F4
:104A6000089A1370039B541C013303938AE7002EAA
:104A700000D02BE697E7039B089A01330393312379
:104A8000137044E7069B5C469B46079B9A4674E47A
:104A9000404624F0B7FF321C3B1C24F069F9002289
:104AA000434B23F0FFF9434A0B1C944663440E909A
:104AB0000F910F93301C391C00223A4B24F0F2FB6B
:104AC0000E9E0F9F321C3B1C041C0D1C23F056F93C
:104AD000002800D0BCE0201C291C0E9C0F9D221C2D
:104AE0002C1C80252D06AC466444231C23F032F98F
:104AF000002852D00023984699463FE75946504631
:104B00000A9A01F089FB8346BDE500230B93FFF76A
:104B1000DDFA0A9B0A94E21A0D9B00249C469444F9
:104B200063460D9334E5109A119B0E920F93022366
:104B30009846FFF717FB4B4652460B93DA46069B07
:104B4000B346049EA946371C45469846002A0FDD09
:104B500059465046012201F0BDFB4146834601F013
:104B60001FFC002800DC6CE1392E00D1FFE0771C2F
:104B70000B9B2F706C1C4F469946C8E6002803D14A
:104B8000F30701D5B4E61C1C631E1A78302AFAD04C
:104B9000BDE6139B9B46159B9A46109E119F35E4DC
:104BA000EEFBFFFF000014400000F07F3304000024
:104BB00000001C400000C0FC039B5C42002C00D1A4
:104BC000CFE0109811990F23B44A2340DB00D3188B
:104BD0001A685B6824F0CCF82411061C0F1C002C0A
:104BE00000D14AE102239846013B99464746AC4D25
:104BF0004B46234204D02A686B68013724F0B8F88A
:104C000064100835002CF3D1B846061C0F1CFFF7C2
:104C1000C8FA039B089A01330393302313700133BE
:104C20001370FFF7AAFB5968504601F079F94B461B
:104C30004946041C1B690C319A1C92000C30FCF78D
:104C400019F95046211C012201F044FB0B908AE522
:104C500000239846994602E7139B904A591ECB00C1
:104C6000D3181591186859680E9A0F9B24F080F894
:104C70000E900F91391C301C24F08EFE051C24F080
:104C8000C1FE021C0B1C301C391C24F00BFB139BB7
:104C90000F1C08991A1C8C4630356244061C4C1CAB
:104CA0000D709146012B1ED0A046301C391C0022ED
:104CB0007C4B24F05DF80F1C061C24F06DFE051CD7
:104CC00024F0A0FE3035021C0B1C301C391C24F0D3
:104CD000E9FA257001344C45E9D1159B44469C46C0
:104CE000061C0F1C644400220E980F996E4B23F093
:104CF000D9F8321C3B1C23F02DF800286AD0651E21
:104D00002B7808999846149B039343462AE44B4614
:104D1000DA460B93B346069B049EA9464546984641
:104D2000392E24D001362E700B9B4F466C1C9946B1
:104D3000EDE54B46069ADA469046B3462F1C049E94
:104D40009946C9E5069B079A9B1A0993002326E416
:104D50000124BDE53623169A0A9C9B1A069A0992ED
:104D60001DE40223109E119F9846FFF71AFA0B9B31
:104D70004F46994639236C1C2B70089AC3E5079B54
:104D8000002B00D184E6129C002C00DC05E7039B7D
:104D90000022013B1493301C424B391C23F0E8FFE6
:104DA000061C404601300F1C24F02CFE021C0B1C7C
:104DB000301C391C23F0DCFF00223C4B23F072F83E
:104DC0003B4A0B1C944663440E900F9113940F932F
:104DD000FFF70FFA0E9A0F9B0020334924F062FA76
:104DE000321C3B1C22F0CAFF002801D1D5E61C1C56
:104DF000631E1A78302AFAD0149B0393FFF7BDFA8A
:104E00004B46DA460B93B346069B049EA94645469D
:104E10009846392EABD0002C01DD0A9E31362E701B
:104E20000B9B4F466C1C994671E5159B54469A4660
:104E3000139B5D469B46149B089903934346FFF7DB
:104E400091FB002800D093E6F30700D490E68BE6B0
:104E50004946002350460A2201F094F8129B8146ED
:104E6000002B01DD079370E4229B022B02DC129BD6
:104E700007936AE4129B0793E2E502239846FFF743
:104E800090F9149B089903930D1C4346FFF76AFBA6
:104E9000042B00D13BE43C23181A29E498AA020011
:104EA00070AB0200000024400000E03F00001C4006
:104EB0000000C0FCF0B5474680B48B8980469AB2AA
:104EC0000C1C11073DD48022120113436268A38198
:104ED000002A62DDA56A002D2FD0424641461668A1
:104EE00000229BB20A60DA045BD5226D5B0706D50F
:104EF0006368D21A236B002B01D0E36BD21A002314
:104F00004046E169A847431C56D0A2893E4B134056
:104F1000002262602269A3812260DB043BD4434605
:104F2000216B1E60002908D0231C4033994202D017
:104F3000404600F05DF900232363002004BC904646
:104F4000F0BD2669002EF8D0236826609D1B002343
:104F5000920700D16369A360002D04DCEDE73618E9
:104F60002D1A002DE9DD4046E169321C2B1C676AD1
:104F7000B8470028F3DC40230120A28940421343B4
:104F8000A381DBE7A189204A636023690A40A281EB
:104F90002360D304C3D52065C1E7E26B002A99DC06
:104FA000CBE700224046E1690123A847021C431CCD
:104FB00018D0A389A56A99E743461B68002BE1D066
:104FC0001D2B06D0162B04D04023A2891343A381A6
:104FD000B4E7A2890C4B1340A381002363602369CB
:104FE00023609CE743461B68002BE2D01D2B06D0B4
:104FF000162B04D04023A1890B43A3819EE743468F
:1050000000201E609AE7C046FFF7FFFF38B5041C7A
:105010000D1C002802D0836B002B09D00C22AB5E44
:105020000020002B03D0201C291CFFF743FF38BDB4
:1050300000F082F8F2E7C04608B5024900F03CFBF8
:1050400008BDC046D16C0000F8B55F4656464D46D7
:105050004446344BF0B4C363B823002403229B00BE
:10506000C45004334568C2500833C218043BC250D0
:10507000061C0423281C2C606C60AC60AB816C6641
:10508000EC812C616C61AC61002108225C3000F085
:10509000FDFE254B254F9A462B62254BEF62994624
:1050A0006B62244BED61AB62B56898460923281CFE
:1050B000AB81083B2C606C60AC606C66EB812C6152
:1050C0006C61AC61002108225C309B4600F0DEFE82
:1050D00053462B624B466B624346EF62AB62ED6117
:1050E000F5681223281CAB81103BEB812C606C60AF
:1050F000AC606C662C616C61AC61002108225C3094
:1051000000F0C4FE53462B624B466B624346AB62D3
:105110005B46EF62ED61B3633CBC90469946A246A4
:10512000AB46F8BD39500000D16900005D6A00004F
:10513000F9690000316A000008B5836B002B01D1CA
:10514000FFF782FF08BDC0467047C0467047C046A3
:10515000F8B50C1C061C00F0DFFE204FBB685D6834
:1051600003239D431E4B2C1B9C466444240B1D4B68
:10517000013C24039C4207DD301C002101F016FC99
:10518000BB685B19984204D0301C00F0C7FE0020B9
:10519000F8BD6142301C01F009FC431C0DD0012315
:1051A0002D1BBA681D43104B55601A68301C141B28
:1051B0001C6000F0B3FE0120EAE7301C002101F082
:1051C000F5FBBB68C21A0F2ADEDD08490968401AE0
:1051D0000549086001210A435A60D5E7A004002070
:1051E000EF0F0000FF0F00009C0D0020AC08002016
:1051F000F0B5474680B4002949D00C1C051C00F0CE
:105200008BFE211C08394F6801233C1C9C430A1962
:105210005068984602339843031C5B488668964260
:1052200052D0464653603E420BD10826B4460F6822
:105230008444C91BE4198F6867455ED0CE68FE6060
:10524000B7600127D61876683E4208D1E4184F4E61
:105250009368B34200D173E0D268DA6093604C4B3C
:1052600027434F600C519C4214D8E408FF3BA21026
:10527000FF3B93404268E400134343600019836896
:10528000C8608B608160D960281C00F047FE04BCB8
:105290009046F0BD630A042B43D8A30938331A1C87
:1052A0005E00B6008619B3680327B3423FD05A6840
:1052B000BA43A24202D99B689E42F8D1DA68CA601A
:1052C0008B609160D960DFE71C1943463B4206D1F1
:1052D0000B68C91A8A68E418CB68D3609A60012207
:1052E0002C4B22431B684A6081609C42CCD32A4BE2
:1052F000281C1968FFF72CFFC6E74646D0184068FF
:10530000304209D14646E418D36892682643D360F8
:105310009A604E600C51B7E7464626434E600C51EA
:10532000B2E7142B14D85B331A1C5E00B9E70124D2
:1053300092109440221C4468224342601A1CBEE72B
:105340002743D9609960CB608B604F600C519BE71D
:10535000542B04D8230B6E331A1C5E00A1E7AA223B
:105360005200934204D8E30B77331A1C5E0098E78F
:105370000A4A934204D8A30C7C331A1C5E0090E7BF
:10538000FC267E228DE7C046A0040020A804002051
:10539000FF010000A8080020980D0020540500001F
:1053A000F0B55F4656464D464446F0B4936885B026
:1053B000002B27D002908B8993460C1C1A0729D505
:1053C0000A69002A26D05A46126892469A072ED5B4
:1053D000B64B002600259846002D6BD0E1692B1EA8
:1053E000434500D9B14B0298321C676AB847002880
:1053F00000DC77E05B469B6836182D1A181A5B466E
:105400009860E9D1002005B03CBC90469946A24680
:10541000AB46F0BD0298211CFEF75EFC002800D0D0
:105420003BE15A46A389126892469A07D0D4DA071C
:105430005FD50023002799461D1C0193002F2ED015
:10544000019B002B00D1C3E02E1EBE4200D93E1CA2
:1054500020682169B046A2686369884204D9D218DD
:105460000392964200DDF1E09E4200DA94E0029859
:10547000E1694A46666AB0478046002832DD434605
:10548000ED1A00D197E04346FF1A5B4642469B68FF
:10549000C1449B1A5A469360B4D0002FD0D15346D2
:1054A0001B68994653465F6808239C460023E244E4
:1054B0000193C3E753461E685D6808239C46E24497
:1054C0008AE77B4B281E984200D9181C311CFBF739
:1054D000DFFB031CE169734302983A1C666AB0471C
:1054E000002825DCA289402301201343A3814042E8
:1054F00089E700270025002D26D0A268904680224B
:105500009200134227D0464645455DD39022D200F3
:1055100013426AD12068321C391C00F06BFC4246F1
:10552000A368281C9B1AA36023689C4666442660D7
:105530005B469B683F182D1A181A5B46986000D18D
:1055400060E7A389002DD8D1524617685568082214
:105550009446E244CFE720682369984202D86669FE
:10556000B542AED22E1E464500D94646321C391CE5
:1055700000F040FCA36822689B1B9219A360226084
:10558000002B01D0301CD3E70298211CFFF73EFD11
:105590000028A7D1301CCBE7321C494600F02AFC7A
:1055A000A3689B1BA36023689C4643466644266011
:1055B000ED1A00D067E70298211CFFF727FD0028AD
:1055C00090D1002301935EE7A84620682E1CA2E735
:1055D00048460A213A1C00F0CBFB002859D04B4624
:1055E0000130C51A012301932EE721692268521A5E
:1055F00091464846626901305600B218D60FB61877
:1056000076104019321E824201D2061C021C0298FA
:105610005B052DD5111C00F00DF98046031E3FD00F
:105620004A462169FBF726FCA289224B13408022BF
:105630001343A3814346404623614B464844666179
:10564000F61AA6602060A8462E1C64E7161C494680
:1056500000F0D0FBB4462368029863442360211C09
:10566000FFF7D4FC002800D03CE7039B984606E7F0
:1056700000F086FF80460028DCD1029D2169281CAD
:10568000FFF7B6FD8022A38993431A1C0C232B60DD
:1056900029E701237D1C0193D6E601204042B2E6B2
:1056A000029A0C331360A2891DE7C04600FCFF7FFD
:1056B000FFFFFF7F7FFBFFFFF8B5B8234F4646464D
:1056C0009B00C0B4C718002F1CD089468046002616
:1056D0007B68BC685D1E0DD4A389012B07D90E22FF
:1056E000A35E013303D04046211CC84706436834FB
:1056F000013DF1D23F68002FEAD1301C0CBC90462E
:105700009946F8BD0026F8E7004870477C04002061
:10571000014B18687047C0469C0400200048704741
:1057200044040020F0B5474680B48B8990B09AB20B
:10573000940741D40C1C051C0E20095E00291CDBBB
:10574000281C01AA01F072FB002814DBF023029A46
:105750001B0213402F4A9F187942794180228846C4
:105760001202934232D080228026A3891201134371
:10577000A381F6000AE0A3899AB24026120622D538
:10578000802212011343A38100239846281C311C58
:1057900000F050F8002830D01F4BEB638023A28923
:1057A00020601343A381434620616661002B18D11A
:1057B00010B004BC9046F0BD0B1C43330B600B6172
:1057C00001234B61F4E78026F600D9E7134BA26A68
:1057D0009A42C8D18026A389F6003343A381E664A8
:1057E000D4E70E23E15E281C01F034FB0028DFD053
:1057F0000123A2891343A381DAE7A3899A05D7D4A9
:1058000002221343A381231C43332360236101231A
:105810006361CDE700E0FFFF39500000316A00000E
:1058200008B5034B011C186800F004F808BDC04619
:1058300040040020F0B55F464D4656464446F0B45D
:105840000D1C0B3583B0071C162D2DD907239D4346
:1058500000D5C7E0A94200D9C4E000F05DFBF82301
:10586000FF339D4228D8E908CB4ECB00F318DC6803
:105870009C4200D1C1E1032362689A43131CE26891
:10588000A168CA6091600122E3185968381C0A4374
:105890005A6000F043FB201C083003B03CBC90462B
:1058A0009946A246AB46F0BD102900D99AE0381CB3
:1058B00000F032FB1025D6E7690A00D196E00429F2
:1058C00000D93CE138239C46A9098C446346590021
:1058D000B14E89007118CC68A14215D003236268CB
:1058E0009A43131C521B0F2A00DD83E00320002A79
:1058F00007DBC4E7636883435A1B0F2A7ADC002A5C
:10590000BDDAE468A142F5D1614601310091321C53
:1059100034690832944200D161E1032361689943FC
:105920000B1C481B0F2800DD48E172613261002822
:10593000A9DA9A4A914200D90DE10123C8088210E0
:10594000934072681A43C300F3189868E360A0603C
:105950009C60131C7260C4600120009A92109040F9
:1059600098424CD818420DD103220099400091432F
:105970000A1D0092184205D1009A4000043200929C
:105980001842F9D003239846009AD3009946B144AF
:10599000CC4692466346DC68A44507D121E1002A43
:1059A00000DB33E1E468A44500D11AE142466368B4
:1059B00093435A1B0F2AF2DD012163190D436560E1
:1059C000E068A5680836E86011438560F360B3605D
:1059D000381CDE609E6059609A5000F09FFA201CCF
:1059E00008305AE70C2300203B6056E73F237E2116
:1059F0009C466DE701235B429846C44484E7032339
:105A0000B46862689A439046954203D8521B0F2AA5
:105A100000DD86E0231C4344614A0193614B9346B9
:105A20001B681268EB18013200D15CE15E4A9446B3
:105A300063441B0B1B030093381C009900F0B6FF56
:105A4000031C8146013360D0019B834200D9F8E0FA
:105A5000564B009A9A461B689C46534662441A600D
:105A6000019B4B4500D14CE15B461B68013300D1E3
:105A70005EE14B4601995B1AD21853461A60072320
:105A80004A46134000D113E108218946D21A9144B5
:105A9000474AD21A009B381C4B441B051B0DD31AD6
:105AA000191C9B4600F082FF431C00D134E14B4699
:105AB000C01A01235844184353461B685B441A1C00
:105AC00053461A604B46B3605860B44213D0434605
:105AD0000F2B00D8F7E04346072160680C3B8B434F
