:10000000186F0020858A0000818A0000598B00004B
:1000100000000000000000000000000000000000E0
:10002000000000000000000000000000818A0000C5
:100030000000000000000000818A0000818A0000AA
:10004000818A0000818A0000818A0000818A000084
:10005000ED450100818A0000818A0000818A00004C
:10006000818A0000153A0100253A0100353A010065
:10007000453A0100553A0100653A0100818A0000C5
:10008000818A0000818A00005D4401006D44010006
:100090007D440100818A0000818A0000818A00007D
:1000A000818A0000818A0000818A0000818A000024
:1000B00010B5041C0388002B02D03E2B0CD00FE09F
:1000C000094B9847094B9847094B9847094B984764
:1000D000094B9B69012098473E232380012002E0C1
:1000E00000230380032010BD116E00005D6F00002F
:1000F000F5740000E151000088BB010010B5041C3C
:100100000388132B09D0212B23D0002B39D11F4872
:1001100040211F4B9847132323801C481D4B9847B1
:100120000023002830D019481B4B984700221B4B56
:100130001A701B4B9847002806D10120194B98478D
:100140000122194B1A7002E00022174B1A7021236A
:1001500023800E480F4B98470023002814D00B48EB
:100160000D4B98470D4B1B78002B02D004200F4BF2
:1001700098470D4B1B78002BCDD001200B4B984797
:10018000C9E7002303800323181C10BD540B002073
:10019000C9A1000011A20000E1A10000650B002030
:1001A000797A0000C5920000640B0020E192000003
:1001B00030B583B00D1C6C460634211C024B9847A9
:1001C00023882B7003B030BD618E000008B5014B51
:1001D000984708BD398E0000F0B54F464646C0B47A
:1001E00091B0BE4B98478023DB0500930023019319
:1001F000FF226846028100228372C37201212420FB
:100200006C46215425202154262163542721635410
:100210000A932C2163542D21635405932382E376A2
:100220002276227762761323A3766277E1235B023C
:10023000089380235B030393A94B0C93A94B0D9365
:1002400001235B420E930F93A74CA84B1C60A84A56
:10025000A84B1A60A84AA94B1A60201CA8496A46F4
:10026000A84B9847A84E336898680021A74DA84727
:10027000336858680021A8472368DA69002AFCD14E
:10028000196802220A431A60974B1B68DA69002A30
:10029000FCD15968802252020A435A600124924BD1
:1002A000DC719B4B984707209A4B98479A4B1C70E0
:1002B000BFF35F8F62B6994B1A6904218A431A61B2
:1002C0000022974B5A70974B9847974B9847974BFC
:1002D0009847974B9847974B9847974B9847974B1A
:1002E000984797480021974B9847974B98479748CE
:1002F000974DA8479748A8479748984B9847984BD9
:100300001C789848A847610602D59748934B9847B0
:10031000A20602D59548914B9847E30602D594482A
:100320008E4B9847600702D592488C4B9847A1079F
:1003300002D59148894B9847E20700D4B9E18F482C
:10034000864B9847B5E121784846C0470134AC4216
:10035000F9D1C8E121784046B8470134AC42F9D11F
:100360006B46D97986487A4DA847864C2088864BBB
:100370009847864B98471920854B9847854B984757
:10038000011C8548A847854B9847854800216D4B3F
:100390009847844B9847844B9847844B18600122B8
:1003A000834B1A702188002903D08248684B9847F4
:1003B00002E08148694B98478048311C0822804BF5
:1003C0009847804B9847804B1D68DC69A047802286
:1003D000002805D0A047011C80207C4B9847021CB8
:1003E0007B48291C19235A4CA0477A480021554BB9
:1003F00098477948A04701204042784B9847051C10
:10040000041C072676488046514FA178E278404682
:10041000B847013E0234002EF7D1297C6A7C71482E
:100420004B4CA047FC2369460B8000234B80684659
:100430008B80CB800B814B818B81CB815F496A4B59
:100440009847684600210022684B98476848A047B3
:100450006C466F460E37624E3D4D21786278301CF7
:10046000A8470234BC42F8D16B46997BDA7B5D48E1
:10047000374CA0475F48A0475F4B1B68002B0AD052
:100480005E4C5F4E324D5968301CA8470434231F20
:100490001B68002BF7D11C4B186882689368013BDE
:1004A0009360002B00DBAFE08268946891698C4216
:1004B00010DB13680A221A70134B186882681368DD
:1004C00019780A2902D001331360A7E00A214D4BA5
:1004D0009847A3E00A214B4B98479FE05D8B0000B3
:1004E0000300040003000500680B0020CC4300203B
:1004F000CD010000C8430020B1010000C44300202A
:1005000000080042818B00005004002035090000E3
:10051000A5920000C5920000C409002000ED00E093
:100520000004004099930000ED860000DD9000007B
:100530001DA300002D9D0000298F0000799E000062
:10054000EC090020CD9F000045930000D8970100E2
:10055000A1080000E4970100F497010021090000C0
:10056000380400402C980100409801005898010080
:10057000689801007898010094980100B0980100F3
:1005800020990100F61B0020B1A4000085A5000001
:100590000D980000F9970000C4980100499C0000E4
:1005A000DC09002021A400004D9000002845002017
:1005B0001C450020D8980100E8980100C44500209F
:1005C0001D080000B9AC000088BB010059070000FD
:1005D000FC980100C00A002008990100B1DF00006A
:1005E000109901001C9901007DE1000045E0000028
:1005F0002899010048990100B0970100B4970100C3
:1006000054990100DD20000083681B680A221A70DB
:100610003A4B1B689B681A6801321A603848394B9C
:1006200098470720384B98473848394B9847394BFB
:100630009847394D394C3A4EA847A0470028FBDC73
:10064000B047384B1B78002B0DD0374F3A68904697
:10065000364B9847364B1B684146CB1A1818386002
:100660000022304B1A70314B9847314B58600122B1
:100670002C4B5A70BFF34F8F30BF264B9847294BF6
:100680005B78002B0DD0284F7A689046274B98470F
:10069000274B5B684146CB1A181878600022214B23
:1006A0005A70224B9847224B186001221D4B1A703A
:1006B000C2E7204B9847061C00230093019368462D
:1006C000311C08221C4B984768461C4B98471C4815
:1006D0001C4B98476F466D4607356C461A4A914643
:1006E000184B98462FE66C46E1791848154B984709
:1006F0003C1C17488046134F2CE6C046500400208F
:100700005899010021090000E1920000B097010012
:100710008DA400005D8F00009D8F0000A99E000049
:100720007D8F00001C450020E84400204D90000013
:1007300028450020299900001D08000045220100DD
:100740007C990100A1080000C09801009099010067
:10075000149901007047C046002941D010B4041C10
:100760004C40A44601230022002900D5494200281C
:1007700000D5404288422CD301242407A14204D250
:10078000814202D209011B01F8E7E400A14204D230
:10079000814202D249005B00F8E7884201D3401A47
:1007A0001A434C08A04202D3001B5C0822438C0869
:1007B000A04202D3001B9C082243CC08A04202D3D3
:1007C000001BDC082243002803D01B0901D00909C3
:1007D000E3E7101C6446002C00D5404210BC704773
:1007E000002806D003DB0020C043400801E0802041
:1007F000000607B4024802A14018029003BDC0469B
:10080000190000000029EBD003B5FFF7A7FF0EBCCD
:100810004243891A1847C0467047C046F0B50F2AB0
:1008200035D9031C0B439C0735D1161C103E3609E5
:100830003501451910350C1C031C27681F606768BB
:100840005F60A7689F60E7681034DF601033AB42D9
:10085000F3D1731C1B01C518C9180F231340032BB8
:100860001BD91C1FA4080134A4000023CE58EE504D
:100870000433A342FAD1ED18C91803231A4005D056
:100880000023CC5CEC5401339342FAD1F0BD051C3B
:10089000002AF5D1FAE7051CF2E71A1CF8E7C04672
:1008A0000FB400B583B004AB04CB054A01931068C4
:1008B000049A816800F0D0F803B008BC04B018476F
:1008C0005004002030B5041C89B0081C0D1C00F039
:1008D000BBF8114A04ABA1680692019301220223DE
:1008E0000792029380228B89059092010130049532
:1008F0000390134205D113438B814A6E074B13407B
:100900004B66201C01AA02F059FF431E9841404249
:100910000A23184309B030BD50BC0100FFDFFFFFC0
:1009200008B5034B011C1868FFF7CCFF08BDC04693
:100930005004002008B54A424A4180235200DB009F
:1009400000F002F808BDC046F0B5474680B41F1C51
:100950003B4B041C1D688846161C002D02D0AB6B57
:10096000002B48D0022E59D8002F57DB281C211C01
:1009700002F06CFDA28900236360A361130623D4F7
:1009800083239A43A281022E28D04346002B36D0DF
:10099000012E13D02B4B92B2EB63434623602361AD
:1009A00067610020130706D503231A4053425A41BA
:1009B00052421740A76004BC9046F0BD01231A4381
:1009C0007B42A281A361E5E7281C216902F02EFE8B
:1009D000A28983239A43A281022ED6D1002002232A
:1009E0001A430023A360231C4333236023610123A4
:1009F000A2816361DFE7281C02F046FDB2E7002F09
:100A000001D18027FF00381C03F004F9804600283C
:100A100007D0A28980231A43A281B9E7012040426E
:100A2000C9E78020C00003F0F5F88046002803D114
:100A30000120A2894042D2E78027FF00E9E7C046B3
:100A400050040020793400000023C25C0133002AE6
:100A5000FBD1581E7047C046F0B5444656465F4627
:100A60004D46F0B4C5B080468A460A921C1C1193CC
:100A700003F05CF800681790FFF7E6FF1A90404615
:100A8000002803D0816B002900D1ADE053469A893C
:100A9000802193B289010B4207D15546686EBC4B49
:100AA0000A4303406B66AA8193B2190770D5524678
:100AB0001269002A6CD01A2213400A2B74D034AC6D
:100AC000079427940024002527AF002319941D9430
:100AD00012944446BB607B6018951B9534AE1C9500
:100AE0000894D3460A9D2B78002B00D17FE0252B5C
:100AF00000D17CE02C1C01E0252B3CD00134237874
:100B0000002BF9D10A98251A002D0ED0B8680A9A40
:100B10002B18BB607B683260013375607B60072BEC
:100B200057DC08361299491912912378002B01D10C
:100B300001F037F8651C7F2001210A9500236844E5
:100B400049420025402203700B91637809950024E7
:100B50001021914608250A9A1094002020248A46E4
:100B6000AC460132191C2039582900D9C1E2894DFF
:100B7000890069588F460A99651AC5E7109D119139
:100B80006D421095099D04231D4309951378E8E7EC
:100B90004046514601F0FEFA002811D15546AB8976
:100BA0001A2213400A2B8AD150460E23C35E002B13
:100BB00085DB404651460A9A231C01F055FA01E0B4
:100BC0000120404245B03CBC90469946A246AB4607
:100BD000F0BD089859463A1C04F046F9002801D0A7
:100BE00000F094FC34AE9DE702F04EFC4EE70A9C08
:100BF0009BE713782B20B4E71378511C88462A2BE7
:100C000001D101F0F8F9191C30390022092901D964
:100C100001F039F9434680469000821852000133B2
:100C20008A18591E0878011C30390929F4D9191C71
:100C3000031C40468846002A01DA01F048F80B926E
:100C400042468FE7099D80210D430995137888E777
:100C5000099C159310237F251C436D44099428702B
:100C6000099D0A92AD0600D4A7E1119A0723073225
:100C70009A43141C53681268083411940E920F930F
:100C8000002B01DA00F028FE7F256D442D780E9AA6
:100C90000F98A846012302430B9C002C03DB099DFF
:100CA00080218D430995002A00D049E30B9C002C3C
:100CB00000D045E3002B01D000F09BFC099DED071F
:100CC00001D400F096FC6D46CF353023079C2B7085
:100CD000641B0D9413950D9B0B9DAB4200DA2B1CEE
:100CE00000240C9316944546002D02D00C9C013430
:100CF0000C94099D02231D40AA4602D00C9C02348C
:100D00000C94099D84231D40A94600D006E2109D45
:100D10000C982C1A002C00DC00E2BA687B68102CBE
:100D200001DC00F0D0FF1C4D311CA8465E461025AA
:100D300003E0103C0831102C17DD4046103201331F
:100D400008604D60BA607B60072BF2DD0898311CAB
:100D50003A1C04F089F8002801D000F0AEFC103CE9
:100D6000BA687B6834A9102CE7DCB3460E1C4146F8
:100D700074600133A4183160BC607B60072B01DD17
:100D800000F08CFC7F226A44127808369046C6E157
:100D9000FFDFFFFF9C990100549B010015937F2307
:100DA0006B441870119B0A920733072293431D1C52
:100DB000083511951C6819945B6819981B931B9949
:100DC00003F086FF012801D000F09AFD19981B99C5
:100DD000CE4BCD4A14F0FCFC002801D000F0F3FF0C
:100DE0007F256D442D78A846159C472C01DC00F02A
:100DF00020FFC74C1394099D80239D43032409952C
:100E00000C94032500F0E9FE191C002510953039DB
:100E1000002380469800C3185B0001325B18511E06
:100E20000878011C30390929F4D91093031C404675
:100E300098E6099D61460D430995137891E6099C52
:100E4000159310231C430994099D0A92AD0600D402
:100E500029E1119B0722073393431C1C083411948A
:100E60001C685D680E940F95221C00232A437F2482
:100E700000216C44217088460EE7099C15931023CD
:100E80001C430994099D0A92AD0600D421E1119BEF
:100E90000722073393431C1C083411941C685D68B7
:100EA000221C0E940F9501232A43E0E77F25099C1D
:100EB0006D440A922870A40601D400F0EEFD119D45
:100EC000129C2B68E21704351C605A60119509E6E4
:100ED000119C1593119B04341B680A922AAD11943E
:100EE00001247F202B70684400230C940D9400246F
:100EF000037098460B9416941395FAE67F256D447B
:100F00002870844C099D15930A921D94AD062CD52A
:100F1000119B0722073393431C1C083411941C684F
:100F20005D680E940F95099DED0700D4C7E30E9AF6
:100F30000F98022302439AD0099D159C20A93020C6
:100F40001D4308704C70099591E71378002800D074
:100F500007E6202005E60A926F4C7F22099D6A442D
:100F6000159310701D94AD06D2D4099DED0601D4E1
:100F700000F085FD1198119C0068002104340E904A
:100F80000F911194CFE7099D49460D4309951378B8
:100F9000E7E51378111C6C2B01D100F05AFE099D76
:100FA00051460D430995DCE57F21099D6944159360
:100FB0000A920870AD0600D557E6099DED0601D4EA
:100FC00000F02DFD119C236804340E93DB170F9362
:100FD000119455E6099D254309951378C1E5119DA6
:100FE000119C2D687F201593684400230A920434D5
:100FF00013950370002D01D100F0BAFE0B9D1398DC
:10100000002D01DA00F038FE00212A1C03F092F8CE
:10101000002801D100F0E2FE139D401B0B9D0D90B6
:10102000A84201DD00F0E0FD7F200D9D68440078BE
:10103000EB43DB1780461D400C95119400250024DE
:101040000B9416954FE6119B119D1B68099C0E93FE
:10105000043502231C430A9220AB302211952D4DFA
:101060001A7000207822099478245A700F901D95E8
:10107000022315940E9AFAE6099D01231D43099552
:1010800013786EE5119D11992D6804311095002D8E
:1010900000DA73E51378119163E5099D15930A92BF
:1010A000AD0600D5D5E6099DED0601D400F0D7FCCC
:1010B0001198119C0068002104340E900F91119436
:1010C0000023021CD3E6099D15930A92AD0600D5B4
:1010D000DDE6099DED0601D400F0B1FC1198119CEC
:1010E0000068002104340E900F9111940123021C1A
:1010F000BDE67F256D4415930A922870002B01D11F
:1011000000F04FFD2AADEBE60000000000000000FB
:10111000149B0100349B0100209B0100BC684546E4
:10112000002D0DD0012373607B687F20684401345B
:1011300001333060BC607B60072B00DD15E20836B0
:10114000514600290CD020AB3360022373607B68CA
:1011500002340133BC607B60072B00DD0FE20836F0
:101160004A46802A00D16DE10B9A0D9BD51A002DBD
:1011700034DD7B68102D01DC00F0B8FCD64910226C
:1011800092468946221C5C4603E0103D0836102D2D
:1011900017DD484651461032013330607160BA6045
:1011A0007B60072BF1DD0898211C3A1C03F05CFEE4
:1011B000002800D081E1103DBA687B6834AE102D64
:1011C000E7DCA346141C4A4664190133326075609B
:1011D000BC607B60072B00DDBDE10836099DED0595
:1011E00000D5D4E0139D7B6835600D9D01336419F3
:1011F0007560BC607B60072B00DD96E00836099DBA
:101200006D073FD510980C99451A002D3ADD7B6883
:10121000102D01DC00F0A8FDB0481021221C8046F2
:1012200089465C4603E0103D0836102D17DDAB48BB
:1012300049461032013330607160BA607B60072B21
:10124000F1DD0898211C3A1C03F00EFE002800D0A6
:1012500033E1103DBA687B6834AE102DE7DCA3465D
:10126000141C42466419013324C6BC607B60072B02
:1012700008DD089859463A1C03F0F6FD002800D016
:1012800044E1BC680C9B109DAB4200DA2B1C129D04
:10129000ED181295002C00D030E100237B6034AEB5
:1012A000FFF720FC189D012D00DCB5E201237360DF
:1012B0007B68139D013401333560BC607B60072B74
:1012C00000DDC9E20836179D013335601A9D984646
:1012D00064197560BC607B60072B00DDC8E20836CE
:1012E00019981B997B4B7A4A14F06CFA002800D0AD
:1012F000EBE1189B139D0121013B88440135E41863
:10130000424635607360BC607A60072A00DDE9E020
:10131000083623AB1C9D3360434664190133756066
:10132000BC607B60072B00DC68E7089859463A1CD4
:1013300003F09AFD002800D0E8E0BC6834AE5EE718
:10134000012B00D125E1022B00D0E1E01D9D6B4671
:10135000CF330F21A946B4461C1C0E9A0F9B201CAC
:101360000C1C14404D462C5D1E071509321C0470E0
:101370002A431C09231C151C441E1D43EFD1079C46
:101380001390241A0E920F9366460D94A3E4159DB4
:10139000652D87DD19981B994E4B4D4A14F012FAB2
:1013A000002800D12BE14E4B0134336001237360E0
:1013B0007B68BC6001337B60072B00DD9AE3083655
:1013C0002198189DA84203DB099DED0700D416E77C
:1013D000179D7B6835601A9D013364197560BC6088
:1013E0007B60072B01DD00F03BFC0836189D013DBA
:1013F000002D00DC03E77B68102D01DC00F0D8FD38
:10140000354910229046D946221C0C1C04E00836AF
:10141000103D102D00DC57E340461032013334609C
:101420007060BA607B60072BF1DD089849463A1C72
:1014300003F01AFD002801D000F093FCBA687B6825
:1014400034AEE5E7109B0C981D1A002D00DC8BE6EE
:101450007B68102D01DC00F0BDFC1F4A1020914676
:101460008246221C5C4603E0103D0836102D16DD36
:10147000494650461032013331607060BA607B607B
:10148000072BF1DD0898211C3A1C03F0EDFC002825
:1014900013D1103DBA687B6834AE102DE8DCA3464A
:1014A000141C49466419013331607560BC607B606F
:1014B000072B00DD05E2083656E6A2465246938920
:1014C0005C0601D5FFF77CFB1298FFF77BFBC0465B
:1014D0000000000000000000009B0100549B010080
:1014E000509B0100089859463A1C03F0BDFC0028A7
:1014F0000CD17B68BC68984634AE0AE70898594618
:101500003A1C03F0B1FC002800D1C6E6DA46D5E764
:101510006B46CF330720B4460E9C0F9D021C224021
:101520003032191C1A706B079946E6084C46EB08D6
:1015300034431D1C261C4B1E2E43EFD10E940F95D9
:10154000099C13916646E40700D5EAE0079D6D1AF1
:101550000D95FFF7C0FB089859463A1C03F084FC30
:101560000028D3D1BC6834AE38E6089859463A1CF6
:1015700003F07AFC0028C9D1BC6834AEE0E50898D5
:1015800059463A1C03F070FC0028BFD1BC6834AE49
:10159000E6E50F98002802D10E99092923D96B4658
:1015A000CF33B1460E9C0F9D1E1C201C291C0A2205
:1015B000002314F035F930323270201C0A22002347
:1015C000291C14F02DF9021C041C0D1C731E0A4367
:1015D000EAD113960E940F95079D139C4E462D1B32
:1015E0000D95FFF778FB6D460B1CCF353033FFF7B9
:1015F0006DFB002534AC0D951394FFF76CFB219B1C
:10160000002B00DC81E213981899169A4518281AC5
:101610008046904200DD9046404600280BDD7B6806
:1016200013994444013331607060BC607B60072BC8
:1016300000DD50E308364246D343DB1716981340CB
:10164000C01A8046002800DC89E07B68102801DC95
:1016500000F0B1FCA94A10209146211C321C4446DE
:101660008246A8464E465D4603E00832103C102CE8
:1016700063DD50461031013316605060B9607B6005
:10168000072BF2DD0898291C3A1C03F0EDFB00281B
:1016900000D02BE3B9687B6834AAE7E7089859467D
:1016A0003A1C03F0E1FB002800D02FE77F236B44B6
:1016B0001B78BC68984634AE31E5B246FEE60E9A19
:1016C0000F9802230243FFF7D2FB189D013D002D26
:1016D00000DC1EE6102D01DC00F071FC87491022B1
:1016E00092468946221C43465C4604E00836103D7B
:1016F000102D00DCC9E048465146103201333060FD
:101700007160BA607B60072BF0DD0898211C3A1CE1
:1017100003F0AAFB002800D0CFE6BA687B6834AE9D
:10172000E5E7302A03D01393013930230B70079C6F
:10173000139D641B0D94FFF7CEFAAB46B1464546A8
:10174000161CA0460C1C49464246444401333160F5
:101750007260BC607B60072B00DDE7E20836139BFC
:1017600018989846169B9844219B834246DB09991A
:10177000C90743D441466A1A189DEB1A1D1E9542AB
:1017800000DD151C002D0BDD7A684046641901321E
:1017900030607560BC607A60072A00DDD2E20836EE
:1017A000EA43D21715405D1B002D00DC27E57B685E
:1017B000102D01DC00F030FC504A1020914680468C
:1017C000221C5C4604E00836103D102D00DC8AE146
:1017D000494640461032013331607060BA607B6028
:1017E000072BF0DD0898211C3A1C03F03DFB002874
:1017F00000D062E6BA687B6834AEE5E7179A1A98BB
:1018000032607A68241801327060BC607A60072AFE
:1018100000DD6EE20836ADE7099D01232B4200D0C2
:1018200044E57868139D8046012080440134414698
:1018300035607360BC607960072900DC68E5089852
:1018400059463A1C03F010FB002800D05EE67A6887
:10185000BC68904634AE5CE5089859463A1C03F0E3
:1018600003FB002800D051E6BC687B6834AE2AE553
:10187000089859463A1C03F0F7FA002800D045E6CC
:101880007868BC68804634AE2AE5A3469846141CA6
:101890000123984464194A46756045463260BC602D
:1018A0007D60072D00DC33E5089859463A1C03F0AB
:1018B000DBFA002800D029E67868BC68804634AEA0
:1018C00027E5089859463A1C03F0CEFA002800D0C4
:1018D0001CE6BC6834AE47E40E980F9900254442DC
:1018E0008D417F212D236944221C0B7098460E9454
:1018F0000F9501232A43FFF7CFF9C046009B010053
:1019000019981B9903F0E4F9002800D154E1159DC2
:1019100020230B9C9D43A946013400D1C5E2472DED
:1019200000D1B5E28023099C5B001C431B9D1B9BDF
:101930001494A846002B00DAB1E200240C94159D03
:10194000662D00D1C3E2462D00D116E34B460B9C19
:10195000453B5A425341E4180223009321AB0293C2
:1019600022AB039325AB049301940898199A43463C
:1019700000F022FDA2461390672D01D0472D03D120
:10198000099DED0700D4E9E213984946041C54442C
:10199000462900D129E2DF4BDD4A1998414613F070
:1019A00011FF221C00280BD1259B1A1C9C4207D931
:1019B00030215A1C25921970259B9C42F9D81A1C7B
:1019C000139C4D46121B1892472D00D1E7E1159C40
:1019D000652C00DC36E3159C662C00D1C0E2219D0D
:1019E0001695189D169CA54200DD61E2099DED0744
:1019F00000D5D4E2E343DB1723400D94672415940C
:101A00000C9C002C00D0D2E17F256D442D78149CD5
:101A1000A84600250C9309940B95FFF764F9099DDE
:101A2000119C6D0601D4FFF7CEFA0023E35E119DF1
:101A30000E930435DB170F931195FFF721F9099DDC
:101A40006D0600D4E9E0119C002524880F950E94C2
:101A5000119C0123043411940E9AFFF708FA099D92
:101A60006D0600D4CDE0119C002524880F950E94BE
:101A7000119C0023043411940E9AFFF7F8F9099D84
:101A80006D0600D4B3E0119C002524880F950E94B8
:101A9000119C04341194FFF746FA099DED060BD40E
:101AA000099C640608D5119D129C2D682C80119DFF
:101AB00004351195FFF716F8119C129D2368043424
:101AC0001D601194FFF70EF8CB46A146141C494641
:101AD0006419013331607560BC607B60072B01DCE9
:101AE000FFF78CFB21E4A346141CF0E78A488146EB
:101AF000FFF769FB089859463A1C03F0B5F900282E
:101B000000D003E5BC6834AE5AE4844A0134326044
:101B1000012272607A68BC6001327A60072A00DDB7
:101B20008BE00836181C002807D1189D002D04D121
:101B3000099DED0701D4FFF762FB179D7B683560B7
:101B40001A9D013361197560B9607B60072B00DD58
:101B50008BE1321C08324442002C00DCA4E0102C43
:101B600000DC5FE26C4D1026A9465D4604E00832B9
:101B7000103C102C00DC8BE0484610310133106023
:101B80005660B9607B60072BF1DD0898291C3A1C70
:101B900003F06AF9002800D0A8E0B9687B6834AA8D
:101BA000E6E7B9680898DA46002900D186E4594684
:101BB0003A1C03F059F981E4159C472C00DDEBE059
:101BC000574D13957F20099D6844802300789D43DD
:101BD0000324099580460C9403250D9500240025C7
:101BE0000B941695FFF77FF80D95FFF71DFA119DE1
:101BF000119C2D68002004340E950F901194FFF76E
:101C000092F9119D119C2D68002004340E950F90BF
:101C1000119400232A1CFFF72AF9119D119C2D68AD
:101C2000002004340E950F90119401232A1CFFF715
:101C30001EF93C4D1395FFF7DEF8089859463A1CFB
:101C400003F012F9002800D060E42198BC6834AE9B
:101C500069E7099D0132254309954B78FEF781FF1D
:101C6000089859463A1C03F0FFF8002800D04DE4CC
:101C7000BC6834AEFFF7BAFBFEF7E6FE0D90C34337
:101C80007F2068440078DB1780460D9DFFF7D3F96D
:101C9000AB464D460919013315605460B9607B604D
:101CA000072B00DD4DE10832139C189D14600133B1
:101CB0004C195560BC607B60072B01DDFFF735FBDD
:101CC000161CFFF79BFA18498846FFF750F80122C7
:101CD0005242FEF7B4FF089859463A1C03F0C4F884
:101CE000002800D012E4BC6834AEA4E4AA46FFF792
:101CF000E5FB089859463A1C03F0B6F8002801D0D5
:101D0000FFF704FC219BBC6834AE33E5C046C046F7
:101D10000000000000000000009B0100509B01003B
:101D2000189B0100109B0100549B01000898594624
:101D30003A1C03F099F8002801D0FFF7E7FBBC68D4
:101D400034AE0CE5089859463A1C03F08DF800288B
:101D500001D0FFF7DBFB189C219834AE231ABC6836
:101D60001EE5CA46FFF7AAFBBB4A9046FFF779FA81
:101D70000B99062900D90621CB43DB1711940024C7
:101D80000D910B941940B54C0C910025002188460B
:101D900016951394FEF7ADFFB14C139412E7219CF6
:101DA000E01C36DB0B9DA54233DB169419E6149C30
:101DB0007F202D2268440994002402700C939046E1
:101DC0000B94FEF793FF7F202D2368440370984601
:101DD000FFF70AF8A3498946FFF763FB7F206844B1
:101DE00000780C9580461194F7E60378302B02D0EA
:101DF000219BE418CFE519984146964B944A13F07D
:101E0000E1FC0028F4D1012350461B1A2193E41869
:101E1000C1E5159D023D1595159823AD013C219412
:101E2000A8462870002C00DADFE06B462B228D33A9
:101E30001A70092C5DDC6B468E33302230341A70F8
:101E40005C7024AB4446189D1C1B2D191C94189CD7
:101E50000D95012C00DCE8E00D9C01340D94E3436A
:101E6000DB17002523401695CAE5089859463A1C09
:101E700002F0FAFF002801D0FFF748FB2198B9686B
:101E80007B6834AA67E6002542460B95FEF76AFE9A
:101E90000B9C002C00D045E501250B9542E58025E3
:101EA0002D062D24A8440C9449E506240B9439E50D
:101EB000169D0123002D00DCB1E0189C1B190D9329
:101EC0000D9DDB43DB1767242B40159498E5032316
:101ED000009321AB0B9D029322AB039325AB04939C
:101EE00001950898199A434600F066FAAA4613909D
:101EF0004AE59A21694489460B1C201C0A211D1CB5
:101F0000FEF780FC30312970201C0A21FEF724FCEA
:101F10006B1E041E092CF0DC30346A46E4B29B329E
:101F20001C70934200D38FE00D3A01E05C780133DE
:101F3000147001329945F9D18E227B1B6A44D31863
:101F400080E7089859463A1C02F08EFF002801D01D
:101F5000FFF7DCFAB9687B6834AAA5E6259A2FE575
:101F6000219C1694002C36DD0B9D002D2AD1099C56
:101F7000E40727D4169B0D9342E50323009321AB7E
:101F80000B9C029322AB039325AB04930194089816
:101F9000199A434600F010FAA2461390F4E4169DF5
:101FA00067240135EB43DB170D952B40159427E58E
:101FB0002C4881468BE52B498946FFF7C4FB29480D
:101FC000814665E40B99169D01316918CB43DB17F7
:101FD0000D910B4014E50B9C002C2CD1099DED07B5
:101FE00029D4012501230D950AE56B462D228D3359
:101FF00064421A701DE7119D11992D6804315378C0
:102000000B9511914246002D01DBFEF7AAFD01213F
:1020100049420B91FEF7A5FD1249894657E5022377
:102020005B1B4AE70F48814633E6099DED0700D563
:1020300012E70D9C13E70B9C0234E343DB170D946E
:102040002340DDE4219CE7E66B468E33FAE6C0468A
:102050000000000000000000549B0100489B0100AC
:102060001C9B0100009B010070B51B4C061CA54485
:102070000C1C89890220814368468181616E199117
:10208000E189C181E169606A07911AA9009104910F
:102090008021C90002910591002109900691301C10
:1020A0006946FEF7D9FC051E05DB301C694601F0C8
:1020B000CDF900280CD16A469389580603D5A28928
:1020C00040231343A381281C8D23DB009D4470BD56
:1020D00001256D42EFE7C04698FBFFFF70B5051C78
:1020E0000E1C141C002802D0816B00294AD0A26962
:1020F000A260A28993B219073AD52069002837D087
:10210000FF210E40802189010B4215D023686169AF
:10211000181A88421BDA0130A268013AA2605A1CE0
:1021200022601E70626982421AD0A389301CD907CE
:1021300001D50A2E14D070BD0A43A281144B626EE1
:102140006169134063662368181A8842E3DB281C20
:10215000211C01F07BF9002817D123680120DBE75F
:10216000281C211C01F072F900280ED1301CE2E776
:10217000281C211C00F00EF8002806D1A289206935
:1021800093B2BDE701F080F9B1E701204042D2E708
:10219000FFDFFFFF324B70B5061C18680C1C0028CF
:1021A00002D0816B00293BD0A589ABB21A070DD5AF
:1021B0002269002A15D0D80721D561690023A360C0
:1021C0004B42A3610020002A21D070BDD8063ED525
:1021D000590728D4226908231D43A581ABB2002AE0
:1021E000E9D1A02080008021184089008842E2D0F7
:1021F000301C211C01F09EFCA3892269DBE7002131
:10220000980700D46169A1600020002ADDD1A3896C
:102210001906DAD5402213430120A3814042D4E7B6
:1022200001F032F9C0E7216B002909D0231C4033AB
:10223000994203D0301C01F0F9F9A58900232363EA
:10224000242322699D43002363602260C3E709239E
:10225000336040231D430120A5814042B5E7C046BD
:1022600050040020F0B544465F4656464D46F0B453
:1022700080468B460C694146096985B000208C4236
:1022800000DD90E05D46013C1435A3000295474611
:10229000ED1814372968FB1801311868039313F0FF
:1022A00033FA061E42D000218A46029B3A1CAC46F5
:1022B000B9465546071C0E1CA24602CB0804000C6A
:1022C0007843090C79433018040C64181168000431
:1022D0000904090C4D19000C281A1568260C240451
:1022E000290C240C0514091B491900040D14000CB9
:1022F0000904014302C29C45DFD203993E1C0968D0
:1023000065464F465446002910D1039B043B9F422B
:102310000AD21A68002A03D006E01968002903D1FE
:10232000043B013C9F42F8D3424614614046594663
:1023300002F030FA002835DB002189460136211CE5
:10234000029BB4464C463A1C2E1C8946116820CB91
:102350000804000C04192804000C201A090C2D0C88
:102360000414491B091900040C14000C090401434E
:1023700002C29E42EAD24C46A300FB181A68664687
:10238000002A0FD1043B9F420AD21D68002D03D0C2
:1023900006E01968002903D1043B013C9F42F8D3B1
:1023A00042461461301C05B03CBC90469946A2469A
:1023B000AB46F0BD00000000F0B556464D465F4606
:1023C0004446F0B4016C9DB08246299D029203936D
:1023D000002909D0436C01229A404B608A6001F0C9
:1023E000C7FF002351460B64039E002E34DB0023FD
:1023F0002B601F4B321C1A409A421AD0029C039D3C
:102400001A4B194A201C291C13F0DCF9002837D07C
:10241000289C2A9D01232360002D00D13AE2154813
:10242000286001381DB03CBC90469946A246AB4698
:10243000F0BD114B289C029D2360002D00D10CE2C1
:102440000E482A9C002CEDD0C278C31C002A00D074
:1024500005332A9D2B60E5E77600012376082B6083
:102460000396C6E7C046C04600000000000000001A
:102470000000F07F519B01000F270000709B0100BE
:102480001BAB00931AAB019350462B1C221C02F08D
:1024900011FA330D834600D1E4E1201CBC4C2A0321
:1024A000120B211C1143BB4A00241A9F9E1813943F
:1024B000A84BA74A14F052FCA74AA84B14F0BCF949
:1024C000A74AA84B13F024FA041C301C0D1C14F06E
:1024D000AFFFA54AA54B14F0AFF9021C0B1C201C42
:1024E000291C13F015FA041C0D1C14F06DFFA04AF2
:1024F000A04B0890291C201C13F06AF9002800D07A
:10250000BBE2089D01241194162D0FD8A24AEB00BE
:10251000D31818685968029A039B13F06DF90028C4
:1025200000D1CDE3013D0024089511940024BE1B89
:102530000994013EB14600D5ACE2089C002C00DABB
:1025400092E20025A1440D940B95269C092C00D9FC
:10255000A2E10125052C02DD043C26940025269CE1
:10256000032C01D100F0FFFC01DC00F07FFC269C75
:10257000042C01D100F0FDFB01241094269C052CB5
:1025800000D08BE1279C08996418129401340A94B6
:10259000002C01DC00F037FC00235246536400217C
:1025A000172C0AD9012204235B00181C1430111CBB
:1025B0000132A042F8D953465964504601F0B0FEAA
:1025C00051460C9008640E2C00D978E1002D00D102
:1025D00075E1089D002D01DC00F002FD2A1C0F238F
:1025E0006D491A40D2008A180899146855680E116E
:1025F000F20601D400F0C3FC1E40684B0298039918
:102600001A6A5B6A13F0A8FC0E900F910323984698
:10261000002E12D0614F201C291C44460123334256
:1026200004D03A687B68013414F006F97610083754
:10263000002EF3D1A0460D1C041C0E980F99221CED
:102640002B1C13F089FC061C0F1C119D002D09D0BA
:10265000301C391C484A494B13F0BAF8002801D005
:1026600000F0A9FD404614F0E3FE021C0B1C301CD8
:10267000391C14F0E1F8424A424B13F049F90E902C
:102680000F910F9B464C0A9D1C190F94002D01D1F0
:1026900000F044FC089C0A9D1894A846109C002C4D
:1026A00001D100F0DEFC43463B4A013BDB00D3187E
:1026B0001A685B683448354913F04EFC0E9A0F9B3C
:1026C00014F04CFB14901591391C301C14F07CFE56
:1026D000041C14F0ADFE021C0B1C301C391C14F041
:1026E0003DFB271C30370C9D0E900F910E9A0F9BCF
:1026F000149815990C9EFFB22F70013613F07CF8D8
:10270000002801D000F097FD0E9A0F9B1A481B4934
:1027100014F024FB021C0B1C1498159913F06CF890
:10272000002801D000F0C5FD4146012900DCC6E0CB
:102730004C46199452465C46A8441694B1460E9CE9
:102740000F9D149E159F0E923EE0C046C046C046A7
:10275000000000000000F83F61436F63A787D23F8D
:10276000B3C8608B288AC63FFB799F501344D33F80
:102770000000000000000000000000000000F03F2A
:102780000000000000001C40000000000000E03FCE
:102790000000F03F01FCFFFF909B0100589C0100EE
:1027A0000000C0FC221C2B1CBE49BD4814F0D6FA08
:1027B000321C3B1C13F00CF8002801D000F055FD32
:1027C000C14501D100F05DFD301C391CB64AB74B44
:1027D00014F032F8B44AB54B061C0F1C201C291CFF
:1027E00014F02AF80D1C041C14F0EEFD824614F0BF
:1027F0001FFE021C0B1C201C291C14F0AFFA0D1C20
:1028000001210123494299448B4653463033CB443E
:10281000DBB25A46041C13709A46201C291C321C39
:102820003B1C12F0D5FF0028BCD00E9C169BA24684
:10283000189C9B464E4608945046594601F098FD18
:1028400000233370089B289C2A9D01332360002DB0
:1028500000D108E32E600C98E4E5360300D0EFE5E4
:102860009548EEE51A9F1B99944B7D189D4200DA1E
:1028700020E29348934A401B029C8640AB18301CD0
:10288000DC40204314F012FE8F4A012489186E1E8A
:1028900013940DE68D48C5E5002426940023554683
:1028A00000216B64504601F03BFD01267642002179
:1028B00001240C9028640A961296279110941B9B71
:1028C000002B00DAB2E0089D0E2D00DDAEE0804A5C
:1028D000EB00D3181C685D6804940595279D002DB6
:1028E00000DA50E2029C039D049A059B201C291CDF
:1028F00013F032FB14F068FD804614F099FD049A41
:10290000059B13F099FF021C0B1C201C291C14F0C2
:1029100025FA43460C9A30330C9E13700A9B041C14
:102920000D1C0136012B53D05F4A604B13F084FF1E
:102930005F4A604B041C0D1C12F044FF002800D0BD
:102940007AE70C990C9F89460A99023752465B46F2
:10295000BA46894402930792049E059F12E0101C18
:10296000191C514A514B13F067FF514A514B0D1C32
:10297000041C01218A44201C291C12F023FF00287A
:1029800000D0B2E2321C3B1C201C291C13F0E4FADC
:1029900014F01AFD804614F04BFD321C3B1C13F062
:1029A0004BFF021C0B1C201C291C14F0D7F9021C25
:1029B0000B1C041C0D1C4046514601393030D346D7
:1029C0000870CA45CBD1029A079B564693469A4651
:1029D000221C2B1C201C291C12F09AFF041C0D1C0D
:1029E000221C049805992B1C12F0F2FE00280CD131
:1029F00004980599221C2B1C12F0E4FE002800D13B
:102A00001AE74346DB0700D416E7741E27780C9BB1
:102A100006E0A34200D1CAE2023E3778261C013C00
:102A2000392FF6D00137FFB2277005E7109C002C34
:102A300050D0269D012D00DCCCE10A9C0B9D013C71
:102A4000A54200DA93E22C1B0A9D002D00DA99E3DF
:102A5000099E0A9B099D5046ED180121099599444C
:102A600001F030FD071C38E0089D099C641B0994A7
:102A70006C4200250B940D9567E5089814F0D8FC7E
:102A80002B1C221C12F09EFE089D43424341ED1A6E
:102A9000089536E54D466D420995A1464DE5C0467F
:102AA000000000000000F03F000000000000244093
:102AB0000000000000000000649B0100EFFBFFFF2E
:102AC0000EFCFFFF12040000000010FE509B0100EE
:102AD000909B01000B9C099E0027002E0DD04946BB
:102AE00000290ADD4B46B14500DD40E1099D49461C
:102AF000ED1AC91A0995F61A89460B9D002D1ADDA3
:102B0000109D002D00D127E2002C10DD391C221C65
:102B1000504601F083FD071C5A46391C504601F00F
:102B2000DBFC5946051C504601F022FCAB460B9DD0
:102B30002A1B00D048E15046012101F0C3FC0D9C46
:102B40008046002C05DD41465046221C01F066FD02
:102B50008046269D0024012D00DC8EE10D9D012381
:102B6000002D00D074E14B441F22134000D19FE0A0
:102B70002022D21A042A00DCA1E31C22D31A099DC8
:102B8000F618ED1809959944099D002D05DD594663
:102B900050462A1C01F09EFD83464946002905DD6A
:102BA000414650464A4601F095FD8046119D002D54
:102BB00000D02EE10A9D002D00DC71E1109D002D5A
:102BC00000D180E0002E05DD391C5046321C01F09A
:102BD00081FD071CB946002C00D02EE20C9C0A9DFA
:102BE000231C013B5B19029D0D9301231D404246AE
:102BF0000295A0465D46079254460799281CFFF7A8
:102C000031FB031C30330A90391C281C099301F056
:102C1000C1FD079982464A46201C01F0D7FDC168D4
:102C2000061C002900D0E4E0281C311C01F0B2FD94
:102C30008346311C201C01F09BFB26995B460B430D
:102C400003D1029A002A00D1F9E25146002900DAA4
:102C500062E2269953460B4303D1029A002A00D11F
:102C6000FCE25946002900DD76E2099A41460A70E5
:102C70000D9946460136884500D17CE2291C0A227E
:102C80000023201C01F07EFB391C051C0A22201C9D
:102C900000234F4500D1A6E001F074FB4946071C14
:102CA0000A22201C002301F06DFBB0468146A4E7F8
:102CB0001C2364E7C6480299401B8140081CE1E5DB
:102CC0000025119532E40C9AB946002447460A9E25
:102CD0005D46904606E0291C50460A22002301F07A
:102CE00051FB051C391C281CFFF7BCFA031C3033B0
:102CF00041460B550134A642EDDC0A9EB8460993C5
:102D0000AB464F46002E00DC40E20C9C0025A61985
:102D100059465046012201F0DDFC4146834601F050
:102D200039FD002800DC32E1741E23780C9A06E09D
:102D3000A24200D1D2E0023E3378261C013C392B5E
:102D4000F6D0013323705046414601F011FB002FAD
:102D500000D171E5002D05D0BD4203D05046291C9D
:102D600001F006FB5046391C01F002FB64E5331C00
:102D7000BCE601241094279900293DDD0C1C12911A
:102D80000A91FFF709FC0A9C002C00DDAAE500D09F
:102D900087E28C4B8A4A0498059913F04DFD029AFC
:102DA000039B12F033FD002800D1FCE00022904686
:102DB0000027279C0C9EE44308945046414601F0AE
:102DC000D7FA002FCED137E55946504601F026FC00
:102DD0008346B0E6139C002C00D1D9E17D4D0B9CBD
:102DE0005B19099E36E601F0CDFAB046071C814614
:102DF00003E7012293461CE701230121012201245C
:102E000012930A912792514600234B640021FFF749
:102E1000D4FB5846414601F0BDFC002800DBC9E662
:102E2000089D5946013D50460A220023089501F0AD
:102E3000A9FA129D83460A95109D002D00D1B9E68E
:102E4000391C50460A22002301F09CFA071CB1E607
:102E500041460B6903339B004344586801F0E6FA8E
:102E600020231B1A7FE60C98FFF7DCFA002410944D
:102E7000269C022C00D17EE710E50299002900D0A3
:102E80006CE6039A130300D068E6534B134200D15B
:102E900064E6099C012501340994A94401245DE6F6
:102EA000269D022D00DC89E60A9C002C81D141463A
:102EB00050460522002301F065FA804641465846F7
:102EC00001F068FC002800DC73E7089D0C9E0C9C58
:102ED000312301350136237008956EE7089C3123B4
:102EE000013408940C9C23702DE70299079A5E46E2
:102EF00092468B46A0E4404614F09AFA021C0B1C42
:102F0000301C391C13F098FC2F4A304B12F000FD96
:102F10000E900F910F99314A8A180F92294B284A27
:102F2000301C391C13F01AFF0E9A0F9B041C0D1C49
:102F300012F062FC002836D1201C291C0F9C802531
:102F40002D060E9A631912F043FC002800D1B6E456
:102F50000025A84600272CE7594650460B9A01F059
:102F60005DFB8346E7E500241094FFF70BFB0B9D08
:102F70000B94631B0D9D0024ED180D9564E50299DB
:102F8000039A0E910F9202229046FFF741FB002810
:102F900004D1099CE40701D5C6E61E1C731E1A78ED
:102FA000302AFAD0CFE60025A84600278DE7089DF5
:102FB0003023013508950C9D31272B7027703BE499
:102FC00000000000000014400000000000001C4051
:102FD000EEFBFFFF330400000000F07F0000C0FCA8
:102FE000089D6C42002C00D1D8E00F232340BE4A3C
:102FF000DB00D318029803991A685B6813F01CFC75
:103000002411061C0F1C002C00D14EE10221884621
:10301000B64D301C391C46460122224204D02A6893
:103020006B68013613F008FC64100835002CF3D1EE
:10303000B0460F1C061CFFF708FB7968504601F0EC
:103040006FF93A69391C0232041C92000C310C30C1
:10305000FDF7E4FB5046211C012201F03BFB8146B9
:10306000BCE54546013DA04AEB00D31818685968F5
:103070000E9A0F9B149513F0DFFB16901791391CD5
:10308000301C14F0A1F90E9014F0D2F90B1C021CA4
:10309000391C301C13F062FE0E9F0D1C0C9E0C9907
:1030A00030370F70013641444346041C371C0E91E3
:1030B000012B1ED0B046201C291C864B844A13F0DD
:1030C000BBFB041C0D1C14F07FF9061C14F0B0F9B6
:1030D000021C0B1C201C291C13F040FE30360E9CD9
:1030E0003E700137A742E8D10D1C14994646041CD6
:1030F0007618794A794B1698179912F009FC221C18
:103100002B1C12F065FB002800D180E0189D741E76
:10311000277808950C9B83E4079A5E46A246AB4647
:1031200044469046002E11DD59465046012201F0DA
:10313000D1FA4146834601F02DFB002800DCA8E0CF
:10314000099D392D30D00A9D31350995099D661CA0
:1031500025703D1C4F46F6E5AB46079A099DA246F1
:1031600044469046392D1FD0099B3D1C0133661CF7
:1031700023704F46E7E5AB46079DA246A8463D1C97
:103180004F46C5E5099900234E1B63E40126BCE5C3
:103190001A9936235B1A0B9C099E5BE40223029E5C
:1031A000039F9846FFF751FA39233D1C661C237094
:1031B0004F460C9AC3E50A9C002C00D19BE6129D59
:1031C000002D01DCFFF77BFB089C424B404A301C82
:1031D000391C013C189413F02FFB061C40460130AB
:1031E0000F1C14F025F9021C0B1C301C391C13F0A9
:1031F00023FB3B4A3B4B12F08BFB0E900F910F9D34
:103200003B49129A69180F919046FFF747FA169AB0
:10321000179B3148314913F0A1FD221C2B1C12F0E1
:10322000EBFA002801D1FFF74AFB00E01E1C731ED9
:103230001A78302AFAD0189D0895FFF7FDFAAB46A8
:10324000554602950799099D5346A246444688462D
:10325000392DA9D0002B00DD75E777E7079B5E4687
:10326000A246AB46444698465CE70E9D57461699E3
:10327000AA46189D5C464E468B4608950C9BFFF768
:10328000CFFB199A169B0E9C91469B46A246FFF7D0
:1032900016FB002800D059E7099DED0700D455E73B
:1032A0004EE700218846002783E50224A046FFF769
:1032B000CCF9189C08940C9C231CFFF7B1FB042A42
:1032C00000D161E43C22D31A59E4C046C046C0464E
:1032D0000000000000002440000000000000E03F6B
:1032E0000000000000001C40909B0100589C010061
:1032F0000000C0FCC046C046F0B5474680B48B898C
:1033000080469AB20D1C11073CD48022120113434F
:103310006A68AB81002A56DDAC6A002C2ED041468B
:1033200000229BB20E680A60DA0450D52A6D5F074E
:1033300006D569682B6B521A002B01D0EF6BD21B9C
:10334000E96940460023A047411C4BD0AA893E4B67
:10335000296913400022AB816A602960DA044ED4E7
:10336000296B43461E60002908D02B1C403399422C
:1033700002D0404600F05AF900232B63002004BC21
:103380009046F0BD2E69002EF8D02F680023BC1B9C
:103390002E60910700D16B69AB60002C04DCEDE777
:1033A0003618241A002CE9DD4046E969321C231C3A
:1033B0006F6AB8470028F3DCAA8940231343012031
:1033C000AB814042DBE7EF6B002FA5DCD6E70022A4
:1033D0004046E9690123A047021C431C1ED0AB896B
:1033E000AC6AA4E742461368002B0AD1A989164AA1
:1033F0002F690A40AA816B602F60D104B0D528657F
:10340000AEE71D2B01D0162B19D1AA890E4B134004
:10341000AB8100236B602B692B60A1E747463B68BB
:10342000002BDCD01D2B06D0162B04D0A9894023FD
:103430000B43AB81A3E741460E6000209FE7AA89BA
:1034400040231343AB819AE7FFF7FFFF38B5041C15
:103450000D1C002802D0826B002A09D00C22AB5E22
:103460000020002B03D0201C291CFFF745FF38BD8E
:1034700000F00AF8F2E7C04608B5024900F02AFB5E
:1034800008BDC046B54F0000F8B5564644465F46F5
:103490004D46F0B4846B061C002C62D1344B0322E1
:1034A000C363B8239B00C450B9239B00C250BB2305
:1034B0009B004568C218BA239B00C2500423281CF5
:1034C000AB812C606C60AC606C66EC812C616C61D3
:1034D000AC61002108225C3000F0C0FE254B264F75
:1034E0009A462B62254BED6199466B62244BEF6245
:1034F000AB62B56898460923AB81281C0123EB8198
:103500002C606C60AC606C662C616C61AC610021FD
:1035100008225C309B4600F0A1FE53462B624B46CE
:103520006B624346AB62ED61EF62F5681223AB81DB
:10353000281C0223EB812C606C60AC606C662C61F3
:103540006C61AC615C300021082200F087FE5346BC
:103550002B624B466B624346AB625B46ED61EF62AA
:10356000B3633CBC90469946A246AB46F8BDC04604
:1035700079340000554D0000E14D00007D4D000004
:10358000B54D00007047C0467047C046F8B50F1CE7
:10359000041C00F0C1FE204D204AAB685E68032386
:1035A0009E43F71BBF183F0B1D4B013F3F039F423C
:1035B00007DD201C002101F0BBFBAA68931998428B
:1035C00004D0201C00F0AAFE0020F8BD7942201C87
:1035D00001F0AEFB01300DD0AB68F61B01221643A3
:1035E0005E60104B201C1A68D71B1F6000F096FE0F
:1035F0000120EAE7201C002101F09AFBAB68C21A07
:103600000F2ADEDD08490968401A064908600121D1
:103610000A435A60D5E7C046B0040020EF0F00000F
:10362000FF0F0000800B0020BC080020F0B54746CB
:1036300080B4051C0C1E55D000F06EFE211C08390C
:1036400048680127031CBB43CA18546880460320FE
:103650008443201C534CA668964260D00026B44692
:103660004646506037420AD10E68271C891B9B19B9
:103670008E680837BE426BD0CF68F760BE60161800
:10368000766801273E4207D11B18604600282CD0DF
:103690009068D268C26090600122181C1043664690
:1036A0004860CB50002E1AD13F48834229D95A0A8C
:1036B000042A50D89E09383670008000201882688D
:1036C00082424ED003265468B443A34202D2926889
:1036D0009042F8D1D368CB608A609960D160281C91
:1036E00000F01CFE04BC9046F0BD90682F4EB04226
:1036F000CFD11F43C1608160C86088604F60CB50EC
:10370000EDE7DB08981082406068DB0002436260EE
:10371000E418A368CC608B60A160D960DFE7C318B0
:103720004046074206D10A68891A88689B18CA6809
:10373000C260906001221A434A601D4AA16012686B
:103740009342CCD31B4B281C1968FFF71FFFC6E719
:103750000126B44693E7142A0CD8161C5B36700079
:10376000ABE7B6100123B3401E1C63681E436660BE
:10377000131CB0E7542A03D81E0B6E3670009CE76A
:10378000AA204000824203D8DE0B7736700094E70F
:103790000948824203D89E0C7C3670008DE7FC20DD
:1037A0007E268AE7B0040020FF010000B804002054
:1037B000B80800207C0B002054050000F0B55646E8
:1037C00044465F464D46F0B485B0039090680C1CAB
:1037D0009246002824D08B89190729D52269002A0E
:1037E00026D057463E68B34698072ED5B6490026E0
:1037F00000258846002D65D0E1692B1E434500D980
:10380000B14B0398321C676AB847002800DC80E09F
:103810005146896836182D1A5246081A9060E9D127
:10382000002005B03CBC90469946A246AB46F0BD90
:103830000398211CFEF7AEFC002800D03BE1574660
:103840003E68A389B3469807D0D4DE0768D5002622
:1038500000270196B1460025002D2AD0019E002E9A
:1038600000D1AFE0B846AF4200D9A8462068216930
:103870004646A2686369884204D9D21802929045EC
:1038800000DDF0E0984500DA80E0666A0398E169BF
:103890004A46B047061E3CDDBF1B00D185E05046BE
:1038A0008068B144AD1B5146861B8E60B8D0002D98
:1038B000D4D15B4608261A68B344002691465D6859
:1038C0000196C9E75A460823166855689B4491E754
:1038D00020682369984204D86669B146B54200D38E
:1038E000ADE0A946454500D9C14601994A4600F0D8
:1038F00063FC2668A0684946321C431A4A44A36008
:103900002260002B40D10398211CFFF79FFD002867
:103910003AD0A289402313430120A381404280E78B
:103920000026002501965F46002D28D0A068802142
:10393000890080460B42CBD085423FD39022D200F3
:1039400013424CD12068C14601994A4600F034FC2C
:10395000A06822684146431AA360131C4B442360AD
:103960002A1C5046019E8068B618AD1A5146821A2C
:1039700001968A6000D153E7A389002DD6D13E6815
:103980007D6801960837CFE74A46EAE7494642464E
:1039900000F012FCA06822684146431AA360131C81
:1039A00043442360BF1B00D079E70398211CFFF735
:1039B0004DFD0028ADD10023019370E7A846206893
:1039C000A946C1E748460A212A1C00F0B3FB00289B
:1039D0006DD0471C012648463F1A019642E76269AE
:1039E0002169500082182668D00F8218761A52106A
:1039F0009146321C01325219B346914543D2914649
:103A0000580543D50398111C00F00EF98046002894
:103A100054D05A462169FCF701FFA2892B4B134071
:103A200080221343A38140464A465E462061931B91
:103A3000584420606261A846A360A94684E72449EF
:103A4000281E884200D9081C4946FCF785FE4B46D3
:103A50004343E1690398019A666AB047002800DC95
:103A600057E7021C7DE7494600F0A6FB2268029E4C
:103A7000039893192360211CFFF7E8FC002800D06D
:103A800047E7029E08E74A465805BBD4039800F072
:103A90006FFF80460028C6D103982169FFF7C6FD55
:103AA000A2898023039F9A430C233B6032E70126BF
:103AB0006F1C0196D6E601204042B2E6039E0C231D
:103AC0003360A28926E7C04600FCFF7F7FFBFFFF33
:103AD000FFFFFF7FF0B5B8224746920080B48718F9
:103AE00088460026002F13D07D68BC68013D0CD4A9
:103AF000A389012B06D90E22A35E013302D0201C1C
:103B0000C04706436834013DF2D23F68002FEBD135
:103B1000301C04BC9046F0BD004870478C04002067
:103B2000014B18687047C046AC040020004870473D
:103B300054040020F0B58B8991B09AB2051C0C1C7E
:103B4000900740D40E20095E00291BDB281C01AA27
:103B500001F09CFA002813DB029AF0231B021340A9
:103B6000294A9F187A42574180221202934234D048
:103B7000A28980231B0113438026A381F60009E05C
:103B8000A3899AB24026110624D58022120113433C
:103B9000A3810027281C311C00F046F800280CD017
:103BA0001A4BEB63A28980231343A3812060206119
:103BB0006661002F1CD111B0F0BDA3899905FAD41C
:103BC00002221343A381231C433323602361012377
:103BD0006361F0E78026F600D7E70D4BA06A9842B4
:103BE000C6D1A3898026F6003343A381E664D1E7DA
:103BF0000E22A15E281C01F05DFA0028DBD0A2890C
:103C000001231343A381D6E700E0FFFF79340000CE
:103C1000B54D000008B5034B011C186800F004F80E
:103C200008BDC04650040020F0B5564644465F46E5
:103C30004D46F0B40C1C0B3483B0061C162C2BD94B
:103C400007239C432BD4A14229D8301C00F064FBED
:103C5000F823FF339C4226D8E208CA4DD300EB1864
:103C6000DF689F4200D1BBE178680323FA68B96836
:103C700098433B18CA609160596801220A43301C7E
:103C80005A6000F04BFB381C083003B03CBC904637
:103C90009946A246AB46F0BD1024A142D5D90C23CB
:103CA00033600020F1E7630A00D18EE0042B00D9D5
:103CB0003DE1A30938339C465900B24D890069188B
:103CC000CF68B94215D07A6803239A43101B0F2896
:103CD00000DD8DE000287CDA032007E07A6882436B
:103CE000131B0F2B00DD83E0002B72DAFF68B94253
:103CF000F4D1012294442B1C2F6908339F4200D138
:103D000063E1786803229043021C011B0F2900DD48
:103D10004AE16B612B6100295FDA9B4B984200D925
:103D20000FE1C3089A100121DB00EB18914068688D
:103D30000A1C99680243FB60B9606A609F60CF60AB
:103D400061468B1001219940914255D811420DD105
:103D5000032360469843031C043349009C461142E8
:103D600004D1042349009C441142FAD00320804628
:103D70006246D3005B199A46181CE146C768B842F0
:103D800007D124E1002B00DB33E1FF68B84200D10A
:103D90001DE17A6843469A43131B0F2BF2DD012184
:103DA0003A190C437C60F868BC680835E060194338
:103DB0008460EA60AA60301CD56095605160D35081
:103DC00000F0ACFA381C08305FE73F227E219446B1
:103DD00073E7FB68B968CB609960BA185168012332
:103DE0000B43301C536000F099FA381C08304CE744
:103DF0000120404284447CE7AF68032378689843FD
:103E00008146A04203D3031B0F2B00DD81E05F4AF4
:103E10005F4B49461B68106879180191E318934677
:103E2000013000D147E15B495B181B0B1B0300937A
:103E3000301C009900F07CFF021C804601325DD0EE
:103E4000019B834200D9EBE0534800990268824607
:103E50008B1801990360414500D135E15A4612683B
:103E6000013200D143E1019841460A1A9B1851469C
:103E70000B6007234246134000D104E1D21A0832F6
:103E80009046464AD31A0098021C42441205120D6D
:103E90009A1A111C301C934600F04AFF411C00D1B5
:103EA00021E14246801A58440123184352461168C2
:103EB0000B1C5B444146A96013604860AF4213D0BD
:103EC0004A460F2A00D8E9E04A46786807210C3AAA
:103ED0008A4301210140114379600520B9184860E7
:103EE00088600F2A00D906E12D4A1068834200D964
:103EF00013602C4A11688B4200D91360AF6803230A
:103F00007A689A43131B944200D9AEE00F2B00DC71
:103F1000ABE00122211C11433C1913437960301C92
:103F2000AC60636000F0FAF9381C0830ADE6142B81
:103F30006ED9542B00D99DE0230B6E339C4659005B
:103F4000BBE6430A042B67D9142B00D9B6E0191C31
:103F50005B3148008000401983688146834200D16C
:103F600094E0032188465968404681438A4202D240
:103F70009B689945F7D1D9686A68F960BB608F6022
:103F8000DF60DDE6B0040020FF010000BC08002077
:103F90007C0B00200F100000800B00200810000098
:103FA000780B0020740B002001203A1904430843C9
:103FB0007C606A612A615060D3609360301C51500C
:103FC00000F0ACF9381C08305FE66A68B8E60122F8
:103FD000914443464A460830134200D0CEE62CE0D6
:103FE0003B1C7F69023208339446BB4200D182E613
:103FF0003AE6BA185068012303435360FB68BA6875
:10400000301CD3609A6000F089F9381C08303CE617
:104010005B339C46590050E681093831480099E7E6
:10402000AF4200D06AE70FE75346186801225242B8
:10403000083B94448246984277D143466046034207
:10404000F2D16B688B436B604900994200D9D3E68B
:10405000002900D1D0E6CC46194200D088E60422DF
:10406000490094441942FAD082E6301C00F056F917
:1040700000200AE6AA225200934214D8E30B7733B9
:104080009C46590019E680235B01FCE689106868AC
:1040900001228A4002436A60191C6EE701234B60CB
:1040A000474600222EE7224A934218D8A30C7C33BD
:1040B0009C46590001E610330093B9E6542B22D8F0
:1040C000010B6E31480045E70A0500D0C6E60099AD
:1040D000AA68081C484401210143516004E77E237B
:1040E000FC219C46E9E5002301209B46DEE6434691
:1040F00058460360BDE6391C0831301CFFF796FABC
:1041000051460B68F0E6AA2149008B4203D8C10B47
:10411000773148001EE706498B4203D8810C7C3179
:10412000480017E7FC207E2114E76B688CE7C04647
:1041300054050000F0B5CCB2830737D0531E002AD7
:104140001FD00278A2421DD0032505E0002B18D015
:104150000278013BA24215D001302842F6D1032B50
:1041600011D8002B0DD00278A2420BD0421CC318EC
:1041700004E00132511E0978A14203D0101E98427A
:10418000F7D10020F0BDFF2631400E0231430E046E
:10419000074D0E430268074F7240D11991432942DF
:1041A000DFD1043B0430032BF4D8DAE7131CD6E745
:1041B00080808080FFFEFEFEF0B588420ED98D180B
:1041C000A8420BD28618531E5142002A05D06A1805
:1041D000D45C7218D454013BF9D2F0BD0F2A09D82F
:1041E000051C002AF9D00023CC5CEC540133934227
:1041F000FAD1F2E7031C0B439C072AD1161C103E90
:1042000036093501451910350C1C031C27681F6041
:1042100067685F60A7689F60E7681034DF601033ED
:10422000AB42F3D1731C1B01C518C9180F231340EF
:10423000032B10D91C1FA4080134A4000023CE585E
:10424000EE500433A342FAD1ED18C91803231A40E3
:10425000C7E7051CC7E71A1CC3E7C046F0B54F46C1
:104260004646C0B483B0830752D0541E002A4AD0B9
:10427000CEB2031C032503E0621E002C43D0141CA5
:1042800001335A1E16702B42F6D1032C33D9FF2569
:104290000D402A0215432A0415430F2C1AD9271C56
:1042A000103F3F09B9463F01B8461027FF18BC46EA
:1042B00046461A1C6644156055609560D5601032FC
:1042C000B242F8D14F4601373F010F22DB191440AB
:1042D000032C10D9271F1E1DBF080196BE00B4462F
:1042E000019E1A1C664420C2B242FCD10137BF00B5
:1042F0000322DB191440002C05D0C9B21C19197017
:104300000133A342FBD103B00CBC90469946F0BDEB
:10431000031C141CB9E7C0467047C0467047C0462E
:10432000C36C70B5041C0D1C002B0AD0AA009A188F
:10433000106800280ED00368136000220261C2607A
:1043400070BD0421212200F0ADFDE064031EEDD11B
:104350000020F5E70126AE40721D9200201C0121CD
:1043600000F0A0FD0028F3D045608660E5E7C04678
:10437000002906D04A689300C26CD3181A680A60F4
:1043800019607047F8B54D4644465F465646984614
:104390000B69F0B40D1C83468A46994614350024F7
:1043A0002E68013437043F0C5743360C56434744BC
:1043B0003B0C9E193F04310C3F0C3604F61988461D
:1043C00040C5A145ECDC00290DD0524692689145CC
:1043D00010DA4B4604339B00534442465A604B4626
:1043E000013351460B6150463CBC90469946A2466B
:1043F000AB46F8BD5346596858460131FFF790FF68
:1044000053461A6951460232041C0C3192000C309A
:10441000FCF704FA514649688B005946CA6C51466C
:10442000D3181A68A2460A601960D2E7031C010C6F
:104430000022002901D103041022190E01D10832F3
:104440001B02190F01D104321B01990F01D1023255
:104450009B00002B05DB2020590000D47047501C26
:10446000FCE7101CFAE7C0460368011C580708D097
:104470000020DA0704D4980720D49B080B600220A0
:10448000704718040022002801D11B0C1022FF20C5
:10449000184201D108321B0A180701D104321B0946
:1044A000980701D102329B08D80704D45B0820206A
:1044B000002BE5D001320B60101CE1E75B080B60BC
:1044C0000120DDE710B50C1C0121FFF729FF0123B6
:1044D0004461036110BDC046F0B55F4656464D4687
:1044E0004446F0B40F69146985B00E1C151CA74230
:1044F00004DA3B1C161C271C0D1C1C1CB3683A1943
:10450000716890469A4200DD0131FFF709FF1421DE
:10451000424683468B4493005B44191C03930290EC
:104520005B4600228B4503D2039904C39942FCD811
:104530001435AA46A4001436BF0054440096F71957
:104540000194A5424CD251460D682C04240C1FD076
:10455000009A5B460025196840CA0804010C300423
:10456000000C6043360C0818664340191D689946D4
:10457000290C8919050C491900040D0C000C0904BB
:10458000014302C39742E6D849464D60524615683A
:104590002D0C1FD05B4619680026009A081C341C9D
:1045A0001688000C6E433618361909043004090CBD
:1045B0000143196010CA5868240C6C430104090CAB
:1045C0006118360C89199C460C0C04339742E7D8C5
:1045D000654669600421019A8A448B445245B2D8E9
:1045E0004346002B0EDD039B043B1D68002D09D1C3
:1045F000424603E0043B1968002902D1013A002A2F
:10460000F8D19046029B4246181C1A6105B03CBC8A
:1046100090469946A246AB46F0BDC046F8B5464620
:104620004F460323C0B480460E1C141C134036D1E1
:10463000A41023D041468D6C002D39D000230127D2
:104640009946274207D1641018D0286800281AD04C
:10465000051C2742F7D04046311C2A1CFFF73CFFBF
:10466000002E1AD071684246D26C8B00D31819689C
:10467000641031601E60061C002CE6D1301C0CBC9E
:1046800090469946F8BD2A1C291C4046FFF724FF96
:104690004A4628600260051CDBE7061CD3E70B4A8C
:1046A000013B9B009A580023FFF76CFE061CBFE7F6
:1046B00040460121FFF734FE054B4246436101238A
:1046C000036100239064051C0360B7E7809B010031
:1046D00071020000F0B54D46444656465F46F0B4C0
:1046E0000E1C83B00190306955114019041CB36849
:1046F00001349146496880469C4203DD01315B00EC
:104700009C42FBDC0198FFF70BFE011C009014316A
:10471000002D08DD0A1C00230027013380C2AB42B4
:10472000FBD19B00C9183269331C950014331F223A
:104730004F465D19174027D02022D21B94460A1CF1
:10474000002118689246B840014302C202CB60467D
:10475000C1409D42F5D852465160002901D04446DF
:10476000023401997068009BCA6C013C1C61830093
:10477000D3181A68009832601E6003B03CBC9046A3
:104780009946A246AB46F0BD0A1C02CB02C29D422E
:10479000FBD8E6E710B50B690469E21A11D19A005B
:1047A000143014318318891801E098420BD2043B6D
:1047B00004391C680A689442F7D09442924101235C
:1047C0001A43101C10BD0022FBE7C046F8B54F4647
:1047D0004646C0B40C1C071C081C111C161CFFF715
:1047E000D9FF051E5DD0002856DB00256168381C06
:1047F000FFF796FD8446C5602069231C14338200B0
:10480000D21890463269351C14359200521964460C
:1048100091461434002104CB80CD1604360C711857
:104820003E04360C8E1B120C3F0C3114D21B521856
:104830003604360C1114043412043243261F32603D
:10484000A945E8D89946984517D9271C40CB350487
:104850002D0C6D182A14360C92192D0411142D0CE0
:1048600012042A4304C79845F0D84946CB43434431
:104870009B0801339B00E418261F331C002A04D137
:10488000043B1A680138002AFAD063461861604672
:104890000CBC90469946F8BD231C0125341C1E1CF7
:1048A000A4E7381C0021FFF73BFD012303614561AC
:1048B000EEE7C046F0B5012183B01D1C141CFFF7C4
:1048C0002FFD2B036A00061C1B0B570D02D0802204
:1048D000520313430193002C1AD068460094FFF74B
:1048E000C3FD002831D1009B019C7361B461634218
:1048F00063410224E41A3461002F14D0194A089944
:10490000BB181B180B60099A3523181A106019E0A0
:1049100001A8FFF7A9FD01990123716133612030DE
:104920000124002FEAD1104B104AC018A31808998F
:104930009B00F31808605869FFF778FD6401099B34
:10494000241A1C60301C03B0F0BD019C20231B1AEC
:10495000211C9940009A0B1C1343C44073610194BD
:10496000C4E7C046CDFBFFFFCEFBFFFFFFFFFF3FCD
:10497000F0B54D4644465F465646F0B4804685B095
:104980000D1C914600D1DDE02E1C083EFFF7C4FC53
:1049900073684F4603221C1C0B37B3469443162FF3
:1049A00000D976E0102001901027B94500D975E0B4
:1049B000019A944256DAC5483219806803909042B1
:1049C00000D1C3E05168081C8A460121884384460F
:1049D0009444614648680121084264D000200022C6
:1049E000D90700D586E033680321F31A8C4659684D
:1049F0009A46634699438C46002A00D1DFE003992A
:104A00008A4200D1DEE061460B190199C01803907B
:104A100088426ADBD3689268D3609A605246D36852
:104A200092685646D3609A60221F0836242A00D91D
:104A3000BBE0331C132A0AD92B685046836069688F
:104A4000C1601B2A00D905E15346103308352A6896
:104A500051461A606868039C5860AD68D3469D60F3
:104A60004B68351CE21B0F2A2CD80122134023432C
:104A7000584643605C4461680A4362604046FFF701
:104A80004DFC281C05B03CBC90469946A246AB465E
:104A9000F0BD07229743019700D486E70C234146D7
:104AA0000B600020EEE7032051468143081C0919E2
:104AB0008C4601998C4593DBD16892686446D1603D
:104AC0008A60CFE75846C119012003401F435B4667
:104AD0005F60131C03438A184B6053680831184306
:104AE00050604046FEF7A2FDC8E703930398019982
:104AF000884293DA49464046FFF796F881460028F7
:104B000000D1D5E07368021C0121181C8843083AC3
:104B10003618B24200D198E0221F242A40D8132A26
:104B200022D84B462A1C1068186051685960926858
:104B30009A604046291CFEF779FD4046FFF7EEFBE0
:104B400048469FE7111CFFF76FF89BE7039A5268EE
:104B500002920298032290433A1C011910328C46AB
:104B600091420CDA039A3BE729684B461960686862
:104B700058601B2A5ED82A1C08330832D3E7534BEF
:104B8000F21960469A60C11B012319435160716894
:104B900040460B401F437760FFF7C0FB281C71E7BE
:104BA0004846291CFFF708FBC3E7291C301CFFF708
:104BB00003FB52465368351C039CD34652E70B193E
:104BC000039393E7624613193A1CC01810320390FE
:104BD00090428ADB50468268C3685646D3609A602A
:104BE000221F0836242A53D8331C132A08D92968CF
:104BF00081606B68C3601B2A4FD853461033083559
:104C00002868186069685960AD689D605346DA1974
:104C1000039B2E48D91B01231943826051605046E3
:104C20004068514603401F4340464F60FFF776FB04
:104C3000301C27E7A9684B469960E868D860242AA9
:104C400013D02A1C103310326DE7526803218A43B7
:104C5000A41807E7AB6850460361E9684161242A5C
:104C60000DD0534618331035F1E629692A1C196115
:104C700068694B46494618331832486153E72A6938
:104C800053468261686951462033C8611835DEE6B3
:104C9000301C291CFFF790FAB8E7A8685146086154
:104CA000EB684B61242A08D0534618331035A7E728
:104CB0004046FFF733FB0020E4E62869514688614F
:104CC0006A6953462033CA61183599E7B004002059
:104CD0000B1C011C021C30B519430220002900D115
:104CE00030BD802109068B4216D00D4904205C1886
:104CF0000C498C42F4D90C4D5C198C42F0D90B4C08
:104D0000590049080320A142EAD9074C0020A142DA
:104D1000E6D150425041E3E7002AE1D0EFE7C04638
:104D20000000F0FFFFFFDF7F0000F07FFFFF0F00BC
:104D300038B5074C0023051C081C236003F0EAFE6D
:104D4000431C00D038BD2368002BFBD02B60F9E753
:104D5000EC40002038B50C1C0E25495F00F0D0F95E
:104D6000002803DB226D1318236538BDA289024B8E
:104D70001340A381F9E7C046FFEFFFFFF8B50C1C15
:104D80008989051C171C1E1CCB0506D50E23E15E68
:104D90000022022300F0A0F9A189054B281C19402C
:104DA000A1813A1C0E23E15E331C00F067F8F8BDC8
:104DB000FFEFFFFF38B50C1C0E25495F00F08CF9A2
:104DC000A289431C05D080235B011343A381206586
:104DD00038BD024B1340A381FAE7C046FFEFFFFF47
:104DE00008B50E23C95E00F08DF808BDF0B5574632
:104DF0004E464546E0B40F1C496E804691468904F4
:104E00002DD513689A469368002B26D051464968E1
:104E100052468E0814680025002E04DC15E001358A
:104E20000434AE420FD0404621683A1C00F0CCF862
:104E3000431CF4D14A460023936053601CBC904647
:104E40009946A246F0BD49468B68B6009B1B494671
:104E500008228B609244002BD8D10020EAE7391C4D
:104E6000FEF7ACFCE6E7C04608B59368002B02D01D
:104E7000FFF7BCFF08BD53600020FBE770B5084C8E
:104E8000061C0025081C111C1A1C256004F022F8C1
:104E9000431C00D070BD2368002BFBD03360F9E7C2
:104EA000EC40002010B55143FEF7BEFE041E27D093
:104EB000031C083B5A6803239A43043A242A15D852
:104EC000031C132A05D800221A605A609A60201C1D
:104ED00010BD00210160416008331B2AF3D98160B5
:104EE000C160242A07D0031C1033ECE70021FFF730
:104EF000B5F9201CECE7031C016118334161E2E7BE
:104F00000020E5E738B5074C0023051C081C23608A
:104F100003F012FE431C00D038BD2368002BFBD0E9
:104F20002B60F9E7EC40002070B5051C0C1E08D082
:104F3000002802D0826B002A31D00C22A35E002B05
:104F400001D1002070BD281C211CFEF77FFAE36A06
:104F5000061C002B04D0281CE1699847002821DB9F
:104F6000A3891A0621D4216B002908D0231C4033C1
:104F7000994202D0281CFEF759FB00232363616C81
:104F8000002904D0281CFEF751FB00236364FEF7C0
:104F9000F9FA0023A381FEF7F7FA301CD2E7FEF7F7
:104FA00073FACAE701267642DAE7281C2169FEF780
:104FB0003DFBD8E708B5034B011C1868FFF7B4FFA9
:104FC00008BDC04650040020F0B557464E46C0B458
:104FD000141C802392899B0183B0824689461A4221
:104FE00004D11A43A281626E13436366FEF798FDF3
:104FF00001283FD001AE231C5046311C4A465C3389
:1050000000F092F8071C421C1ED000283CD03178DA
:10501000002508E022681170236801332360013500
:10502000BD4231D2715DA368013BA360002BF1DA70
:10503000A269934211DB2368197023681A780A2A3F
:10504000EBD150460A2109E0A28940231343A381F2
:1050500003B00CBC91469A46F0BD5046221CFDF7A9
:105060003DF8431C5A425341DBB2002BD7D00120FC
:105070004042EDE74B46013BFE2BBBD84B46D9B235
:1050800001AE31700127C3E74846E1E738B5084C67
:105090000023051C081C111C236003F051FD431C58
:1050A00000D038BD2368002BFBD02B60F9E7C04649
:1050B000EC40002038B5074C0023051C081C236079
:1050C00003F044FD431C00D038BD2368002BFBD007
:1050D0002B60F9E7EC40002070B5084C061C002559
:1050E000081C111C1A1C256003F032FD431C00D063
:1050F00070BD2368002BFBD03360F9E7EC40002043
:1051000070B5084C061C0025081C111C1A1C2560D3
:1051100003F094FC431C00D070BD2368002BFBD02F
:105120003360F9E7EC400020F0B5474680B41E1C20
:1051300086B0051C0C1C171C104B002913D01A68D4
:105140009046FEF7E9FC0096031C211C281C3A1C23
:10515000C047431C03D1002333608A232B6006B071
:1051600004BC9046F0BD1C68FEF7D6FC0096031CFC
:1051700003A9281C0022A047EBE7C046C008002076
:10518000002904D0FF2A04D80A70012070470020AB
:10519000FCE78A23036001204042F7E710B5041CB6
:1051A0000388002B02D03A2B06D00EE0094B98471B
:1051B0003A23238001200BE0074B1B7801208B4210
:1051C00006D1101C054B9847F2E70023038003200B
:1051D00010BDC0464D580000804D002065570000AE
:1051E00008B502480021024B984708BDC4080020BA
:1051F000CD9F000038B5041C83880222FF32934201
:1052000012D00222FF32934202D8002B09D06BE069
:105210008322520093421FD01A22FF3293424CD075
:1052200062E00223FF338380201D2021334B984707
:1052300001285DD9201C503031490422314B984758
:10524000002806D01022304B1A700023A3800220C1
:1052500053E083235B00A380251D281C2021274BBE
:105260009847012846D95023E35C2F2B06D0102203
:10527000254B1A700023A38002203EE05123E35CFB
:10528000202B06D1201C823020491422204B984725
:105290000DE0281C1F4B984723184F3300221A702B
:1052A000211C5031201C82301422194B98470122B6
:1052B0009623E2541A23FF33A380251D281C0A21BC
:1052C0000E4B9847012817D9201C5030124908224C
:1052D0000C4B98470028EDD1281C0E4B98472018FE
:1052E0004E3000230370E5E70023A380032004E091
:1052F000002002E0002000E0002038BDC55A000078
:10530000809E01000D7F010088480020B49C0100B0
:10531000C57F01008D5A0000A89C010038B5041C0F
:105320000D1C038DC52B05D0D82B5DD0002B68D16B
:10533000C5230385281C374B9847021C201C2830A6
:10534000291C354B984701285FD9201C82302E211B
:10535000324B9847051C324B186002D1314A1A6013
:1053600040E03148291C0522304B9847002806D0E0
:105370002F48291C06222D4B9847002803D12D4A7F
:10538000274B1A602EE02C48291C0422274B9847F3
:10539000002803D1294A224B1A6023E02848291CFF
:1053A0000422224B9847002803D1264A1C4B1A603E
:1053B00018E02548291C04221C4B9847002803D1DB
:1053C000224A174B1A600DE02148291C0422174B72
:1053D0009847002803D11F4A114B1A6002E01E4A69
:1053E0000F4B1A60D82323850D4B1D68281C094BD1
:1053F0009847021C201C2830291C074B984701287D
:1054000005D900232385032002E0002000E00020CE
:1054100038BDC046490A00005559000039800100D6
:1054200028110020209D01004C9D01000D7F0100EE
:10543000789E0100049D01005C9D0100BC9D01005F
:10544000549D0100E89C0100F89D0100009E0100B0
:10545000C09C0100C89C0100D89D010010B5041C2F
:10546000038D002B02D05A2B02D015E05A2323853E
:10547000201C28300B49221C0B4B984701280FD9C0
:10548000A023E1589C22A058431AA3509822A05868
:105490004118A150002BE9DC00232385032000E004
:1054A000002010BD29570000095A0000F8B5041C5F
:1054B0004C23C35AEA2B2DD004D8002B0BD0E82B59
:1054C0001ED004E1F22B4BD0F52B00D1F7E0EE2BF0
:1054D00000D0FCE028E0051C8235061C9836281C0C
:1054E000311C824B984700281BD1281C8049814BD6
:1054F0009847281C311C7D4B9847E8224C23E252E8
:10550000201C7D497D4B9847012800D8E4E0EA2221
:105510004C23E252201C7A4B9847012800D9D3E053
:10552000DCE0EE224C23E252201C7649734B984774
:10553000012800D8D4E0201C82302E21724B9847DD
:10554000002800D1B8E071490622714B9847002825
:1055500000D0B1E000224E23E252F2224C23E2526C
:105560004E23E35A8E2B22D003D8002B00D19AE091
:105570009EE0912B24D0B22B77D099E09823E65867
:105580003378252B46D17378212B43D1F31CA422E9
:10559000A350033DA823E550B3783A2B0DD1301D1D
:1055A000211C9831514B98478E224E23E252201CE9
:1055B000534B984701280ED896E091224E23E25291
:1055C000A4256059534B9847031C6159201C9847E8
:1055D000012800D888E0A423E558281C0A214E4B56
:1055E000984700280AD00130A823421B1204120C4D
:1055F000E1588A1AE250A423E05002E00022A823D6
:10560000E250A423E2589823E250A823E2589C23B6
:10561000E25048E0414B1F68FB8B9D4202DDA02217
:10562000A35001E0A023E5503378252B04D1701C52
:105630002521394B984703E0301C2521364B9847EC
:1056400000280FD086420DD0801BA023E050FB8B9A
:10565000984201DBA022A350A023E3589D4201DC25
:10566000A023E550B2224E23E252238D002B02D01C
:10567000672B02D00BE067232385201C283098235A
:10568000E158A023E258264B984701282CD9002343
:105690002385A023E2589823E0588118E1509C23E9
:1056A000E1588A1AE2509C23E558002D00DD65E799
:1056B00000224E23E25207E0F5224C23E252201C46
:1056C0000F4B984701280DD91022164B1A70002253
:1056D0004C23E252032008E0002006E0002004E012
:1056E000002002E0002000E00020F8BDA15C0000E6
:1056F0009C9C0100FD7E01001C9E01001D530000CA
:105700005D540000649D010039800100789E010015
:105710000D7F0100656C0000257E01009848002087
:10572000555900008848002038B5041C9C23C358F4
:10573000094A1268D28B934202DDA023C25001E0D5
:10574000A0228350054B1868A0259823E158625980
:10575000034B9847605B38BD984800209448002070
:105760001D08000070B5041C2F4B1B7830221A4214
:1057700002D15AB2002A06DA002C53D02B48211C41
:105780002B4B98474EE05A062AD52848294B984774
:10579000041E03D12022244B1A7043E0264B1868C4
:1057A000211C264B9847261C5036201D311C3122C7
:1057B000234DA847201C2830311C3122A847002245
:1057C0004C23E2529625002363552370201C1D4B69
:1057D0009847635D012B25D1201C1B4B984721E086
:1057E00000281CD01A070DD503780133DBB20370F3
:1057F000132B09D920220C4B1A700C48211C0C4B7E
:10580000984701E000230370201C0E4B9847962315
:10581000E35C012B06D1201C0B4B984702E02022B1
:10582000014B1A7070BDC04688480020D408002083
:10583000E95B0000A55B000098480020BDF7000070
:105840006D5B0000F5510000AD54000008B5A020CC
:10585000C001044B98470448044B9847044B9847B1
:1058600008BDC04659F70000D4080020855B000041
:10587000D96C0000F0B55F4656464D464446F0B43C
:1058800083B0051C01918846012290445B230B7074
:10589000002700240026224B9B46224A9246224B98
:1058A0009946321C7300585B002816D1002C14D185
:1058B0000134E4B213195B005B5B002BF8D0012CC0
:1058C00005D14046013030234246137018E0A61936
:1058D000F6B2E719FFB2404609E0D847021C40463D
:1058E0005146C84740440136F6B20137FFB2082F8F
:1058F00006D0431C98463A230370072FD1D940465F
:105900005D230370002343700130019A801AC0B2F6
:1059100003B03CBC90469946A246AB46F0BDC0469B
:10592000D5D700008C9C0100E17D010010B582B04C
:105930000278437884780094C0780190081C034969
:10594000034CA047C0B202B010BDC046909C0100FD
:10595000E17D010010B5041C4388002B02D0B72B59
:105960000ED044E0002A03D100234380022043E00C
:105970004160028200222023C25432E0B7236380B8
:105980002023E35C062B03D11C4B1B785A0711D54F
:10599000238A1B4A1268D18B8B4203D96068194B4A
:1059A000984703E06068191C164B9847062220238D
:1059B000E25420E0DA071ED5238A114A1268D18BFF
:1059C0008B4206D95B1A2382D38B6268D31863603B
:1059D00004E06268D318636000232382012220233D
:1059E000E254238A002BC9D100222023E254002351
:1059F0006380032000E0002010BDC04688480020DE
:105A000098480020F9D7000038B5041C4388002BC3
:105A100002D0D92B22D02CE0002903D100234380CF
:105A2000022029E000202023E054101C8847031C9A
:105A30002082124A10686060114A1268D18B8B4232
:105A400002D9104B984702E0191C0E4B98470622CA
:105A50002023E254D923638001200DE00A4B1B78F8
:105A6000012005251D4207D0D807DED500222023BE
:105A7000E25400236380032038BDC04694480020D0
:105A800098480020F9D7000088480020C269038B9D
:105A9000D01A80B27047C046031C428A0120002AF7
:105AA0000CD120229A5C022A04D10321202299548D
:105AB000002003E0024B18788007C00F7047C046F3
:105AC0008848002038B5041C0D1C4388002B04D0E6
:105AD0008322520093420AD03EE0838BC268426127
